{
  "_format": "hh-sol-artifact-1",
  "contractName": "LazyMinting",
  "sourceName": "contracts/LazyMinting.sol",
  "abi": [
    {
      "inputs": [],
      "stateMutability": "nonpayable",
      "type": "constructor"
    },
    {
      "anonymous": false,
      "inputs": [
        {
          "indexed": true,
          "internalType": "address",
          "name": "owner",
          "type": "address"
        },
        {
          "indexed": true,
          "internalType": "address",
          "name": "approved",
          "type": "address"
        },
        {
          "indexed": true,
          "internalType": "uint256",
          "name": "tokenId",
          "type": "uint256"
        }
      ],
      "name": "Approval",
      "type": "event"
    },
    {
      "anonymous": false,
      "inputs": [
        {
          "indexed": true,
          "internalType": "address",
          "name": "owner",
          "type": "address"
        },
        {
          "indexed": true,
          "internalType": "address",
          "name": "operator",
          "type": "address"
        },
        {
          "indexed": false,
          "internalType": "bool",
          "name": "approved",
          "type": "bool"
        }
      ],
      "name": "ApprovalForAll",
      "type": "event"
    },
    {
      "anonymous": false,
      "inputs": [
        {
          "indexed": false,
          "internalType": "address",
          "name": "buyer",
          "type": "address"
        },
        {
          "indexed": true,
          "internalType": "uint256",
          "name": "tokenId",
          "type": "uint256"
        },
        {
          "indexed": true,
          "internalType": "string",
          "name": "tokenURI",
          "type": "string"
        },
        {
          "indexed": true,
          "internalType": "uint256",
          "name": "price",
          "type": "uint256"
        }
      ],
      "name": "Mint",
      "type": "event"
    },
    {
      "anonymous": false,
      "inputs": [
        {
          "indexed": true,
          "internalType": "address",
          "name": "previousOwner",
          "type": "address"
        },
        {
          "indexed": true,
          "internalType": "address",
          "name": "newOwner",
          "type": "address"
        }
      ],
      "name": "OwnershipTransferred",
      "type": "event"
    },
    {
      "anonymous": false,
      "inputs": [
        {
          "indexed": true,
          "internalType": "address",
          "name": "from",
          "type": "address"
        },
        {
          "indexed": true,
          "internalType": "address",
          "name": "to",
          "type": "address"
        },
        {
          "indexed": true,
          "internalType": "uint256",
          "name": "tokenId",
          "type": "uint256"
        }
      ],
      "name": "Transfer",
      "type": "event"
    },
    {
      "inputs": [
        {
          "internalType": "address",
          "name": "to",
          "type": "address"
        },
        {
          "internalType": "uint256",
          "name": "tokenId",
          "type": "uint256"
        }
      ],
      "name": "approve",
      "outputs": [],
      "stateMutability": "nonpayable",
      "type": "function"
    },
    {
      "inputs": [
        {
          "internalType": "address",
          "name": "owner",
          "type": "address"
        }
      ],
      "name": "balanceOf",
      "outputs": [
        {
          "internalType": "uint256",
          "name": "",
          "type": "uint256"
        }
      ],
      "stateMutability": "view",
      "type": "function"
    },
    {
      "inputs": [
        {
          "internalType": "uint256",
          "name": "tokenId",
          "type": "uint256"
        }
      ],
      "name": "getApproved",
      "outputs": [
        {
          "internalType": "address",
          "name": "",
          "type": "address"
        }
      ],
      "stateMutability": "view",
      "type": "function"
    },
    {
      "inputs": [
        {
          "internalType": "address",
          "name": "owner",
          "type": "address"
        },
        {
          "internalType": "address",
          "name": "operator",
          "type": "address"
        }
      ],
      "name": "isApprovedForAll",
      "outputs": [
        {
          "internalType": "bool",
          "name": "",
          "type": "bool"
        }
      ],
      "stateMutability": "view",
      "type": "function"
    },
    {
      "inputs": [],
      "name": "name",
      "outputs": [
        {
          "internalType": "string",
          "name": "",
          "type": "string"
        }
      ],
      "stateMutability": "view",
      "type": "function"
    },
    {
      "inputs": [],
      "name": "owner",
      "outputs": [
        {
          "internalType": "address",
          "name": "",
          "type": "address"
        }
      ],
      "stateMutability": "view",
      "type": "function"
    },
    {
      "inputs": [
        {
          "internalType": "uint256",
          "name": "tokenId",
          "type": "uint256"
        }
      ],
      "name": "ownerOf",
      "outputs": [
        {
          "internalType": "address",
          "name": "",
          "type": "address"
        }
      ],
      "stateMutability": "view",
      "type": "function"
    },
    {
      "inputs": [
        {
          "internalType": "bytes32",
          "name": "hash",
          "type": "bytes32"
        },
        {
          "internalType": "bytes",
          "name": "signature",
          "type": "bytes"
        }
      ],
      "name": "recoverSigner",
      "outputs": [
        {
          "internalType": "address",
          "name": "",
          "type": "address"
        }
      ],
      "stateMutability": "pure",
      "type": "function"
    },
    {
      "inputs": [
        {
          "components": [
            {
              "internalType": "uint256",
              "name": "tokenId",
              "type": "uint256"
            },
            {
              "internalType": "uint256",
              "name": "price",
              "type": "uint256"
            },
            {
              "internalType": "string",
              "name": "tokenURI",
              "type": "string"
            }
          ],
          "internalType": "struct LazyMinting.NFTVoucher",
          "name": "voucher",
          "type": "tuple"
        },
        {
          "internalType": "bytes32",
          "name": "hash",
          "type": "bytes32"
        },
        {
          "internalType": "bytes",
          "name": "signature",
          "type": "bytes"
        }
      ],
      "name": "redeem",
      "outputs": [],
      "stateMutability": "payable",
      "type": "function"
    },
    {
      "inputs": [],
      "name": "renounceOwnership",
      "outputs": [],
      "stateMutability": "nonpayable",
      "type": "function"
    },
    {
      "inputs": [
        {
          "internalType": "address",
          "name": "from",
          "type": "address"
        },
        {
          "internalType": "address",
          "name": "to",
          "type": "address"
        },
        {
          "internalType": "uint256",
          "name": "tokenId",
          "type": "uint256"
        }
      ],
      "name": "safeTransferFrom",
      "outputs": [],
      "stateMutability": "nonpayable",
      "type": "function"
    },
    {
      "inputs": [
        {
          "internalType": "address",
          "name": "from",
          "type": "address"
        },
        {
          "internalType": "address",
          "name": "to",
          "type": "address"
        },
        {
          "internalType": "uint256",
          "name": "tokenId",
          "type": "uint256"
        },
        {
          "internalType": "bytes",
          "name": "_data",
          "type": "bytes"
        }
      ],
      "name": "safeTransferFrom",
      "outputs": [],
      "stateMutability": "nonpayable",
      "type": "function"
    },
    {
      "inputs": [
        {
          "internalType": "address",
          "name": "operator",
          "type": "address"
        },
        {
          "internalType": "bool",
          "name": "approved",
          "type": "bool"
        }
      ],
      "name": "setApprovalForAll",
      "outputs": [],
      "stateMutability": "nonpayable",
      "type": "function"
    },
    {
      "inputs": [
        {
          "internalType": "bytes4",
          "name": "interfaceId",
          "type": "bytes4"
        }
      ],
      "name": "supportsInterface",
      "outputs": [
        {
          "internalType": "bool",
          "name": "",
          "type": "bool"
        }
      ],
      "stateMutability": "view",
      "type": "function"
    },
    {
      "inputs": [],
      "name": "symbol",
      "outputs": [
        {
          "internalType": "string",
          "name": "",
          "type": "string"
        }
      ],
      "stateMutability": "view",
      "type": "function"
    },
    {
      "inputs": [
        {
          "internalType": "uint256",
          "name": "tokenId",
          "type": "uint256"
        }
      ],
      "name": "tokenURI",
      "outputs": [
        {
          "internalType": "string",
          "name": "",
          "type": "string"
        }
      ],
      "stateMutability": "view",
      "type": "function"
    },
    {
      "inputs": [
        {
          "internalType": "address",
          "name": "from",
          "type": "address"
        },
        {
          "internalType": "address",
          "name": "to",
          "type": "address"
        },
        {
          "internalType": "uint256",
          "name": "tokenId",
          "type": "uint256"
        }
      ],
      "name": "transferFrom",
      "outputs": [],
      "stateMutability": "nonpayable",
      "type": "function"
    },
    {
      "inputs": [
        {
          "internalType": "address",
          "name": "newOwner",
          "type": "address"
        }
      ],
      "name": "transferOwnership",
      "outputs": [],
      "stateMutability": "nonpayable",
      "type": "function"
    }
  ],
  "bytecode": "0x60806040523480156200001157600080fd5b506040518060400160405280600581526020017f4d794e46540000000000000000000000000000000000000000000000000000008152506040518060400160405280600481526020017f4d4e46540000000000000000000000000000000000000000000000000000000081525081600090816200008f91906200041a565b508060019081620000a191906200041a565b505050620000c4620000b8620000d260201b60201c565b620000da60201b60201c565b600160088190555062000501565b600033905090565b6000600760009054906101000a900473ffffffffffffffffffffffffffffffffffffffff16905081600760006101000a81548173ffffffffffffffffffffffffffffffffffffffff021916908373ffffffffffffffffffffffffffffffffffffffff1602179055508173ffffffffffffffffffffffffffffffffffffffff168173ffffffffffffffffffffffffffffffffffffffff167f8be0079c531659141344cd1fd0a4f28419497f9722a3daafe3b4186f6b6457e060405160405180910390a35050565b600081519050919050565b7f4e487b7100000000000000000000000000000000000000000000000000000000600052604160045260246000fd5b7f4e487b7100000000000000000000000000000000000000000000000000000000600052602260045260246000fd5b600060028204905060018216806200022257607f821691505b602082108103620002385762000237620001da565b5b50919050565b60008190508160005260206000209050919050565b60006020601f8301049050919050565b600082821b905092915050565b600060088302620002a27fffffffffffffffffffffffffffffffffffffffffffffffffffffffffffffffff8262000263565b620002ae868362000263565b95508019841693508086168417925050509392505050565b6000819050919050565b6000819050919050565b6000620002fb620002f5620002ef84620002c6565b620002d0565b620002c6565b9050919050565b6000819050919050565b6200031783620002da565b6200032f620003268262000302565b84845462000270565b825550505050565b600090565b6200034662000337565b620003538184846200030c565b505050565b5b818110156200037b576200036f6000826200033c565b60018101905062000359565b5050565b601f821115620003ca5762000394816200023e565b6200039f8462000253565b81016020851015620003af578190505b620003c7620003be8562000253565b83018262000358565b50505b505050565b600082821c905092915050565b6000620003ef60001984600802620003cf565b1980831691505092915050565b60006200040a8383620003dc565b9150826002028217905092915050565b6200042582620001a0565b67ffffffffffffffff811115620004415762000440620001ab565b5b6200044d825462000209565b6200045a8282856200037f565b600060209050601f8311600181146200049257600084156200047d578287015190505b620004898582620003fc565b865550620004f9565b601f198416620004a2866200023e565b60005b82811015620004cc57848901518255600182019150602085019450602081019050620004a5565b86831015620004ec5784890151620004e8601f891682620003dc565b8355505b6001600288020188555050505b505050505050565b6140be80620005116000396000f3fe6080604052600436106101095760003560e01c8063862ba2ca11610095578063a22cb46511610064578063a22cb4651461036e578063b88d4fde14610397578063c87b56dd146103c0578063e985e9c5146103fd578063f2fde38b1461043a57610109565b8063862ba2ca146102bf5780638da5cb5b146102db57806395d89b411461030657806397aba7f91461033157610109565b806323b872dd116100dc57806323b872dd146101dc57806342842e0e146102055780636352211e1461022e57806370a082311461026b578063715018a6146102a857610109565b806301ffc9a71461010e57806306fdde031461014b578063081812fc14610176578063095ea7b3146101b3575b600080fd5b34801561011a57600080fd5b5061013560048036038101906101309190612440565b610463565b6040516101429190612488565b60405180910390f35b34801561015757600080fd5b50610160610475565b60405161016d9190612533565b60405180910390f35b34801561018257600080fd5b5061019d6004803603810190610198919061258b565b610507565b6040516101aa91906125f9565b60405180910390f35b3480156101bf57600080fd5b506101da60048036038101906101d59190612640565b61058c565b005b3480156101e857600080fd5b5061020360048036038101906101fe9190612680565b6106a3565b005b34801561021157600080fd5b5061022c60048036038101906102279190612680565b610703565b005b34801561023a57600080fd5b506102556004803603810190610250919061258b565b610723565b60405161026291906125f9565b60405180910390f35b34801561027757600080fd5b50610292600480360381019061028d91906126d3565b6107d4565b60405161029f919061270f565b60405180910390f35b3480156102b457600080fd5b506102bd61088b565b005b6102d960048036038101906102d491906128b9565b610913565b005b3480156102e757600080fd5b506102f0610d43565b6040516102fd91906125f9565b60405180910390f35b34801561031257600080fd5b5061031b610d6d565b6040516103289190612533565b60405180910390f35b34801561033d57600080fd5b5061035860048036038101906103539190612944565b610dff565b60405161036591906125f9565b60405180910390f35b34801561037a57600080fd5b50610395600480360381019061039091906129cc565b610e3e565b005b3480156103a357600080fd5b506103be60048036038101906103b99190612a0c565b610e54565b005b3480156103cc57600080fd5b506103e760048036038101906103e2919061258b565b610eb6565b6040516103f49190612533565b60405180910390f35b34801561040957600080fd5b50610424600480360381019061041f9190612a8f565b611007565b6040516104319190612488565b60405180910390f35b34801561044657600080fd5b50610461600480360381019061045c91906126d3565b61109b565b005b600061046e82611192565b9050919050565b60606000805461048490612afe565b80601f01602080910402602001604051908101604052809291908181526020018280546104b090612afe565b80156104fd5780601f106104d2576101008083540402835291602001916104fd565b820191906000526020600020905b8154815290600101906020018083116104e057829003601f168201915b5050505050905090565b600061051282611274565b610551576040517f08c379a000000000000000000000000000000000000000000000000000000000815260040161054890612ba1565b60405180910390fd5b6004600083815260200190815260200160002060009054906101000a900473ffffffffffffffffffffffffffffffffffffffff169050919050565b600061059782610723565b90508073ffffffffffffffffffffffffffffffffffffffff168373ffffffffffffffffffffffffffffffffffffffff1603610607576040517f08c379a00000000000000000000000000000000000000000000000000000000081526004016105fe90612c33565b60405180910390fd5b8073ffffffffffffffffffffffffffffffffffffffff166106266112e0565b73ffffffffffffffffffffffffffffffffffffffff16148061065557506106548161064f6112e0565b611007565b5b610694576040517f08c379a000000000000000000000000000000000000000000000000000000000815260040161068b90612cc5565b60405180910390fd5b61069e83836112e8565b505050565b6106b46106ae6112e0565b826113a1565b6106f3576040517f08c379a00000000000000000000000000000000000000000000000000000000081526004016106ea90612d57565b60405180910390fd5b6106fe83838361147f565b505050565b61071e83838360405180602001604052806000815250610e54565b505050565b6000806002600084815260200190815260200160002060009054906101000a900473ffffffffffffffffffffffffffffffffffffffff169050600073ffffffffffffffffffffffffffffffffffffffff168173ffffffffffffffffffffffffffffffffffffffff16036107cb576040517f08c379a00000000000000000000000000000000000000000000000000000000081526004016107c290612de9565b60405180910390fd5b80915050919050565b60008073ffffffffffffffffffffffffffffffffffffffff168273ffffffffffffffffffffffffffffffffffffffff1603610844576040517f08c379a000000000000000000000000000000000000000000000000000000000815260040161083b90612e7b565b60405180910390fd5b600360008373ffffffffffffffffffffffffffffffffffffffff1673ffffffffffffffffffffffffffffffffffffffff168152602001908152602001600020549050919050565b6108936112e0565b73ffffffffffffffffffffffffffffffffffffffff166108b1610d43565b73ffffffffffffffffffffffffffffffffffffffff1614610907576040517f08c379a00000000000000000000000000000000000000000000000000000000081526004016108fe90612ee7565b60405180910390fd5b61091160006116e5565b565b600260085403610958576040517f08c379a000000000000000000000000000000000000000000000000000000000815260040161094f90612f53565b60405180910390fd5b6002600881905550610968610d43565b73ffffffffffffffffffffffffffffffffffffffff166109888383610dff565b73ffffffffffffffffffffffffffffffffffffffff16146109de576040517f08c379a00000000000000000000000000000000000000000000000000000000081526004016109d590612fbf565b60405180910390fd5b6109e88282610dff565b600a60006101000a81548173ffffffffffffffffffffffffffffffffffffffff021916908373ffffffffffffffffffffffffffffffffffffffff160217905550600b81604051610a389190613026565b908152602001604051809103902060009054906101000a900460ff1615610a94576040517f08c379a0000000000000000000000000000000000000000000000000000000008152600401610a8b90613089565b60405180910390fd5b3373ffffffffffffffffffffffffffffffffffffffff16600a60009054906101000a900473ffffffffffffffffffffffffffffffffffffffff1673ffffffffffffffffffffffffffffffffffffffff1603610b24576040517f08c379a0000000000000000000000000000000000000000000000000000000008152600401610b1b906130f5565b60405180910390fd5b82602001353414610b6a576040517f08c379a0000000000000000000000000000000000000000000000000000000008152600401610b6190613161565b60405180910390fd5b610b9a600a60009054906101000a900473ffffffffffffffffffffffffffffffffffffffff1684600001356117ab565b610bfa8360000135848060400190610bb29190613190565b8080601f016020809104026020016040519081016040528093929190818152602001838380828437600081840152601f19601f82011690508083019250505050505050611984565b610c2b600a60009054906101000a900473ffffffffffffffffffffffffffffffffffffffff1633856000013561147f565b600a60009054906101000a900473ffffffffffffffffffffffffffffffffffffffff1673ffffffffffffffffffffffffffffffffffffffff166108fc84602001359081150290604051600060405180830381858888f19350505050158015610c97573d6000803e3d6000fd5b506001600b82604051610caa9190613026565b908152602001604051809103902060006101000a81548160ff0219169083151502179055508260200135838060400190610ce49190613190565b604051610cf2929190613223565b604051809103902084600001357f704496b72f6d3fd6e462fa31e27faddedde127bc9942bc94320e0c115b00cedf33604051610d2e91906125f9565b60405180910390a46001600881905550505050565b6000600760009054906101000a900473ffffffffffffffffffffffffffffffffffffffff16905090565b606060018054610d7c90612afe565b80601f0160208091040260200160405190810160405280929190818152602001828054610da890612afe565b8015610df55780601f10610dca57610100808354040283529160200191610df5565b820191906000526020600020905b815481529060010190602001808311610dd857829003601f168201915b5050505050905090565b60008083604051602001610e1391906132a9565b604051602081830303815290604052805190602001209050610e3581846119f1565b91505092915050565b610e50610e496112e0565b8383611a18565b5050565b610e65610e5f6112e0565b836113a1565b610ea4576040517f08c379a0000000000000000000000000000000000000000000000000000000008152600401610e9b90612d57565b60405180910390fd5b610eb084848484611b84565b50505050565b6060610ec182611274565b610f00576040517f08c379a0000000000000000000000000000000000000000000000000000000008152600401610ef790613341565b60405180910390fd5b6000600660008481526020019081526020016000208054610f2090612afe565b80601f0160208091040260200160405190810160405280929190818152602001828054610f4c90612afe565b8015610f995780601f10610f6e57610100808354040283529160200191610f99565b820191906000526020600020905b815481529060010190602001808311610f7c57829003601f168201915b505050505090506000610faa611be0565b90506000815103610fbf578192505050611002565b600082511115610ff4578082604051602001610fdc929190613392565b60405160208183030381529060405292505050611002565b610ffd84611bf7565b925050505b919050565b6000600560008473ffffffffffffffffffffffffffffffffffffffff1673ffffffffffffffffffffffffffffffffffffffff16815260200190815260200160002060008373ffffffffffffffffffffffffffffffffffffffff1673ffffffffffffffffffffffffffffffffffffffff16815260200190815260200160002060009054906101000a900460ff16905092915050565b6110a36112e0565b73ffffffffffffffffffffffffffffffffffffffff166110c1610d43565b73ffffffffffffffffffffffffffffffffffffffff1614611117576040517f08c379a000000000000000000000000000000000000000000000000000000000815260040161110e90612ee7565b60405180910390fd5b600073ffffffffffffffffffffffffffffffffffffffff168173ffffffffffffffffffffffffffffffffffffffff1603611186576040517f08c379a000000000000000000000000000000000000000000000000000000000815260040161117d90613428565b60405180910390fd5b61118f816116e5565b50565b60007f80ac58cd000000000000000000000000000000000000000000000000000000007bffffffffffffffffffffffffffffffffffffffffffffffffffffffff1916827bffffffffffffffffffffffffffffffffffffffffffffffffffffffff1916148061125d57507f5b5e139f000000000000000000000000000000000000000000000000000000007bffffffffffffffffffffffffffffffffffffffffffffffffffffffff1916827bffffffffffffffffffffffffffffffffffffffffffffffffffffffff1916145b8061126d575061126c82611c9e565b5b9050919050565b60008073ffffffffffffffffffffffffffffffffffffffff166002600084815260200190815260200160002060009054906101000a900473ffffffffffffffffffffffffffffffffffffffff1673ffffffffffffffffffffffffffffffffffffffff1614159050919050565b600033905090565b816004600083815260200190815260200160002060006101000a81548173ffffffffffffffffffffffffffffffffffffffff021916908373ffffffffffffffffffffffffffffffffffffffff160217905550808273ffffffffffffffffffffffffffffffffffffffff1661135b83610723565b73ffffffffffffffffffffffffffffffffffffffff167f8c5be1e5ebec7d5bd14f71427d1e84f3dd0314c0f7b2291e5b200ac8c7c3b92560405160405180910390a45050565b60006113ac82611274565b6113eb576040517f08c379a00000000000000000000000000000000000000000000000000000000081526004016113e2906134ba565b60405180910390fd5b60006113f683610723565b90508073ffffffffffffffffffffffffffffffffffffffff168473ffffffffffffffffffffffffffffffffffffffff16148061143857506114378185611007565b5b8061147657508373ffffffffffffffffffffffffffffffffffffffff1661145e84610507565b73ffffffffffffffffffffffffffffffffffffffff16145b91505092915050565b8273ffffffffffffffffffffffffffffffffffffffff1661149f82610723565b73ffffffffffffffffffffffffffffffffffffffff16146114f5576040517f08c379a00000000000000000000000000000000000000000000000000000000081526004016114ec9061354c565b60405180910390fd5b600073ffffffffffffffffffffffffffffffffffffffff168273ffffffffffffffffffffffffffffffffffffffff1603611564576040517f08c379a000000000000000000000000000000000000000000000000000000000815260040161155b906135de565b60405180910390fd5b61156f838383611d08565b61157a6000826112e8565b6001600360008573ffffffffffffffffffffffffffffffffffffffff1673ffffffffffffffffffffffffffffffffffffffff16815260200190815260200160002060008282546115ca919061362d565b925050819055506001600360008473ffffffffffffffffffffffffffffffffffffffff1673ffffffffffffffffffffffffffffffffffffffff16815260200190815260200160002060008282546116219190613661565b92505081905550816002600083815260200190815260200160002060006101000a81548173ffffffffffffffffffffffffffffffffffffffff021916908373ffffffffffffffffffffffffffffffffffffffff160217905550808273ffffffffffffffffffffffffffffffffffffffff168473ffffffffffffffffffffffffffffffffffffffff167fddf252ad1be2c89b69c2b068fc378daa952ba7f163c4a11628f55a4df523b3ef60405160405180910390a46116e0838383611d0d565b505050565b6000600760009054906101000a900473ffffffffffffffffffffffffffffffffffffffff16905081600760006101000a81548173ffffffffffffffffffffffffffffffffffffffff021916908373ffffffffffffffffffffffffffffffffffffffff1602179055508173ffffffffffffffffffffffffffffffffffffffff168173ffffffffffffffffffffffffffffffffffffffff167f8be0079c531659141344cd1fd0a4f28419497f9722a3daafe3b4186f6b6457e060405160405180910390a35050565b600073ffffffffffffffffffffffffffffffffffffffff168273ffffffffffffffffffffffffffffffffffffffff160361181a576040517f08c379a0000000000000000000000000000000000000000000000000000000008152600401611811906136e1565b60405180910390fd5b61182381611274565b15611863576040517f08c379a000000000000000000000000000000000000000000000000000000000815260040161185a9061374d565b60405180910390fd5b61186f60008383611d08565b6001600360008473ffffffffffffffffffffffffffffffffffffffff1673ffffffffffffffffffffffffffffffffffffffff16815260200190815260200160002060008282546118bf9190613661565b92505081905550816002600083815260200190815260200160002060006101000a81548173ffffffffffffffffffffffffffffffffffffffff021916908373ffffffffffffffffffffffffffffffffffffffff160217905550808273ffffffffffffffffffffffffffffffffffffffff16600073ffffffffffffffffffffffffffffffffffffffff167fddf252ad1be2c89b69c2b068fc378daa952ba7f163c4a11628f55a4df523b3ef60405160405180910390a461198060008383611d0d565b5050565b61198d82611274565b6119cc576040517f08c379a00000000000000000000000000000000000000000000000000000000081526004016119c3906137df565b60405180910390fd5b806006600084815260200190815260200160002090816119ec91906139ab565b505050565b6000806000611a008585611d12565b91509150611a0d81611d93565b819250505092915050565b8173ffffffffffffffffffffffffffffffffffffffff168373ffffffffffffffffffffffffffffffffffffffff1603611a86576040517f08c379a0000000000000000000000000000000000000000000000000000000008152600401611a7d90613ac9565b60405180910390fd5b80600560008573ffffffffffffffffffffffffffffffffffffffff1673ffffffffffffffffffffffffffffffffffffffff16815260200190815260200160002060008473ffffffffffffffffffffffffffffffffffffffff1673ffffffffffffffffffffffffffffffffffffffff16815260200190815260200160002060006101000a81548160ff0219169083151502179055508173ffffffffffffffffffffffffffffffffffffffff168373ffffffffffffffffffffffffffffffffffffffff167f17307eab39ab6107e8899845ad3d59bd9653f200f220920489ca2b5937696c3183604051611b779190612488565b60405180910390a3505050565b611b8f84848461147f565b611b9b84848484611f5f565b611bda576040517f08c379a0000000000000000000000000000000000000000000000000000000008152600401611bd190613b5b565b60405180910390fd5b50505050565b606060405180602001604052806000815250905090565b6060611c0282611274565b611c41576040517f08c379a0000000000000000000000000000000000000000000000000000000008152600401611c3890613bed565b60405180910390fd5b6000611c4b611be0565b90506000815111611c6b5760405180602001604052806000815250611c96565b80611c75846120e6565b604051602001611c86929190613392565b6040516020818303038152906040525b915050919050565b60007f01ffc9a7000000000000000000000000000000000000000000000000000000007bffffffffffffffffffffffffffffffffffffffffffffffffffffffff1916827bffffffffffffffffffffffffffffffffffffffffffffffffffffffff1916149050919050565b505050565b505050565b6000806041835103611d535760008060006020860151925060408601519150606086015160001a9050611d4787828585612246565b94509450505050611d8c565b6040835103611d83576000806020850151915060408501519050611d78868383612352565b935093505050611d8c565b60006002915091505b9250929050565b60006004811115611da757611da6613c0d565b5b816004811115611dba57611db9613c0d565b5b0315611f5c5760016004811115611dd457611dd3613c0d565b5b816004811115611de757611de6613c0d565b5b03611e27576040517f08c379a0000000000000000000000000000000000000000000000000000000008152600401611e1e90613c88565b60405180910390fd5b60026004811115611e3b57611e3a613c0d565b5b816004811115611e4e57611e4d613c0d565b5b03611e8e576040517f08c379a0000000000000000000000000000000000000000000000000000000008152600401611e8590613cf4565b60405180910390fd5b60036004811115611ea257611ea1613c0d565b5b816004811115611eb557611eb4613c0d565b5b03611ef5576040517f08c379a0000000000000000000000000000000000000000000000000000000008152600401611eec90613d86565b60405180910390fd5b600480811115611f0857611f07613c0d565b5b816004811115611f1b57611f1a613c0d565b5b03611f5b576040517f08c379a0000000000000000000000000000000000000000000000000000000008152600401611f5290613e18565b60405180910390fd5b5b50565b6000611f808473ffffffffffffffffffffffffffffffffffffffff166123b1565b156120d9578373ffffffffffffffffffffffffffffffffffffffff1663150b7a02611fa96112e0565b8786866040518563ffffffff1660e01b8152600401611fcb9493929190613e82565b6020604051808303816000875af192505050801561200757506040513d601f19601f820116820180604052508101906120049190613ee3565b60015b612089573d8060008114612037576040519150601f19603f3d011682016040523d82523d6000602084013e61203c565b606091505b506000815103612081576040517f08c379a000000000000000000000000000000000000000000000000000000000815260040161207890613b5b565b60405180910390fd5b805181602001fd5b63150b7a0260e01b7bffffffffffffffffffffffffffffffffffffffffffffffffffffffff1916817bffffffffffffffffffffffffffffffffffffffffffffffffffffffff1916149150506120de565b600190505b949350505050565b60606000820361212d576040518060400160405280600181526020017f30000000000000000000000000000000000000000000000000000000000000008152509050612241565b600082905060005b6000821461215f57808061214890613f10565b915050600a826121589190613f87565b9150612135565b60008167ffffffffffffffff81111561217b5761217a61278e565b5b6040519080825280601f01601f1916602001820160405280156121ad5781602001600182028036833780820191505090505b5090505b6000851461223a576001826121c6919061362d565b9150600a856121d59190613fb8565b60306121e19190613661565b60f81b8183815181106121f7576121f6613fe9565b5b60200101907effffffffffffffffffffffffffffffffffffffffffffffffffffffffffffff1916908160001a905350600a856122339190613f87565b94506121b1565b8093505050505b919050565b6000807f7fffffffffffffffffffffffffffffff5d576e7357a4501ddfe92f46681b20a08360001c1115612281576000600391509150612349565b601b8560ff16141580156122995750601c8560ff1614155b156122ab576000600491509150612349565b6000600187878787604051600081526020016040526040516122d09493929190614043565b6020604051602081039080840390855afa1580156122f2573d6000803e3d6000fd5b505050602060405103519050600073ffffffffffffffffffffffffffffffffffffffff168173ffffffffffffffffffffffffffffffffffffffff160361234057600060019250925050612349565b80600092509250505b94509492505050565b60008060007f7fffffffffffffffffffffffffffffffffffffffffffffffffffffffffffffff60001b841690506000601b60ff8660001c901c6123959190613661565b90506123a387828885612246565b935093505050935093915050565b6000808273ffffffffffffffffffffffffffffffffffffffff163b119050919050565b6000604051905090565b600080fd5b600080fd5b60007fffffffff0000000000000000000000000000000000000000000000000000000082169050919050565b61241d816123e8565b811461242857600080fd5b50565b60008135905061243a81612414565b92915050565b600060208284031215612456576124556123de565b5b60006124648482850161242b565b91505092915050565b60008115159050919050565b6124828161246d565b82525050565b600060208201905061249d6000830184612479565b92915050565b600081519050919050565b600082825260208201905092915050565b60005b838110156124dd5780820151818401526020810190506124c2565b60008484015250505050565b6000601f19601f8301169050919050565b6000612505826124a3565b61250f81856124ae565b935061251f8185602086016124bf565b612528816124e9565b840191505092915050565b6000602082019050818103600083015261254d81846124fa565b905092915050565b6000819050919050565b61256881612555565b811461257357600080fd5b50565b6000813590506125858161255f565b92915050565b6000602082840312156125a1576125a06123de565b5b60006125af84828501612576565b91505092915050565b600073ffffffffffffffffffffffffffffffffffffffff82169050919050565b60006125e3826125b8565b9050919050565b6125f3816125d8565b82525050565b600060208201905061260e60008301846125ea565b92915050565b61261d816125d8565b811461262857600080fd5b50565b60008135905061263a81612614565b92915050565b60008060408385031215612657576126566123de565b5b60006126658582860161262b565b925050602061267685828601612576565b9150509250929050565b600080600060608486031215612699576126986123de565b5b60006126a78682870161262b565b93505060206126b88682870161262b565b92505060406126c986828701612576565b9150509250925092565b6000602082840312156126e9576126e86123de565b5b60006126f78482850161262b565b91505092915050565b61270981612555565b82525050565b60006020820190506127246000830184612700565b92915050565b600080fd5b6000606082840312156127455761274461272a565b5b81905092915050565b6000819050919050565b6127618161274e565b811461276c57600080fd5b50565b60008135905061277e81612758565b92915050565b600080fd5b600080fd5b7f4e487b7100000000000000000000000000000000000000000000000000000000600052604160045260246000fd5b6127c6826124e9565b810181811067ffffffffffffffff821117156127e5576127e461278e565b5b80604052505050565b60006127f86123d4565b905061280482826127bd565b919050565b600067ffffffffffffffff8211156128245761282361278e565b5b61282d826124e9565b9050602081019050919050565b82818337600083830152505050565b600061285c61285784612809565b6127ee565b90508281526020810184848401111561287857612877612789565b5b61288384828561283a565b509392505050565b600082601f8301126128a05761289f612784565b5b81356128b0848260208601612849565b91505092915050565b6000806000606084860312156128d2576128d16123de565b5b600084013567ffffffffffffffff8111156128f0576128ef6123e3565b5b6128fc8682870161272f565b935050602061290d8682870161276f565b925050604084013567ffffffffffffffff81111561292e5761292d6123e3565b5b61293a8682870161288b565b9150509250925092565b6000806040838503121561295b5761295a6123de565b5b60006129698582860161276f565b925050602083013567ffffffffffffffff81111561298a576129896123e3565b5b6129968582860161288b565b9150509250929050565b6129a98161246d565b81146129b457600080fd5b50565b6000813590506129c6816129a0565b92915050565b600080604083850312156129e3576129e26123de565b5b60006129f18582860161262b565b9250506020612a02858286016129b7565b9150509250929050565b60008060008060808587031215612a2657612a256123de565b5b6000612a348782880161262b565b9450506020612a458782880161262b565b9350506040612a5687828801612576565b925050606085013567ffffffffffffffff811115612a7757612a766123e3565b5b612a838782880161288b565b91505092959194509250565b60008060408385031215612aa657612aa56123de565b5b6000612ab48582860161262b565b9250506020612ac58582860161262b565b9150509250929050565b7f4e487b7100000000000000000000000000000000000000000000000000000000600052602260045260246000fd5b60006002820490506001821680612b1657607f821691505b602082108103612b2957612b28612acf565b5b50919050565b7f4552433732313a20617070726f76656420717565727920666f72206e6f6e657860008201527f697374656e7420746f6b656e0000000000000000000000000000000000000000602082015250565b6000612b8b602c836124ae565b9150612b9682612b2f565b604082019050919050565b60006020820190508181036000830152612bba81612b7e565b9050919050565b7f4552433732313a20617070726f76616c20746f2063757272656e74206f776e6560008201527f7200000000000000000000000000000000000000000000000000000000000000602082015250565b6000612c1d6021836124ae565b9150612c2882612bc1565b604082019050919050565b60006020820190508181036000830152612c4c81612c10565b9050919050565b7f4552433732313a20617070726f76652063616c6c6572206973206e6f74206f7760008201527f6e6572206e6f7220617070726f76656420666f7220616c6c0000000000000000602082015250565b6000612caf6038836124ae565b9150612cba82612c53565b604082019050919050565b60006020820190508181036000830152612cde81612ca2565b9050919050565b7f4552433732313a207472616e736665722063616c6c6572206973206e6f74206f60008201527f776e6572206e6f7220617070726f766564000000000000000000000000000000602082015250565b6000612d416031836124ae565b9150612d4c82612ce5565b604082019050919050565b60006020820190508181036000830152612d7081612d34565b9050919050565b7f4552433732313a206f776e657220717565727920666f72206e6f6e657869737460008201527f656e7420746f6b656e0000000000000000000000000000000000000000000000602082015250565b6000612dd36029836124ae565b9150612dde82612d77565b604082019050919050565b60006020820190508181036000830152612e0281612dc6565b9050919050565b7f4552433732313a2062616c616e636520717565727920666f7220746865207a6560008201527f726f206164647265737300000000000000000000000000000000000000000000602082015250565b6000612e65602a836124ae565b9150612e7082612e09565b604082019050919050565b60006020820190508181036000830152612e9481612e58565b9050919050565b7f4f776e61626c653a2063616c6c6572206973206e6f7420746865206f776e6572600082015250565b6000612ed16020836124ae565b9150612edc82612e9b565b602082019050919050565b60006020820190508181036000830152612f0081612ec4565b9050919050565b7f5265656e7472616e637947756172643a207265656e7472616e742063616c6c00600082015250565b6000612f3d601f836124ae565b9150612f4882612f07565b602082019050919050565b60006020820190508181036000830152612f6c81612f30565b9050919050565b7f41646472657373206973206e6f7420617574686f72697a656400000000000000600082015250565b6000612fa96019836124ae565b9150612fb482612f73565b602082019050919050565b60006020820190508181036000830152612fd881612f9c565b9050919050565b600081519050919050565b600081905092915050565b600061300082612fdf565b61300a8185612fea565b935061301a8185602086016124bf565b80840191505092915050565b60006130328284612ff5565b915081905092915050565b7f416c7265616479207369676e6174757265207573656400000000000000000000600082015250565b60006130736016836124ae565b915061307e8261303d565b602082019050919050565b600060208201905081810360008301526130a281613066565b9050919050565b7f596f752063616e6e6f742062757920796f7572206f776e204e46540000000000600082015250565b60006130df601b836124ae565b91506130ea826130a9565b602082019050919050565b6000602082019050818103600083015261310e816130d2565b9050919050565b7f496e73756666696369656e742046756e64732121000000000000000000000000600082015250565b600061314b6014836124ae565b915061315682613115565b602082019050919050565b6000602082019050818103600083015261317a8161313e565b9050919050565b600080fd5b600080fd5b600080fd5b600080833560016020038436030381126131ad576131ac613181565b5b80840192508235915067ffffffffffffffff8211156131cf576131ce613186565b5b6020830192506001820236038313156131eb576131ea61318b565b5b509250929050565b600081905092915050565b600061320a83856131f3565b935061321783858461283a565b82840190509392505050565b60006132308284866131fe565b91508190509392505050565b7f19457468657265756d205369676e6564204d6573736167653a0a333200000000600082015250565b6000613272601c836131f3565b915061327d8261323c565b601c82019050919050565b6000819050919050565b6132a361329e8261274e565b613288565b82525050565b60006132b482613265565b91506132c08284613292565b60208201915081905092915050565b7f45524337323155524953746f726167653a2055524920717565727920666f722060008201527f6e6f6e6578697374656e7420746f6b656e000000000000000000000000000000602082015250565b600061332b6031836124ae565b9150613336826132cf565b604082019050919050565b6000602082019050818103600083015261335a8161331e565b9050919050565b600061336c826124a3565b61337681856131f3565b93506133868185602086016124bf565b80840191505092915050565b600061339e8285613361565b91506133aa8284613361565b91508190509392505050565b7f4f776e61626c653a206e6577206f776e657220697320746865207a65726f206160008201527f6464726573730000000000000000000000000000000000000000000000000000602082015250565b60006134126026836124ae565b915061341d826133b6565b604082019050919050565b6000602082019050818103600083015261344181613405565b9050919050565b7f4552433732313a206f70657261746f7220717565727920666f72206e6f6e657860008201527f697374656e7420746f6b656e0000000000000000000000000000000000000000602082015250565b60006134a4602c836124ae565b91506134af82613448565b604082019050919050565b600060208201905081810360008301526134d381613497565b9050919050565b7f4552433732313a207472616e736665722066726f6d20696e636f72726563742060008201527f6f776e6572000000000000000000000000000000000000000000000000000000602082015250565b60006135366025836124ae565b9150613541826134da565b604082019050919050565b6000602082019050818103600083015261356581613529565b9050919050565b7f4552433732313a207472616e7366657220746f20746865207a65726f2061646460008201527f7265737300000000000000000000000000000000000000000000000000000000602082015250565b60006135c86024836124ae565b91506135d38261356c565b604082019050919050565b600060208201905081810360008301526135f7816135bb565b9050919050565b7f4e487b7100000000000000000000000000000000000000000000000000000000600052601160045260246000fd5b600061363882612555565b915061364383612555565b925082820390508181111561365b5761365a6135fe565b5b92915050565b600061366c82612555565b915061367783612555565b925082820190508082111561368f5761368e6135fe565b5b92915050565b7f4552433732313a206d696e7420746f20746865207a65726f2061646472657373600082015250565b60006136cb6020836124ae565b91506136d682613695565b602082019050919050565b600060208201905081810360008301526136fa816136be565b9050919050565b7f4552433732313a20746f6b656e20616c7265616479206d696e74656400000000600082015250565b6000613737601c836124ae565b915061374282613701565b602082019050919050565b600060208201905081810360008301526137668161372a565b9050919050565b7f45524337323155524953746f726167653a2055524920736574206f66206e6f6e60008201527f6578697374656e7420746f6b656e000000000000000000000000000000000000602082015250565b60006137c9602e836124ae565b91506137d48261376d565b604082019050919050565b600060208201905081810360008301526137f8816137bc565b9050919050565b60008190508160005260206000209050919050565b60006020601f8301049050919050565b600082821b905092915050565b6000600883026138617fffffffffffffffffffffffffffffffffffffffffffffffffffffffffffffffff82613824565b61386b8683613824565b95508019841693508086168417925050509392505050565b6000819050919050565b60006138a86138a361389e84612555565b613883565b612555565b9050919050565b6000819050919050565b6138c28361388d565b6138d66138ce826138af565b848454613831565b825550505050565b600090565b6138eb6138de565b6138f68184846138b9565b505050565b5b8181101561391a5761390f6000826138e3565b6001810190506138fc565b5050565b601f82111561395f57613930816137ff565b61393984613814565b81016020851015613948578190505b61395c61395485613814565b8301826138fb565b50505b505050565b600082821c905092915050565b600061398260001984600802613964565b1980831691505092915050565b600061399b8383613971565b9150826002028217905092915050565b6139b4826124a3565b67ffffffffffffffff8111156139cd576139cc61278e565b5b6139d78254612afe565b6139e282828561391e565b600060209050601f831160018114613a155760008415613a03578287015190505b613a0d858261398f565b865550613a75565b601f198416613a23866137ff565b60005b82811015613a4b57848901518255600182019150602085019450602081019050613a26565b86831015613a685784890151613a64601f891682613971565b8355505b6001600288020188555050505b505050505050565b7f4552433732313a20617070726f766520746f2063616c6c657200000000000000600082015250565b6000613ab36019836124ae565b9150613abe82613a7d565b602082019050919050565b60006020820190508181036000830152613ae281613aa6565b9050919050565b7f4552433732313a207472616e7366657220746f206e6f6e20455243373231526560008201527f63656976657220696d706c656d656e7465720000000000000000000000000000602082015250565b6000613b456032836124ae565b9150613b5082613ae9565b604082019050919050565b60006020820190508181036000830152613b7481613b38565b9050919050565b7f4552433732314d657461646174613a2055524920717565727920666f72206e6f60008201527f6e6578697374656e7420746f6b656e0000000000000000000000000000000000602082015250565b6000613bd7602f836124ae565b9150613be282613b7b565b604082019050919050565b60006020820190508181036000830152613c0681613bca565b9050919050565b7f4e487b7100000000000000000000000000000000000000000000000000000000600052602160045260246000fd5b7f45434453413a20696e76616c6964207369676e61747572650000000000000000600082015250565b6000613c726018836124ae565b9150613c7d82613c3c565b602082019050919050565b60006020820190508181036000830152613ca181613c65565b9050919050565b7f45434453413a20696e76616c6964207369676e6174757265206c656e67746800600082015250565b6000613cde601f836124ae565b9150613ce982613ca8565b602082019050919050565b60006020820190508181036000830152613d0d81613cd1565b9050919050565b7f45434453413a20696e76616c6964207369676e6174757265202773272076616c60008201527f7565000000000000000000000000000000000000000000000000000000000000602082015250565b6000613d706022836124ae565b9150613d7b82613d14565b604082019050919050565b60006020820190508181036000830152613d9f81613d63565b9050919050565b7f45434453413a20696e76616c6964207369676e6174757265202776272076616c60008201527f7565000000000000000000000000000000000000000000000000000000000000602082015250565b6000613e026022836124ae565b9150613e0d82613da6565b604082019050919050565b60006020820190508181036000830152613e3181613df5565b9050919050565b600082825260208201905092915050565b6000613e5482612fdf565b613e5e8185613e38565b9350613e6e8185602086016124bf565b613e77816124e9565b840191505092915050565b6000608082019050613e9760008301876125ea565b613ea460208301866125ea565b613eb16040830185612700565b8181036060830152613ec38184613e49565b905095945050505050565b600081519050613edd81612414565b92915050565b600060208284031215613ef957613ef86123de565b5b6000613f0784828501613ece565b91505092915050565b6000613f1b82612555565b91507fffffffffffffffffffffffffffffffffffffffffffffffffffffffffffffffff8203613f4d57613f4c6135fe565b5b600182019050919050565b7f4e487b7100000000000000000000000000000000000000000000000000000000600052601260045260246000fd5b6000613f9282612555565b9150613f9d83612555565b925082613fad57613fac613f58565b5b828204905092915050565b6000613fc382612555565b9150613fce83612555565b925082613fde57613fdd613f58565b5b828206905092915050565b7f4e487b7100000000000000000000000000000000000000000000000000000000600052603260045260246000fd5b6140218161274e565b82525050565b600060ff82169050919050565b61403d81614027565b82525050565b60006080820190506140586000830187614018565b6140656020830186614034565b6140726040830185614018565b61407f6060830184614018565b9594505050505056fea2646970667358221220f61094f6f8fdc79eb333c03b29135d308bbc5dcfb8664342d199498ea025fd9064736f6c63430008110033",
  "linkReferences": {},
  "deployedLinkReferences": {}
}