{
  "_format": "hh-sol-artifact-1",
  "contractName": "LazyMinting",
  "sourceName": "contracts/LazyMinting.sol",
  "abi": [
    {
      "inputs": [],
      "stateMutability": "nonpayable",
      "type": "constructor"
    },
    {
      "anonymous": false,
      "inputs": [
        {
          "indexed": true,
          "internalType": "address",
          "name": "owner",
          "type": "address"
        },
        {
          "indexed": true,
          "internalType": "address",
          "name": "approved",
          "type": "address"
        },
        {
          "indexed": true,
          "internalType": "uint256",
          "name": "tokenId",
          "type": "uint256"
        }
      ],
      "name": "Approval",
      "type": "event"
    },
    {
      "anonymous": false,
      "inputs": [
        {
          "indexed": true,
          "internalType": "address",
          "name": "owner",
          "type": "address"
        },
        {
          "indexed": true,
          "internalType": "address",
          "name": "operator",
          "type": "address"
        },
        {
          "indexed": false,
          "internalType": "bool",
          "name": "approved",
          "type": "bool"
        }
      ],
      "name": "ApprovalForAll",
      "type": "event"
    },
    {
      "anonymous": false,
      "inputs": [
        {
          "indexed": true,
          "internalType": "uint256",
          "name": "tokenId",
          "type": "uint256"
        },
        {
          "indexed": true,
          "internalType": "string",
          "name": "tokenURI",
          "type": "string"
        },
        {
          "indexed": true,
          "internalType": "uint256",
          "name": "price",
          "type": "uint256"
        }
      ],
      "name": "Mint",
      "type": "event"
    },
    {
      "anonymous": false,
      "inputs": [
        {
          "indexed": true,
          "internalType": "uint256",
          "name": "_tokenId",
          "type": "uint256"
        },
        {
          "indexed": false,
          "internalType": "address",
          "name": "_bidder",
          "type": "address"
        },
        {
          "indexed": true,
          "internalType": "uint256",
          "name": "_bidAmount",
          "type": "uint256"
        },
        {
          "indexed": false,
          "internalType": "uint256",
          "name": "_startTime",
          "type": "uint256"
        },
        {
          "indexed": false,
          "internalType": "uint256",
          "name": "_endTime",
          "type": "uint256"
        }
      ],
      "name": "NftBidded",
      "type": "event"
    },
    {
      "anonymous": false,
      "inputs": [
        {
          "indexed": true,
          "internalType": "address",
          "name": "previousOwner",
          "type": "address"
        },
        {
          "indexed": true,
          "internalType": "address",
          "name": "newOwner",
          "type": "address"
        }
      ],
      "name": "OwnershipTransferred",
      "type": "event"
    },
    {
      "anonymous": false,
      "inputs": [
        {
          "indexed": true,
          "internalType": "address",
          "name": "from",
          "type": "address"
        },
        {
          "indexed": true,
          "internalType": "address",
          "name": "to",
          "type": "address"
        },
        {
          "indexed": true,
          "internalType": "uint256",
          "name": "tokenId",
          "type": "uint256"
        }
      ],
      "name": "Transfer",
      "type": "event"
    },
    {
      "inputs": [
        {
          "internalType": "address",
          "name": "to",
          "type": "address"
        },
        {
          "internalType": "uint256",
          "name": "tokenId",
          "type": "uint256"
        }
      ],
      "name": "approve",
      "outputs": [],
      "stateMutability": "nonpayable",
      "type": "function"
    },
    {
      "inputs": [
        {
          "internalType": "address",
          "name": "owner",
          "type": "address"
        }
      ],
      "name": "balanceOf",
      "outputs": [
        {
          "internalType": "uint256",
          "name": "",
          "type": "uint256"
        }
      ],
      "stateMutability": "view",
      "type": "function"
    },
    {
      "inputs": [
        {
          "internalType": "uint256",
          "name": "_tokenId",
          "type": "uint256"
        },
        {
          "internalType": "uint256",
          "name": "_startTime",
          "type": "uint256"
        },
        {
          "internalType": "uint256",
          "name": "_endTime",
          "type": "uint256"
        },
        {
          "internalType": "bytes32",
          "name": "hash",
          "type": "bytes32"
        },
        {
          "internalType": "bytes",
          "name": "signature",
          "type": "bytes"
        }
      ],
      "name": "bidNFT",
      "outputs": [],
      "stateMutability": "payable",
      "type": "function"
    },
    {
      "inputs": [
        {
          "internalType": "uint256",
          "name": "_tokenId",
          "type": "uint256"
        },
        {
          "internalType": "bytes32",
          "name": "hash",
          "type": "bytes32"
        },
        {
          "internalType": "bytes",
          "name": "signature",
          "type": "bytes"
        }
      ],
      "name": "endAuction",
      "outputs": [],
      "stateMutability": "nonpayable",
      "type": "function"
    },
    {
      "inputs": [
        {
          "internalType": "uint256",
          "name": "tokenId",
          "type": "uint256"
        }
      ],
      "name": "getApproved",
      "outputs": [
        {
          "internalType": "address",
          "name": "",
          "type": "address"
        }
      ],
      "stateMutability": "view",
      "type": "function"
    },
    {
      "inputs": [
        {
          "internalType": "uint256",
          "name": "_tokenId",
          "type": "uint256"
        }
      ],
      "name": "getAuctionInfo",
      "outputs": [
        {
          "components": [
            {
              "internalType": "uint256",
              "name": "tokenId",
              "type": "uint256"
            },
            {
              "internalType": "uint256",
              "name": "basePrice",
              "type": "uint256"
            },
            {
              "internalType": "string",
              "name": "tokenURI",
              "type": "string"
            },
            {
              "internalType": "bool",
              "name": "isAuctionEnded",
              "type": "bool"
            },
            {
              "internalType": "uint256",
              "name": "startTime",
              "type": "uint256"
            },
            {
              "internalType": "uint256",
              "name": "endTime",
              "type": "uint256"
            },
            {
              "internalType": "address",
              "name": "highestBidder",
              "type": "address"
            },
            {
              "internalType": "uint256",
              "name": "highestBid",
              "type": "uint256"
            }
          ],
          "internalType": "struct LazyMinting.AuctionNFT",
          "name": "",
          "type": "tuple"
        }
      ],
      "stateMutability": "view",
      "type": "function"
    },
    {
      "inputs": [
        {
          "internalType": "address",
          "name": "owner",
          "type": "address"
        },
        {
          "internalType": "address",
          "name": "operator",
          "type": "address"
        }
      ],
      "name": "isApprovedForAll",
      "outputs": [
        {
          "internalType": "bool",
          "name": "",
          "type": "bool"
        }
      ],
      "stateMutability": "view",
      "type": "function"
    },
    {
      "inputs": [],
      "name": "name",
      "outputs": [
        {
          "internalType": "string",
          "name": "",
          "type": "string"
        }
      ],
      "stateMutability": "view",
      "type": "function"
    },
    {
      "inputs": [],
      "name": "owner",
      "outputs": [
        {
          "internalType": "address",
          "name": "",
          "type": "address"
        }
      ],
      "stateMutability": "view",
      "type": "function"
    },
    {
      "inputs": [
        {
          "internalType": "uint256",
          "name": "tokenId",
          "type": "uint256"
        }
      ],
      "name": "ownerOf",
      "outputs": [
        {
          "internalType": "address",
          "name": "",
          "type": "address"
        }
      ],
      "stateMutability": "view",
      "type": "function"
    },
    {
      "inputs": [
        {
          "internalType": "bytes32",
          "name": "hash",
          "type": "bytes32"
        },
        {
          "internalType": "bytes",
          "name": "signature",
          "type": "bytes"
        }
      ],
      "name": "recoverSigner",
      "outputs": [
        {
          "internalType": "address",
          "name": "",
          "type": "address"
        }
      ],
      "stateMutability": "pure",
      "type": "function"
    },
    {
      "inputs": [
        {
          "components": [
            {
              "internalType": "uint256",
              "name": "tokenId",
              "type": "uint256"
            },
            {
              "internalType": "uint256",
              "name": "price",
              "type": "uint256"
            },
            {
              "internalType": "string",
              "name": "tokenURI",
              "type": "string"
            }
          ],
          "internalType": "struct LazyMinting.NFTVoucher",
          "name": "voucher",
          "type": "tuple"
        },
        {
          "internalType": "bytes32",
          "name": "hash",
          "type": "bytes32"
        },
        {
          "internalType": "bytes",
          "name": "signature",
          "type": "bytes"
        }
      ],
      "name": "redeem",
      "outputs": [],
      "stateMutability": "payable",
      "type": "function"
    },
    {
      "inputs": [],
      "name": "renounceOwnership",
      "outputs": [],
      "stateMutability": "nonpayable",
      "type": "function"
    },
    {
      "inputs": [
        {
          "internalType": "address",
          "name": "from",
          "type": "address"
        },
        {
          "internalType": "address",
          "name": "to",
          "type": "address"
        },
        {
          "internalType": "uint256",
          "name": "tokenId",
          "type": "uint256"
        }
      ],
      "name": "safeTransferFrom",
      "outputs": [],
      "stateMutability": "nonpayable",
      "type": "function"
    },
    {
      "inputs": [
        {
          "internalType": "address",
          "name": "from",
          "type": "address"
        },
        {
          "internalType": "address",
          "name": "to",
          "type": "address"
        },
        {
          "internalType": "uint256",
          "name": "tokenId",
          "type": "uint256"
        },
        {
          "internalType": "bytes",
          "name": "_data",
          "type": "bytes"
        }
      ],
      "name": "safeTransferFrom",
      "outputs": [],
      "stateMutability": "nonpayable",
      "type": "function"
    },
    {
      "inputs": [
        {
          "internalType": "address",
          "name": "operator",
          "type": "address"
        },
        {
          "internalType": "bool",
          "name": "approved",
          "type": "bool"
        }
      ],
      "name": "setApprovalForAll",
      "outputs": [],
      "stateMutability": "nonpayable",
      "type": "function"
    },
    {
      "inputs": [
        {
          "internalType": "bytes4",
          "name": "interfaceId",
          "type": "bytes4"
        }
      ],
      "name": "supportsInterface",
      "outputs": [
        {
          "internalType": "bool",
          "name": "",
          "type": "bool"
        }
      ],
      "stateMutability": "view",
      "type": "function"
    },
    {
      "inputs": [],
      "name": "symbol",
      "outputs": [
        {
          "internalType": "string",
          "name": "",
          "type": "string"
        }
      ],
      "stateMutability": "view",
      "type": "function"
    },
    {
      "inputs": [
        {
          "internalType": "uint256",
          "name": "tokenId",
          "type": "uint256"
        }
      ],
      "name": "tokenURI",
      "outputs": [
        {
          "internalType": "string",
          "name": "",
          "type": "string"
        }
      ],
      "stateMutability": "view",
      "type": "function"
    },
    {
      "inputs": [
        {
          "internalType": "address",
          "name": "from",
          "type": "address"
        },
        {
          "internalType": "address",
          "name": "to",
          "type": "address"
        },
        {
          "internalType": "uint256",
          "name": "tokenId",
          "type": "uint256"
        }
      ],
      "name": "transferFrom",
      "outputs": [],
      "stateMutability": "nonpayable",
      "type": "function"
    },
    {
      "inputs": [
        {
          "internalType": "address",
          "name": "newOwner",
          "type": "address"
        }
      ],
      "name": "transferOwnership",
      "outputs": [],
      "stateMutability": "nonpayable",
      "type": "function"
    }
  ],
  "bytecode": "0x60806040523480156200001157600080fd5b506040518060400160405280600581526020017f4d794e46540000000000000000000000000000000000000000000000000000008152506040518060400160405280600481526020017f4d4e46540000000000000000000000000000000000000000000000000000000081525081600090816200008f91906200041a565b508060019081620000a191906200041a565b505050620000c4620000b8620000d260201b60201c565b620000da60201b60201c565b600160088190555062000501565b600033905090565b6000600760009054906101000a900473ffffffffffffffffffffffffffffffffffffffff16905081600760006101000a81548173ffffffffffffffffffffffffffffffffffffffff021916908373ffffffffffffffffffffffffffffffffffffffff1602179055508173ffffffffffffffffffffffffffffffffffffffff168173ffffffffffffffffffffffffffffffffffffffff167f8be0079c531659141344cd1fd0a4f28419497f9722a3daafe3b4186f6b6457e060405160405180910390a35050565b600081519050919050565b7f4e487b7100000000000000000000000000000000000000000000000000000000600052604160045260246000fd5b7f4e487b7100000000000000000000000000000000000000000000000000000000600052602260045260246000fd5b600060028204905060018216806200022257607f821691505b602082108103620002385762000237620001da565b5b50919050565b60008190508160005260206000209050919050565b60006020601f8301049050919050565b600082821b905092915050565b600060088302620002a27fffffffffffffffffffffffffffffffffffffffffffffffffffffffffffffffff8262000263565b620002ae868362000263565b95508019841693508086168417925050509392505050565b6000819050919050565b6000819050919050565b6000620002fb620002f5620002ef84620002c6565b620002d0565b620002c6565b9050919050565b6000819050919050565b6200031783620002da565b6200032f620003268262000302565b84845462000270565b825550505050565b600090565b6200034662000337565b620003538184846200030c565b505050565b5b818110156200037b576200036f6000826200033c565b60018101905062000359565b5050565b601f821115620003ca5762000394816200023e565b6200039f8462000253565b81016020851015620003af578190505b620003c7620003be8562000253565b83018262000358565b50505b505050565b600082821c905092915050565b6000620003ef60001984600802620003cf565b1980831691505092915050565b60006200040a8383620003dc565b9150826002028217905092915050565b6200042582620001a0565b67ffffffffffffffff811115620004415762000440620001ab565b5b6200044d825462000209565b6200045a8282856200037f565b600060209050601f8311600181146200049257600084156200047d578287015190505b620004898582620003fc565b865550620004f9565b601f198416620004a2866200023e565b60005b82811015620004cc57848901518255600182019150602085019450602081019050620004a5565b86831015620004ec5784890151620004e8601f891682620003dc565b8355505b6001600288020188555050505b505050505050565b6156bd80620005116000396000f3fe60806040526004361061012a5760003560e01c8063877dc8b5116100ab578063b88d4fde1161006f578063b88d4fde146103e1578063c87b56dd1461040a578063d46dc8e514610447578063e985e9c514610463578063f2fde38b146104a0578063fc3fc4ed146104c95761012a565b8063877dc8b5146102fc5780638da5cb5b1461032557806395d89b411461035057806397aba7f91461037b578063a22cb465146103b85761012a565b806342842e0e116100f257806342842e0e146102265780636352211e1461024f57806370a082311461028c578063715018a6146102c9578063862ba2ca146102e05761012a565b806301ffc9a71461012f57806306fdde031461016c578063081812fc14610197578063095ea7b3146101d457806323b872dd146101fd575b600080fd5b34801561013b57600080fd5b50610156600480360381019061015191906132a9565b610506565b60405161016391906132f1565b60405180910390f35b34801561017857600080fd5b50610181610518565b60405161018e919061339c565b60405180910390f35b3480156101a357600080fd5b506101be60048036038101906101b991906133f4565b6105aa565b6040516101cb9190613462565b60405180910390f35b3480156101e057600080fd5b506101fb60048036038101906101f691906134a9565b61062f565b005b34801561020957600080fd5b50610224600480360381019061021f91906134e9565b610746565b005b34801561023257600080fd5b5061024d600480360381019061024891906134e9565b6107a6565b005b34801561025b57600080fd5b50610276600480360381019061027191906133f4565b6107c6565b6040516102839190613462565b60405180910390f35b34801561029857600080fd5b506102b360048036038101906102ae919061353c565b610877565b6040516102c09190613578565b60405180910390f35b3480156102d557600080fd5b506102de61092e565b005b6102fa60048036038101906102f59190613722565b6109b6565b005b34801561030857600080fd5b50610323600480360381019061031e91906137ad565b610ddb565b005b34801561033157600080fd5b5061033a6112f5565b6040516103479190613462565b60405180910390f35b34801561035c57600080fd5b5061036561131f565b604051610372919061339c565b60405180910390f35b34801561038757600080fd5b506103a2600480360381019061039d919061381c565b6113b1565b6040516103af9190613462565b60405180910390f35b3480156103c457600080fd5b506103df60048036038101906103da91906138a4565b6113f0565b005b3480156103ed57600080fd5b50610408600480360381019061040391906138e4565b611406565b005b34801561041657600080fd5b50610431600480360381019061042c91906133f4565b611468565b60405161043e919061339c565b60405180910390f35b610461600480360381019061045c9190613967565b6115b9565b005b34801561046f57600080fd5b5061048a600480360381019061048591906139fe565b611cb0565b60405161049791906132f1565b60405180910390f35b3480156104ac57600080fd5b506104c760048036038101906104c2919061353c565b611d44565b005b3480156104d557600080fd5b506104f060048036038101906104eb91906133f4565b611e3b565b6040516104fd9190613b65565b60405180910390f35b600061051182611f9e565b9050919050565b60606000805461052790613bb6565b80601f016020809104026020016040519081016040528092919081815260200182805461055390613bb6565b80156105a05780601f10610575576101008083540402835291602001916105a0565b820191906000526020600020905b81548152906001019060200180831161058357829003601f168201915b5050505050905090565b60006105b582612080565b6105f4576040517f08c379a00000000000000000000000000000000000000000000000000000000081526004016105eb90613c59565b60405180910390fd5b6004600083815260200190815260200160002060009054906101000a900473ffffffffffffffffffffffffffffffffffffffff169050919050565b600061063a826107c6565b90508073ffffffffffffffffffffffffffffffffffffffff168373ffffffffffffffffffffffffffffffffffffffff16036106aa576040517f08c379a00000000000000000000000000000000000000000000000000000000081526004016106a190613ceb565b60405180910390fd5b8073ffffffffffffffffffffffffffffffffffffffff166106c96120ec565b73ffffffffffffffffffffffffffffffffffffffff1614806106f857506106f7816106f26120ec565b611cb0565b5b610737576040517f08c379a000000000000000000000000000000000000000000000000000000000815260040161072e90613d7d565b60405180910390fd5b61074183836120f4565b505050565b6107576107516120ec565b826121ad565b610796576040517f08c379a000000000000000000000000000000000000000000000000000000000815260040161078d90613e0f565b60405180910390fd5b6107a183838361228b565b505050565b6107c183838360405180602001604052806000815250611406565b505050565b6000806002600084815260200190815260200160002060009054906101000a900473ffffffffffffffffffffffffffffffffffffffff169050600073ffffffffffffffffffffffffffffffffffffffff168173ffffffffffffffffffffffffffffffffffffffff160361086e576040517f08c379a000000000000000000000000000000000000000000000000000000000815260040161086590613ea1565b60405180910390fd5b80915050919050565b60008073ffffffffffffffffffffffffffffffffffffffff168273ffffffffffffffffffffffffffffffffffffffff16036108e7576040517f08c379a00000000000000000000000000000000000000000000000000000000081526004016108de90613f33565b60405180910390fd5b600360008373ffffffffffffffffffffffffffffffffffffffff1673ffffffffffffffffffffffffffffffffffffffff168152602001908152602001600020549050919050565b6109366120ec565b73ffffffffffffffffffffffffffffffffffffffff166109546112f5565b73ffffffffffffffffffffffffffffffffffffffff16146109aa576040517f08c379a00000000000000000000000000000000000000000000000000000000081526004016109a190613f9f565b60405180910390fd5b6109b460006124f1565b565b6002600854036109fb576040517f08c379a00000000000000000000000000000000000000000000000000000000081526004016109f29061400b565b60405180910390fd5b6002600881905550610a0b6112f5565b73ffffffffffffffffffffffffffffffffffffffff16610a2b83836113b1565b73ffffffffffffffffffffffffffffffffffffffff1614610a81576040517f08c379a0000000000000000000000000000000000000000000000000000000008152600401610a7890614077565b60405180910390fd5b610a8b82826113b1565b600a60006101000a81548173ffffffffffffffffffffffffffffffffffffffff021916908373ffffffffffffffffffffffffffffffffffffffff160217905550600b81604051610adb91906140de565b908152602001604051809103902060009054906101000a900460ff1615610b37576040517f08c379a0000000000000000000000000000000000000000000000000000000008152600401610b2e90614141565b60405180910390fd5b3373ffffffffffffffffffffffffffffffffffffffff16600a60009054906101000a900473ffffffffffffffffffffffffffffffffffffffff1673ffffffffffffffffffffffffffffffffffffffff1603610bc7576040517f08c379a0000000000000000000000000000000000000000000000000000000008152600401610bbe906141ad565b60405180910390fd5b82602001353414610c0d576040517f08c379a0000000000000000000000000000000000000000000000000000000008152600401610c0490614219565b60405180910390fd5b610c3d600a60009054906101000a900473ffffffffffffffffffffffffffffffffffffffff1684600001356125b7565b610c9d8360000135848060400190610c559190614248565b8080601f016020809104026020016040519081016040528093929190818152602001838380828437600081840152601f19601f82011690508083019250505050505050612790565b610cce600a60009054906101000a900473ffffffffffffffffffffffffffffffffffffffff1633856000013561228b565b600a60009054906101000a900473ffffffffffffffffffffffffffffffffffffffff1673ffffffffffffffffffffffffffffffffffffffff166108fc84602001359081150290604051600060405180830381858888f19350505050158015610d3a573d6000803e3d6000fd5b506001600b82604051610d4d91906140de565b908152602001604051809103902060006101000a81548160ff0219169083151502179055508260200135838060400190610d879190614248565b604051610d959291906142db565b604051809103902084600001357f6dcf024ef3fe3b4d177c8b8342bd25d3b5d32a4c92e6e8a499785a5329bb9dfe60405160405180910390a46001600881905550505050565b600260085403610e20576040517f08c379a0000000000000000000000000000000000000000000000000000000008152600401610e179061400b565b60405180910390fd5b6002600881905550610e306112f5565b73ffffffffffffffffffffffffffffffffffffffff16610e5083836113b1565b73ffffffffffffffffffffffffffffffffffffffff1614610ea6576040517f08c379a0000000000000000000000000000000000000000000000000000000008152600401610e9d90614077565b60405180910390fd5b610eb082826113b1565b600a60006101000a81548173ffffffffffffffffffffffffffffffffffffffff021916908373ffffffffffffffffffffffffffffffffffffffff160217905550610ef86112f5565b73ffffffffffffffffffffffffffffffffffffffff163373ffffffffffffffffffffffffffffffffffffffff1614610f65576040517f08c379a0000000000000000000000000000000000000000000000000000000008152600401610f5c90614340565b60405180910390fd5b600c600084815260200190815260200160002060040154421015610fbe576040517f08c379a0000000000000000000000000000000000000000000000000000000008152600401610fb5906143ac565b60405180910390fd5b600c600084815260200190815260200160002060050154421015611017576040517f08c379a000000000000000000000000000000000000000000000000000000000815260040161100e90614418565b60405180910390fd5b600c600084815260200190815260200160002060030160009054906101000a900460ff161561107b576040517f08c379a000000000000000000000000000000000000000000000000000000000815260040161107290614484565b60405180910390fd5b6000600c600085815260200190815260200160002060070154036110d4576040517f08c379a00000000000000000000000000000000000000000000000000000000081526004016110cb906144f0565b60405180910390fd5b6110f433600c6000868152602001908152602001600020600001546125b7565b6111b2600c600085815260200190815260200160002060000154600c6000868152602001908152602001600020600201805461112f90613bb6565b80601f016020809104026020016040519081016040528092919081815260200182805461115b90613bb6565b80156111a85780601f1061117d576101008083540402835291602001916111a8565b820191906000526020600020905b81548152906001019060200180831161118b57829003601f168201915b5050505050612790565b61120933600c600086815260200190815260200160002060060160009054906101000a900473ffffffffffffffffffffffffffffffffffffffff16600c60008781526020019081526020016000206000015461228b565b3373ffffffffffffffffffffffffffffffffffffffff166108fc600c6000868152602001908152602001600020600701549081150290604051600060405180830381858888f19350505050158015611265573d6000803e3d6000fd5b506001600c600085815260200190815260200160002060030160006101000a81548160ff0219169083151502179055506001600b826040516112a791906140de565b908152602001604051809103902060006101000a81548160ff0219169083151502179055506000600c6000858152602001908152602001600020600101819055506001600881905550505050565b6000600760009054906101000a900473ffffffffffffffffffffffffffffffffffffffff16905090565b60606001805461132e90613bb6565b80601f016020809104026020016040519081016040528092919081815260200182805461135a90613bb6565b80156113a75780601f1061137c576101008083540402835291602001916113a7565b820191906000526020600020905b81548152906001019060200180831161138a57829003601f168201915b5050505050905090565b600080836040516020016113c5919061457d565b6040516020818303038152906040528051906020012090506113e781846127fd565b91505092915050565b6114026113fb6120ec565b8383612824565b5050565b6114176114116120ec565b836121ad565b611456576040517f08c379a000000000000000000000000000000000000000000000000000000000815260040161144d90613e0f565b60405180910390fd5b61146284848484612990565b50505050565b606061147382612080565b6114b2576040517f08c379a00000000000000000000000000000000000000000000000000000000081526004016114a990614615565b60405180910390fd5b60006006600084815260200190815260200160002080546114d290613bb6565b80601f01602080910402602001604051908101604052809291908181526020018280546114fe90613bb6565b801561154b5780601f106115205761010080835404028352916020019161154b565b820191906000526020600020905b81548152906001019060200180831161152e57829003601f168201915b50505050509050600061155c6129ec565b905060008151036115715781925050506115b4565b6000825111156115a657808260405160200161158e929190614666565b604051602081830303815290604052925050506115b4565b6115af84612a03565b925050505b919050565b6002600854036115fe576040517f08c379a00000000000000000000000000000000000000000000000000000000081526004016115f59061400b565b60405180910390fd5b600260088190555060003411611649576040517f08c379a0000000000000000000000000000000000000000000000000000000008152600401611640906146d6565b60405180910390fd5b6116516112f5565b73ffffffffffffffffffffffffffffffffffffffff1661167183836113b1565b73ffffffffffffffffffffffffffffffffffffffff16146116c7576040517f08c379a00000000000000000000000000000000000000000000000000000000081526004016116be90614077565b60405180910390fd5b6116d182826113b1565b600a60006101000a81548173ffffffffffffffffffffffffffffffffffffffff021916908373ffffffffffffffffffffffffffffffffffffffff16021790555083421015611754576040517f08c379a000000000000000000000000000000000000000000000000000000000815260040161174b906143ac565b60405180910390fd5b600c6000868152602001908152602001600020600101543410156117ad576040517f08c379a00000000000000000000000000000000000000000000000000000000081526004016117a490614742565b60405180910390fd5b824211156117f0576040517f08c379a00000000000000000000000000000000000000000000000000000000081526004016117e7906147ae565b60405180910390fd5b600c600086815260200190815260200160002060030160009054906101000a900460ff1615611854576040517f08c379a000000000000000000000000000000000000000000000000000000000815260040161184b9061481a565b60405180910390fd5b600b8160405161186491906140de565b908152602001604051809103902060009054906101000a900460ff16156118c0576040517f08c379a00000000000000000000000000000000000000000000000000000000081526004016118b790614141565b60405180910390fd5b3373ffffffffffffffffffffffffffffffffffffffff16600a60009054906101000a900473ffffffffffffffffffffffffffffffffffffffff1673ffffffffffffffffffffffffffffffffffffffff1603611950576040517f08c379a000000000000000000000000000000000000000000000000000000000815260040161194790614886565b60405180910390fd5b6000600c60008781526020019081526020016000206007015490508034116119ad576040517f08c379a00000000000000000000000000000000000000000000000000000000081526004016119a4906148f2565b60405180910390fd5b6000600c600088815260200190815260200160002060060160009054906101000a900473ffffffffffffffffffffffffffffffffffffffff16905085600c60008981526020019081526020016000206004018190555084600c60008981526020019081526020016000206005018190555081341115611c9f57600d60003373ffffffffffffffffffffffffffffffffffffffff1673ffffffffffffffffffffffffffffffffffffffff168152602001908152602001600020600088815260200190815260200160002060009054906101000a900460ff16611af2576001600d60003373ffffffffffffffffffffffffffffffffffffffff1673ffffffffffffffffffffffffffffffffffffffff168152602001908152602001600020600089815260200190815260200160002060006101000a81548160ff0219169083151502179055505b600073ffffffffffffffffffffffffffffffffffffffff168173ffffffffffffffffffffffffffffffffffffffff1614158015611b30575060008214155b15611bc05781471015611b78576040517f08c379a0000000000000000000000000000000000000000000000000000000008152600401611b6f9061495e565b60405180910390fd5b8073ffffffffffffffffffffffffffffffffffffffff166108fc839081150290604051600060405180830381858888f19350505050158015611bbe573d6000803e3d6000fd5b505b33600c600089815260200190815260200160002060060160006101000a81548173ffffffffffffffffffffffffffffffffffffffff021916908373ffffffffffffffffffffffffffffffffffffffff16021790555034600c60008981526020019081526020016000206007018190555086600c60008981526020019081526020016000206000018190555034877ff42549a14dcb5e213fada254ec437a209f7eeeee98b293fe8855190d3dd613153342600c60008d815260200190815260200160002060050154604051611c969392919061497e565b60405180910390a35b505060016008819055505050505050565b6000600560008473ffffffffffffffffffffffffffffffffffffffff1673ffffffffffffffffffffffffffffffffffffffff16815260200190815260200160002060008373ffffffffffffffffffffffffffffffffffffffff1673ffffffffffffffffffffffffffffffffffffffff16815260200190815260200160002060009054906101000a900460ff16905092915050565b611d4c6120ec565b73ffffffffffffffffffffffffffffffffffffffff16611d6a6112f5565b73ffffffffffffffffffffffffffffffffffffffff1614611dc0576040517f08c379a0000000000000000000000000000000000000000000000000000000008152600401611db790613f9f565b60405180910390fd5b600073ffffffffffffffffffffffffffffffffffffffff168173ffffffffffffffffffffffffffffffffffffffff1603611e2f576040517f08c379a0000000000000000000000000000000000000000000000000000000008152600401611e2690614a27565b60405180910390fd5b611e38816124f1565b50565b611e436131e0565b600c6000838152602001908152602001600020604051806101000160405290816000820154815260200160018201548152602001600282018054611e8690613bb6565b80601f0160208091040260200160405190810160405280929190818152602001828054611eb290613bb6565b8015611eff5780601f10611ed457610100808354040283529160200191611eff565b820191906000526020600020905b815481529060010190602001808311611ee257829003601f168201915b505050505081526020016003820160009054906101000a900460ff1615151515815260200160048201548152602001600582015481526020016006820160009054906101000a900473ffffffffffffffffffffffffffffffffffffffff1673ffffffffffffffffffffffffffffffffffffffff1673ffffffffffffffffffffffffffffffffffffffff1681526020016007820154815250509050919050565b60007f80ac58cd000000000000000000000000000000000000000000000000000000007bffffffffffffffffffffffffffffffffffffffffffffffffffffffff1916827bffffffffffffffffffffffffffffffffffffffffffffffffffffffff1916148061206957507f5b5e139f000000000000000000000000000000000000000000000000000000007bffffffffffffffffffffffffffffffffffffffffffffffffffffffff1916827bffffffffffffffffffffffffffffffffffffffffffffffffffffffff1916145b80612079575061207882612aaa565b5b9050919050565b60008073ffffffffffffffffffffffffffffffffffffffff166002600084815260200190815260200160002060009054906101000a900473ffffffffffffffffffffffffffffffffffffffff1673ffffffffffffffffffffffffffffffffffffffff1614159050919050565b600033905090565b816004600083815260200190815260200160002060006101000a81548173ffffffffffffffffffffffffffffffffffffffff021916908373ffffffffffffffffffffffffffffffffffffffff160217905550808273ffffffffffffffffffffffffffffffffffffffff16612167836107c6565b73ffffffffffffffffffffffffffffffffffffffff167f8c5be1e5ebec7d5bd14f71427d1e84f3dd0314c0f7b2291e5b200ac8c7c3b92560405160405180910390a45050565b60006121b882612080565b6121f7576040517f08c379a00000000000000000000000000000000000000000000000000000000081526004016121ee90614ab9565b60405180910390fd5b6000612202836107c6565b90508073ffffffffffffffffffffffffffffffffffffffff168473ffffffffffffffffffffffffffffffffffffffff16148061224457506122438185611cb0565b5b8061228257508373ffffffffffffffffffffffffffffffffffffffff1661226a846105aa565b73ffffffffffffffffffffffffffffffffffffffff16145b91505092915050565b8273ffffffffffffffffffffffffffffffffffffffff166122ab826107c6565b73ffffffffffffffffffffffffffffffffffffffff1614612301576040517f08c379a00000000000000000000000000000000000000000000000000000000081526004016122f890614b4b565b60405180910390fd5b600073ffffffffffffffffffffffffffffffffffffffff168273ffffffffffffffffffffffffffffffffffffffff1603612370576040517f08c379a000000000000000000000000000000000000000000000000000000000815260040161236790614bdd565b60405180910390fd5b61237b838383612b14565b6123866000826120f4565b6001600360008573ffffffffffffffffffffffffffffffffffffffff1673ffffffffffffffffffffffffffffffffffffffff16815260200190815260200160002060008282546123d69190614c2c565b925050819055506001600360008473ffffffffffffffffffffffffffffffffffffffff1673ffffffffffffffffffffffffffffffffffffffff168152602001908152602001600020600082825461242d9190614c60565b92505081905550816002600083815260200190815260200160002060006101000a81548173ffffffffffffffffffffffffffffffffffffffff021916908373ffffffffffffffffffffffffffffffffffffffff160217905550808273ffffffffffffffffffffffffffffffffffffffff168473ffffffffffffffffffffffffffffffffffffffff167fddf252ad1be2c89b69c2b068fc378daa952ba7f163c4a11628f55a4df523b3ef60405160405180910390a46124ec838383612b19565b505050565b6000600760009054906101000a900473ffffffffffffffffffffffffffffffffffffffff16905081600760006101000a81548173ffffffffffffffffffffffffffffffffffffffff021916908373ffffffffffffffffffffffffffffffffffffffff1602179055508173ffffffffffffffffffffffffffffffffffffffff168173ffffffffffffffffffffffffffffffffffffffff167f8be0079c531659141344cd1fd0a4f28419497f9722a3daafe3b4186f6b6457e060405160405180910390a35050565b600073ffffffffffffffffffffffffffffffffffffffff168273ffffffffffffffffffffffffffffffffffffffff1603612626576040517f08c379a000000000000000000000000000000000000000000000000000000000815260040161261d90614ce0565b60405180910390fd5b61262f81612080565b1561266f576040517f08c379a000000000000000000000000000000000000000000000000000000000815260040161266690614d4c565b60405180910390fd5b61267b60008383612b14565b6001600360008473ffffffffffffffffffffffffffffffffffffffff1673ffffffffffffffffffffffffffffffffffffffff16815260200190815260200160002060008282546126cb9190614c60565b92505081905550816002600083815260200190815260200160002060006101000a81548173ffffffffffffffffffffffffffffffffffffffff021916908373ffffffffffffffffffffffffffffffffffffffff160217905550808273ffffffffffffffffffffffffffffffffffffffff16600073ffffffffffffffffffffffffffffffffffffffff167fddf252ad1be2c89b69c2b068fc378daa952ba7f163c4a11628f55a4df523b3ef60405160405180910390a461278c60008383612b19565b5050565b61279982612080565b6127d8576040517f08c379a00000000000000000000000000000000000000000000000000000000081526004016127cf90614dde565b60405180910390fd5b806006600084815260200190815260200160002090816127f89190614faa565b505050565b600080600061280c8585612b1e565b9150915061281981612b9f565b819250505092915050565b8173ffffffffffffffffffffffffffffffffffffffff168373ffffffffffffffffffffffffffffffffffffffff1603612892576040517f08c379a0000000000000000000000000000000000000000000000000000000008152600401612889906150c8565b60405180910390fd5b80600560008573ffffffffffffffffffffffffffffffffffffffff1673ffffffffffffffffffffffffffffffffffffffff16815260200190815260200160002060008473ffffffffffffffffffffffffffffffffffffffff1673ffffffffffffffffffffffffffffffffffffffff16815260200190815260200160002060006101000a81548160ff0219169083151502179055508173ffffffffffffffffffffffffffffffffffffffff168373ffffffffffffffffffffffffffffffffffffffff167f17307eab39ab6107e8899845ad3d59bd9653f200f220920489ca2b5937696c318360405161298391906132f1565b60405180910390a3505050565b61299b84848461228b565b6129a784848484612d6b565b6129e6576040517f08c379a00000000000000000000000000000000000000000000000000000000081526004016129dd9061515a565b60405180910390fd5b50505050565b606060405180602001604052806000815250905090565b6060612a0e82612080565b612a4d576040517f08c379a0000000000000000000000000000000000000000000000000000000008152600401612a44906151ec565b60405180910390fd5b6000612a576129ec565b90506000815111612a775760405180602001604052806000815250612aa2565b80612a8184612ef2565b604051602001612a92929190614666565b6040516020818303038152906040525b915050919050565b60007f01ffc9a7000000000000000000000000000000000000000000000000000000007bffffffffffffffffffffffffffffffffffffffffffffffffffffffff1916827bffffffffffffffffffffffffffffffffffffffffffffffffffffffff1916149050919050565b505050565b505050565b6000806041835103612b5f5760008060006020860151925060408601519150606086015160001a9050612b5387828585613052565b94509450505050612b98565b6040835103612b8f576000806020850151915060408501519050612b8486838361315e565b935093505050612b98565b60006002915091505b9250929050565b60006004811115612bb357612bb261520c565b5b816004811115612bc657612bc561520c565b5b0315612d685760016004811115612be057612bdf61520c565b5b816004811115612bf357612bf261520c565b5b03612c33576040517f08c379a0000000000000000000000000000000000000000000000000000000008152600401612c2a90615287565b60405180910390fd5b60026004811115612c4757612c4661520c565b5b816004811115612c5a57612c5961520c565b5b03612c9a576040517f08c379a0000000000000000000000000000000000000000000000000000000008152600401612c91906152f3565b60405180910390fd5b60036004811115612cae57612cad61520c565b5b816004811115612cc157612cc061520c565b5b03612d01576040517f08c379a0000000000000000000000000000000000000000000000000000000008152600401612cf890615385565b60405180910390fd5b600480811115612d1457612d1361520c565b5b816004811115612d2757612d2661520c565b5b03612d67576040517f08c379a0000000000000000000000000000000000000000000000000000000008152600401612d5e90615417565b60405180910390fd5b5b50565b6000612d8c8473ffffffffffffffffffffffffffffffffffffffff166131bd565b15612ee5578373ffffffffffffffffffffffffffffffffffffffff1663150b7a02612db56120ec565b8786866040518563ffffffff1660e01b8152600401612dd79493929190615481565b6020604051808303816000875af1925050508015612e1357506040513d601f19601f82011682018060405250810190612e1091906154e2565b60015b612e95573d8060008114612e43576040519150601f19603f3d011682016040523d82523d6000602084013e612e48565b606091505b506000815103612e8d576040517f08c379a0000000000000000000000000000000000000000000000000000000008152600401612e849061515a565b60405180910390fd5b805181602001fd5b63150b7a0260e01b7bffffffffffffffffffffffffffffffffffffffffffffffffffffffff1916817bffffffffffffffffffffffffffffffffffffffffffffffffffffffff191614915050612eea565b600190505b949350505050565b606060008203612f39576040518060400160405280600181526020017f3000000000000000000000000000000000000000000000000000000000000000815250905061304d565b600082905060005b60008214612f6b578080612f549061550f565b915050600a82612f649190615586565b9150612f41565b60008167ffffffffffffffff811115612f8757612f866135f7565b5b6040519080825280601f01601f191660200182016040528015612fb95781602001600182028036833780820191505090505b5090505b6000851461304657600182612fd29190614c2c565b9150600a85612fe191906155b7565b6030612fed9190614c60565b60f81b818381518110613003576130026155e8565b5b60200101907effffffffffffffffffffffffffffffffffffffffffffffffffffffffffffff1916908160001a905350600a8561303f9190615586565b9450612fbd565b8093505050505b919050565b6000807f7fffffffffffffffffffffffffffffff5d576e7357a4501ddfe92f46681b20a08360001c111561308d576000600391509150613155565b601b8560ff16141580156130a55750601c8560ff1614155b156130b7576000600491509150613155565b6000600187878787604051600081526020016040526040516130dc9493929190615642565b6020604051602081039080840390855afa1580156130fe573d6000803e3d6000fd5b505050602060405103519050600073ffffffffffffffffffffffffffffffffffffffff168173ffffffffffffffffffffffffffffffffffffffff160361314c57600060019250925050613155565b80600092509250505b94509492505050565b60008060007f7fffffffffffffffffffffffffffffffffffffffffffffffffffffffffffffff60001b841690506000601b60ff8660001c901c6131a19190614c60565b90506131af87828885613052565b935093505050935093915050565b6000808273ffffffffffffffffffffffffffffffffffffffff163b119050919050565b6040518061010001604052806000815260200160008152602001606081526020016000151581526020016000815260200160008152602001600073ffffffffffffffffffffffffffffffffffffffff168152602001600081525090565b6000604051905090565b600080fd5b600080fd5b60007fffffffff0000000000000000000000000000000000000000000000000000000082169050919050565b61328681613251565b811461329157600080fd5b50565b6000813590506132a38161327d565b92915050565b6000602082840312156132bf576132be613247565b5b60006132cd84828501613294565b91505092915050565b60008115159050919050565b6132eb816132d6565b82525050565b600060208201905061330660008301846132e2565b92915050565b600081519050919050565b600082825260208201905092915050565b60005b8381101561334657808201518184015260208101905061332b565b60008484015250505050565b6000601f19601f8301169050919050565b600061336e8261330c565b6133788185613317565b9350613388818560208601613328565b61339181613352565b840191505092915050565b600060208201905081810360008301526133b68184613363565b905092915050565b6000819050919050565b6133d1816133be565b81146133dc57600080fd5b50565b6000813590506133ee816133c8565b92915050565b60006020828403121561340a57613409613247565b5b6000613418848285016133df565b91505092915050565b600073ffffffffffffffffffffffffffffffffffffffff82169050919050565b600061344c82613421565b9050919050565b61345c81613441565b82525050565b60006020820190506134776000830184613453565b92915050565b61348681613441565b811461349157600080fd5b50565b6000813590506134a38161347d565b92915050565b600080604083850312156134c0576134bf613247565b5b60006134ce85828601613494565b92505060206134df858286016133df565b9150509250929050565b60008060006060848603121561350257613501613247565b5b600061351086828701613494565b935050602061352186828701613494565b9250506040613532868287016133df565b9150509250925092565b60006020828403121561355257613551613247565b5b600061356084828501613494565b91505092915050565b613572816133be565b82525050565b600060208201905061358d6000830184613569565b92915050565b600080fd5b6000606082840312156135ae576135ad613593565b5b81905092915050565b6000819050919050565b6135ca816135b7565b81146135d557600080fd5b50565b6000813590506135e7816135c1565b92915050565b600080fd5b600080fd5b7f4e487b7100000000000000000000000000000000000000000000000000000000600052604160045260246000fd5b61362f82613352565b810181811067ffffffffffffffff8211171561364e5761364d6135f7565b5b80604052505050565b600061366161323d565b905061366d8282613626565b919050565b600067ffffffffffffffff82111561368d5761368c6135f7565b5b61369682613352565b9050602081019050919050565b82818337600083830152505050565b60006136c56136c084613672565b613657565b9050828152602081018484840111156136e1576136e06135f2565b5b6136ec8482856136a3565b509392505050565b600082601f830112613709576137086135ed565b5b81356137198482602086016136b2565b91505092915050565b60008060006060848603121561373b5761373a613247565b5b600084013567ffffffffffffffff8111156137595761375861324c565b5b61376586828701613598565b9350506020613776868287016135d8565b925050604084013567ffffffffffffffff8111156137975761379661324c565b5b6137a3868287016136f4565b9150509250925092565b6000806000606084860312156137c6576137c5613247565b5b60006137d4868287016133df565b93505060206137e5868287016135d8565b925050604084013567ffffffffffffffff8111156138065761380561324c565b5b613812868287016136f4565b9150509250925092565b6000806040838503121561383357613832613247565b5b6000613841858286016135d8565b925050602083013567ffffffffffffffff8111156138625761386161324c565b5b61386e858286016136f4565b9150509250929050565b613881816132d6565b811461388c57600080fd5b50565b60008135905061389e81613878565b92915050565b600080604083850312156138bb576138ba613247565b5b60006138c985828601613494565b92505060206138da8582860161388f565b9150509250929050565b600080600080608085870312156138fe576138fd613247565b5b600061390c87828801613494565b945050602061391d87828801613494565b935050604061392e878288016133df565b925050606085013567ffffffffffffffff81111561394f5761394e61324c565b5b61395b878288016136f4565b91505092959194509250565b600080600080600060a0868803121561398357613982613247565b5b6000613991888289016133df565b95505060206139a2888289016133df565b94505060406139b3888289016133df565b93505060606139c4888289016135d8565b925050608086013567ffffffffffffffff8111156139e5576139e461324c565b5b6139f1888289016136f4565b9150509295509295909350565b60008060408385031215613a1557613a14613247565b5b6000613a2385828601613494565b9250506020613a3485828601613494565b9150509250929050565b613a47816133be565b82525050565b600082825260208201905092915050565b6000613a698261330c565b613a738185613a4d565b9350613a83818560208601613328565b613a8c81613352565b840191505092915050565b613aa0816132d6565b82525050565b613aaf81613441565b82525050565b600061010083016000830151613ace6000860182613a3e565b506020830151613ae16020860182613a3e565b5060408301518482036040860152613af98282613a5e565b9150506060830151613b0e6060860182613a97565b506080830151613b216080860182613a3e565b5060a0830151613b3460a0860182613a3e565b5060c0830151613b4760c0860182613aa6565b5060e0830151613b5a60e0860182613a3e565b508091505092915050565b60006020820190508181036000830152613b7f8184613ab5565b905092915050565b7f4e487b7100000000000000000000000000000000000000000000000000000000600052602260045260246000fd5b60006002820490506001821680613bce57607f821691505b602082108103613be157613be0613b87565b5b50919050565b7f4552433732313a20617070726f76656420717565727920666f72206e6f6e657860008201527f697374656e7420746f6b656e0000000000000000000000000000000000000000602082015250565b6000613c43602c83613317565b9150613c4e82613be7565b604082019050919050565b60006020820190508181036000830152613c7281613c36565b9050919050565b7f4552433732313a20617070726f76616c20746f2063757272656e74206f776e6560008201527f7200000000000000000000000000000000000000000000000000000000000000602082015250565b6000613cd5602183613317565b9150613ce082613c79565b604082019050919050565b60006020820190508181036000830152613d0481613cc8565b9050919050565b7f4552433732313a20617070726f76652063616c6c6572206973206e6f74206f7760008201527f6e6572206e6f7220617070726f76656420666f7220616c6c0000000000000000602082015250565b6000613d67603883613317565b9150613d7282613d0b565b604082019050919050565b60006020820190508181036000830152613d9681613d5a565b9050919050565b7f4552433732313a207472616e736665722063616c6c6572206973206e6f74206f60008201527f776e6572206e6f7220617070726f766564000000000000000000000000000000602082015250565b6000613df9603183613317565b9150613e0482613d9d565b604082019050919050565b60006020820190508181036000830152613e2881613dec565b9050919050565b7f4552433732313a206f776e657220717565727920666f72206e6f6e657869737460008201527f656e7420746f6b656e0000000000000000000000000000000000000000000000602082015250565b6000613e8b602983613317565b9150613e9682613e2f565b604082019050919050565b60006020820190508181036000830152613eba81613e7e565b9050919050565b7f4552433732313a2062616c616e636520717565727920666f7220746865207a6560008201527f726f206164647265737300000000000000000000000000000000000000000000602082015250565b6000613f1d602a83613317565b9150613f2882613ec1565b604082019050919050565b60006020820190508181036000830152613f4c81613f10565b9050919050565b7f4f776e61626c653a2063616c6c6572206973206e6f7420746865206f776e6572600082015250565b6000613f89602083613317565b9150613f9482613f53565b602082019050919050565b60006020820190508181036000830152613fb881613f7c565b9050919050565b7f5265656e7472616e637947756172643a207265656e7472616e742063616c6c00600082015250565b6000613ff5601f83613317565b915061400082613fbf565b602082019050919050565b6000602082019050818103600083015261402481613fe8565b9050919050565b7f41646472657373206973206e6f7420617574686f72697a656400000000000000600082015250565b6000614061601983613317565b915061406c8261402b565b602082019050919050565b6000602082019050818103600083015261409081614054565b9050919050565b600081519050919050565b600081905092915050565b60006140b882614097565b6140c281856140a2565b93506140d2818560208601613328565b80840191505092915050565b60006140ea82846140ad565b915081905092915050565b7f416c7265616479207369676e6174757265207573656400000000000000000000600082015250565b600061412b601683613317565b9150614136826140f5565b602082019050919050565b6000602082019050818103600083015261415a8161411e565b9050919050565b7f596f752063616e6e6f742062757920796f7572206f776e204e46540000000000600082015250565b6000614197601b83613317565b91506141a282614161565b602082019050919050565b600060208201905081810360008301526141c68161418a565b9050919050565b7f496e73756666696369656e742046756e64732121000000000000000000000000600082015250565b6000614203601483613317565b915061420e826141cd565b602082019050919050565b60006020820190508181036000830152614232816141f6565b9050919050565b600080fd5b600080fd5b600080fd5b6000808335600160200384360303811261426557614264614239565b5b80840192508235915067ffffffffffffffff8211156142875761428661423e565b5b6020830192506001820236038313156142a3576142a2614243565b5b509250929050565b600081905092915050565b60006142c283856142ab565b93506142cf8385846136a3565b82840190509392505050565b60006142e88284866142b6565b91508190509392505050565b7f496e76616c6964206e6674206f776e6572000000000000000000000000000000600082015250565b600061432a601183613317565b9150614335826142f4565b602082019050919050565b600060208201905081810360008301526143598161431d565b9050919050565b7f41756374696f6e206e6f74207374617274656420796574000000000000000000600082015250565b6000614396601783613317565b91506143a182614360565b602082019050919050565b600060208201905081810360008301526143c581614389565b9050919050565b7f41756374696f6e2074696d65206e6f742079657420656e646564000000000000600082015250565b6000614402601a83613317565b915061440d826143cc565b602082019050919050565b60006020820190508181036000830152614431816143f5565b9050919050565b7f41756374696f6e20616c726561647920656e6465640000000000000000000000600082015250565b600061446e601583613317565b915061447982614438565b602082019050919050565b6000602082019050818103600083015261449d81614461565b9050919050565b7f48696768657374206269642063616e6f74206265203000000000000000000000600082015250565b60006144da601683613317565b91506144e5826144a4565b602082019050919050565b60006020820190508181036000830152614509816144cd565b9050919050565b7f19457468657265756d205369676e6564204d6573736167653a0a333200000000600082015250565b6000614546601c836142ab565b915061455182614510565b601c82019050919050565b6000819050919050565b614577614572826135b7565b61455c565b82525050565b600061458882614539565b91506145948284614566565b60208201915081905092915050565b7f45524337323155524953746f726167653a2055524920717565727920666f722060008201527f6e6f6e6578697374656e7420746f6b656e000000000000000000000000000000602082015250565b60006145ff603183613317565b915061460a826145a3565b604082019050919050565b6000602082019050818103600083015261462e816145f2565b9050919050565b60006146408261330c565b61464a81856142ab565b935061465a818560208601613328565b80840191505092915050565b60006146728285614635565b915061467e8284614635565b91508190509392505050565b7f56616c75652063616e6e6f742062652030000000000000000000000000000000600082015250565b60006146c0601183613317565b91506146cb8261468a565b602082019050919050565b600060208201905081810360008301526146ef816146b3565b9050919050565b7f496e76616c696420626173655072696365000000000000000000000000000000600082015250565b600061472c601183613317565b9150614737826146f6565b602082019050919050565b6000602082019050818103600083015261475b8161471f565b9050919050565b7f41756374696f6e2074696d6520656e6465640000000000000000000000000000600082015250565b6000614798601283613317565b91506147a382614762565b602082019050919050565b600060208201905081810360008301526147c78161478b565b9050919050565b7f41756374696f6e20656e64656400000000000000000000000000000000000000600082015250565b6000614804600d83613317565b915061480f826147ce565b602082019050919050565b60006020820190508181036000830152614833816147f7565b9050919050565b7f596f752063616e6e6f7420626964206f6e20796f7572206f776e204e46540000600082015250565b6000614870601e83613317565b915061487b8261483a565b602082019050919050565b6000602082019050818103600083015261489f81614863565b9050919050565b7f496e76616c69642070726576696f757348696768657374426964000000000000600082015250565b60006148dc601a83613317565b91506148e7826148a6565b602082019050919050565b6000602082019050818103600083015261490b816148cf565b9050919050565b7f4e6f7420656e6f7567682062616c616e63650000000000000000000000000000600082015250565b6000614948601283613317565b915061495382614912565b602082019050919050565b600060208201905081810360008301526149778161493b565b9050919050565b60006060820190506149936000830186613453565b6149a06020830185613569565b6149ad6040830184613569565b949350505050565b7f4f776e61626c653a206e6577206f776e657220697320746865207a65726f206160008201527f6464726573730000000000000000000000000000000000000000000000000000602082015250565b6000614a11602683613317565b9150614a1c826149b5565b604082019050919050565b60006020820190508181036000830152614a4081614a04565b9050919050565b7f4552433732313a206f70657261746f7220717565727920666f72206e6f6e657860008201527f697374656e7420746f6b656e0000000000000000000000000000000000000000602082015250565b6000614aa3602c83613317565b9150614aae82614a47565b604082019050919050565b60006020820190508181036000830152614ad281614a96565b9050919050565b7f4552433732313a207472616e736665722066726f6d20696e636f72726563742060008201527f6f776e6572000000000000000000000000000000000000000000000000000000602082015250565b6000614b35602583613317565b9150614b4082614ad9565b604082019050919050565b60006020820190508181036000830152614b6481614b28565b9050919050565b7f4552433732313a207472616e7366657220746f20746865207a65726f2061646460008201527f7265737300000000000000000000000000000000000000000000000000000000602082015250565b6000614bc7602483613317565b9150614bd282614b6b565b604082019050919050565b60006020820190508181036000830152614bf681614bba565b9050919050565b7f4e487b7100000000000000000000000000000000000000000000000000000000600052601160045260246000fd5b6000614c37826133be565b9150614c42836133be565b9250828203905081811115614c5a57614c59614bfd565b5b92915050565b6000614c6b826133be565b9150614c76836133be565b9250828201905080821115614c8e57614c8d614bfd565b5b92915050565b7f4552433732313a206d696e7420746f20746865207a65726f2061646472657373600082015250565b6000614cca602083613317565b9150614cd582614c94565b602082019050919050565b60006020820190508181036000830152614cf981614cbd565b9050919050565b7f4552433732313a20746f6b656e20616c7265616479206d696e74656400000000600082015250565b6000614d36601c83613317565b9150614d4182614d00565b602082019050919050565b60006020820190508181036000830152614d6581614d29565b9050919050565b7f45524337323155524953746f726167653a2055524920736574206f66206e6f6e60008201527f6578697374656e7420746f6b656e000000000000000000000000000000000000602082015250565b6000614dc8602e83613317565b9150614dd382614d6c565b604082019050919050565b60006020820190508181036000830152614df781614dbb565b9050919050565b60008190508160005260206000209050919050565b60006020601f8301049050919050565b600082821b905092915050565b600060088302614e607fffffffffffffffffffffffffffffffffffffffffffffffffffffffffffffffff82614e23565b614e6a8683614e23565b95508019841693508086168417925050509392505050565b6000819050919050565b6000614ea7614ea2614e9d846133be565b614e82565b6133be565b9050919050565b6000819050919050565b614ec183614e8c565b614ed5614ecd82614eae565b848454614e30565b825550505050565b600090565b614eea614edd565b614ef5818484614eb8565b505050565b5b81811015614f1957614f0e600082614ee2565b600181019050614efb565b5050565b601f821115614f5e57614f2f81614dfe565b614f3884614e13565b81016020851015614f47578190505b614f5b614f5385614e13565b830182614efa565b50505b505050565b600082821c905092915050565b6000614f8160001984600802614f63565b1980831691505092915050565b6000614f9a8383614f70565b9150826002028217905092915050565b614fb38261330c565b67ffffffffffffffff811115614fcc57614fcb6135f7565b5b614fd68254613bb6565b614fe1828285614f1d565b600060209050601f8311600181146150145760008415615002578287015190505b61500c8582614f8e565b865550615074565b601f19841661502286614dfe565b60005b8281101561504a57848901518255600182019150602085019450602081019050615025565b868310156150675784890151615063601f891682614f70565b8355505b6001600288020188555050505b505050505050565b7f4552433732313a20617070726f766520746f2063616c6c657200000000000000600082015250565b60006150b2601983613317565b91506150bd8261507c565b602082019050919050565b600060208201905081810360008301526150e1816150a5565b9050919050565b7f4552433732313a207472616e7366657220746f206e6f6e20455243373231526560008201527f63656976657220696d706c656d656e7465720000000000000000000000000000602082015250565b6000615144603283613317565b915061514f826150e8565b604082019050919050565b6000602082019050818103600083015261517381615137565b9050919050565b7f4552433732314d657461646174613a2055524920717565727920666f72206e6f60008201527f6e6578697374656e7420746f6b656e0000000000000000000000000000000000602082015250565b60006151d6602f83613317565b91506151e18261517a565b604082019050919050565b60006020820190508181036000830152615205816151c9565b9050919050565b7f4e487b7100000000000000000000000000000000000000000000000000000000600052602160045260246000fd5b7f45434453413a20696e76616c6964207369676e61747572650000000000000000600082015250565b6000615271601883613317565b915061527c8261523b565b602082019050919050565b600060208201905081810360008301526152a081615264565b9050919050565b7f45434453413a20696e76616c6964207369676e6174757265206c656e67746800600082015250565b60006152dd601f83613317565b91506152e8826152a7565b602082019050919050565b6000602082019050818103600083015261530c816152d0565b9050919050565b7f45434453413a20696e76616c6964207369676e6174757265202773272076616c60008201527f7565000000000000000000000000000000000000000000000000000000000000602082015250565b600061536f602283613317565b915061537a82615313565b604082019050919050565b6000602082019050818103600083015261539e81615362565b9050919050565b7f45434453413a20696e76616c6964207369676e6174757265202776272076616c60008201527f7565000000000000000000000000000000000000000000000000000000000000602082015250565b6000615401602283613317565b915061540c826153a5565b604082019050919050565b60006020820190508181036000830152615430816153f4565b9050919050565b600082825260208201905092915050565b600061545382614097565b61545d8185615437565b935061546d818560208601613328565b61547681613352565b840191505092915050565b60006080820190506154966000830187613453565b6154a36020830186613453565b6154b06040830185613569565b81810360608301526154c28184615448565b905095945050505050565b6000815190506154dc8161327d565b92915050565b6000602082840312156154f8576154f7613247565b5b6000615506848285016154cd565b91505092915050565b600061551a826133be565b91507fffffffffffffffffffffffffffffffffffffffffffffffffffffffffffffffff820361554c5761554b614bfd565b5b600182019050919050565b7f4e487b7100000000000000000000000000000000000000000000000000000000600052601260045260246000fd5b6000615591826133be565b915061559c836133be565b9250826155ac576155ab615557565b5b828204905092915050565b60006155c2826133be565b91506155cd836133be565b9250826155dd576155dc615557565b5b828206905092915050565b7f4e487b7100000000000000000000000000000000000000000000000000000000600052603260045260246000fd5b615620816135b7565b82525050565b600060ff82169050919050565b61563c81615626565b82525050565b60006080820190506156576000830187615617565b6156646020830186615633565b6156716040830185615617565b61567e6060830184615617565b9594505050505056fea264697066735822122030b60955f0ee08ce5a2e99eafa72ff57639c6b04ae8d3bdf3e5193277ccbdea164736f6c63430008110033",
  "linkReferences": {},
  "deployedLinkReferences": {}
}