{
  "_format": "hh-sol-artifact-1",
  "contractName": "LazyMinting",
  "sourceName": "contracts/LazyMinting.sol",
  "abi": [
    {
      "inputs": [],
      "stateMutability": "nonpayable",
      "type": "constructor"
    },
    {
      "anonymous": false,
      "inputs": [
        {
          "indexed": true,
          "internalType": "address",
          "name": "owner",
          "type": "address"
        },
        {
          "indexed": true,
          "internalType": "address",
          "name": "approved",
          "type": "address"
        },
        {
          "indexed": true,
          "internalType": "uint256",
          "name": "tokenId",
          "type": "uint256"
        }
      ],
      "name": "Approval",
      "type": "event"
    },
    {
      "anonymous": false,
      "inputs": [
        {
          "indexed": true,
          "internalType": "address",
          "name": "owner",
          "type": "address"
        },
        {
          "indexed": true,
          "internalType": "address",
          "name": "operator",
          "type": "address"
        },
        {
          "indexed": false,
          "internalType": "bool",
          "name": "approved",
          "type": "bool"
        }
      ],
      "name": "ApprovalForAll",
      "type": "event"
    },
    {
      "anonymous": false,
      "inputs": [
        {
          "indexed": true,
          "internalType": "uint256",
          "name": "tokenId",
          "type": "uint256"
        },
        {
          "indexed": true,
          "internalType": "string",
          "name": "tokenURI",
          "type": "string"
        },
        {
          "indexed": true,
          "internalType": "uint256",
          "name": "price",
          "type": "uint256"
        }
      ],
      "name": "Mint",
      "type": "event"
    },
    {
      "anonymous": false,
      "inputs": [
        {
          "indexed": true,
          "internalType": "uint256",
          "name": "_tokenId",
          "type": "uint256"
        },
        {
          "indexed": false,
          "internalType": "address",
          "name": "_bidder",
          "type": "address"
        },
        {
          "indexed": true,
          "internalType": "uint256",
          "name": "_bidAmount",
          "type": "uint256"
        },
        {
          "indexed": false,
          "internalType": "uint256",
          "name": "_startTime",
          "type": "uint256"
        },
        {
          "indexed": false,
          "internalType": "uint256",
          "name": "_endTime",
          "type": "uint256"
        }
      ],
      "name": "NftBidded",
      "type": "event"
    },
    {
      "anonymous": false,
      "inputs": [
        {
          "indexed": true,
          "internalType": "address",
          "name": "previousOwner",
          "type": "address"
        },
        {
          "indexed": true,
          "internalType": "address",
          "name": "newOwner",
          "type": "address"
        }
      ],
      "name": "OwnershipTransferred",
      "type": "event"
    },
    {
      "anonymous": false,
      "inputs": [
        {
          "indexed": true,
          "internalType": "address",
          "name": "from",
          "type": "address"
        },
        {
          "indexed": true,
          "internalType": "address",
          "name": "to",
          "type": "address"
        },
        {
          "indexed": true,
          "internalType": "uint256",
          "name": "tokenId",
          "type": "uint256"
        }
      ],
      "name": "Transfer",
      "type": "event"
    },
    {
      "inputs": [
        {
          "internalType": "address",
          "name": "to",
          "type": "address"
        },
        {
          "internalType": "uint256",
          "name": "tokenId",
          "type": "uint256"
        }
      ],
      "name": "approve",
      "outputs": [],
      "stateMutability": "nonpayable",
      "type": "function"
    },
    {
      "inputs": [
        {
          "internalType": "address",
          "name": "owner",
          "type": "address"
        }
      ],
      "name": "balanceOf",
      "outputs": [
        {
          "internalType": "uint256",
          "name": "",
          "type": "uint256"
        }
      ],
      "stateMutability": "view",
      "type": "function"
    },
    {
      "inputs": [
        {
          "internalType": "uint256",
          "name": "_tokenId",
          "type": "uint256"
        },
        {
          "internalType": "uint256",
          "name": "_startTime",
          "type": "uint256"
        },
        {
          "internalType": "uint256",
          "name": "_endTime",
          "type": "uint256"
        },
        {
          "internalType": "string",
          "name": "_tokenURI",
          "type": "string"
        },
        {
          "internalType": "bytes32",
          "name": "hash",
          "type": "bytes32"
        },
        {
          "internalType": "bytes",
          "name": "signature",
          "type": "bytes"
        }
      ],
      "name": "bidNFT",
      "outputs": [],
      "stateMutability": "payable",
      "type": "function"
    },
    {
      "inputs": [
        {
          "components": [
            {
              "internalType": "uint256",
              "name": "tokenId",
              "type": "uint256"
            },
            {
              "internalType": "uint256",
              "name": "price",
              "type": "uint256"
            },
            {
              "internalType": "string",
              "name": "tokenURI",
              "type": "string"
            }
          ],
          "internalType": "struct LazyMinting.SaleNFTVoucher",
          "name": "voucher",
          "type": "tuple"
        },
        {
          "internalType": "bytes32",
          "name": "hash",
          "type": "bytes32"
        },
        {
          "internalType": "bytes",
          "name": "signature",
          "type": "bytes"
        }
      ],
      "name": "buyNFT",
      "outputs": [],
      "stateMutability": "payable",
      "type": "function"
    },
    {
      "inputs": [
        {
          "internalType": "uint256",
          "name": "_tokenId",
          "type": "uint256"
        },
        {
          "internalType": "bytes32",
          "name": "hash",
          "type": "bytes32"
        },
        {
          "internalType": "bytes",
          "name": "signature",
          "type": "bytes"
        }
      ],
      "name": "claimNFT",
      "outputs": [],
      "stateMutability": "nonpayable",
      "type": "function"
    },
    {
      "inputs": [
        {
          "internalType": "uint256",
          "name": "tokenId",
          "type": "uint256"
        }
      ],
      "name": "getApproved",
      "outputs": [
        {
          "internalType": "address",
          "name": "",
          "type": "address"
        }
      ],
      "stateMutability": "view",
      "type": "function"
    },
    {
      "inputs": [
        {
          "internalType": "uint256",
          "name": "_tokenId",
          "type": "uint256"
        }
      ],
      "name": "getAuctionInfo",
      "outputs": [
        {
          "components": [
            {
              "internalType": "uint256",
              "name": "tokenId",
              "type": "uint256"
            },
            {
              "internalType": "uint256",
              "name": "basePrice",
              "type": "uint256"
            },
            {
              "internalType": "string",
              "name": "tokenURI",
              "type": "string"
            },
            {
              "internalType": "bool",
              "name": "isAuctionEnded",
              "type": "bool"
            },
            {
              "internalType": "uint256",
              "name": "startTime",
              "type": "uint256"
            },
            {
              "internalType": "uint256",
              "name": "endTime",
              "type": "uint256"
            },
            {
              "internalType": "address",
              "name": "highestBidder",
              "type": "address"
            },
            {
              "internalType": "uint256",
              "name": "highestBid",
              "type": "uint256"
            }
          ],
          "internalType": "struct LazyMinting.AuctionNFTVoucher",
          "name": "",
          "type": "tuple"
        }
      ],
      "stateMutability": "view",
      "type": "function"
    },
    {
      "inputs": [
        {
          "internalType": "address",
          "name": "owner",
          "type": "address"
        },
        {
          "internalType": "address",
          "name": "operator",
          "type": "address"
        }
      ],
      "name": "isApprovedForAll",
      "outputs": [
        {
          "internalType": "bool",
          "name": "",
          "type": "bool"
        }
      ],
      "stateMutability": "view",
      "type": "function"
    },
    {
      "inputs": [],
      "name": "name",
      "outputs": [
        {
          "internalType": "string",
          "name": "",
          "type": "string"
        }
      ],
      "stateMutability": "view",
      "type": "function"
    },
    {
      "inputs": [],
      "name": "owner",
      "outputs": [
        {
          "internalType": "address",
          "name": "",
          "type": "address"
        }
      ],
      "stateMutability": "view",
      "type": "function"
    },
    {
      "inputs": [
        {
          "internalType": "uint256",
          "name": "tokenId",
          "type": "uint256"
        }
      ],
      "name": "ownerOf",
      "outputs": [
        {
          "internalType": "address",
          "name": "",
          "type": "address"
        }
      ],
      "stateMutability": "view",
      "type": "function"
    },
    {
      "inputs": [],
      "name": "renounceOwnership",
      "outputs": [],
      "stateMutability": "nonpayable",
      "type": "function"
    },
    {
      "inputs": [
        {
          "internalType": "address",
          "name": "from",
          "type": "address"
        },
        {
          "internalType": "address",
          "name": "to",
          "type": "address"
        },
        {
          "internalType": "uint256",
          "name": "tokenId",
          "type": "uint256"
        }
      ],
      "name": "safeTransferFrom",
      "outputs": [],
      "stateMutability": "nonpayable",
      "type": "function"
    },
    {
      "inputs": [
        {
          "internalType": "address",
          "name": "from",
          "type": "address"
        },
        {
          "internalType": "address",
          "name": "to",
          "type": "address"
        },
        {
          "internalType": "uint256",
          "name": "tokenId",
          "type": "uint256"
        },
        {
          "internalType": "bytes",
          "name": "_data",
          "type": "bytes"
        }
      ],
      "name": "safeTransferFrom",
      "outputs": [],
      "stateMutability": "nonpayable",
      "type": "function"
    },
    {
      "inputs": [
        {
          "internalType": "address",
          "name": "operator",
          "type": "address"
        },
        {
          "internalType": "bool",
          "name": "approved",
          "type": "bool"
        }
      ],
      "name": "setApprovalForAll",
      "outputs": [],
      "stateMutability": "nonpayable",
      "type": "function"
    },
    {
      "inputs": [
        {
          "internalType": "bytes4",
          "name": "interfaceId",
          "type": "bytes4"
        }
      ],
      "name": "supportsInterface",
      "outputs": [
        {
          "internalType": "bool",
          "name": "",
          "type": "bool"
        }
      ],
      "stateMutability": "view",
      "type": "function"
    },
    {
      "inputs": [],
      "name": "symbol",
      "outputs": [
        {
          "internalType": "string",
          "name": "",
          "type": "string"
        }
      ],
      "stateMutability": "view",
      "type": "function"
    },
    {
      "inputs": [
        {
          "internalType": "uint256",
          "name": "tokenId",
          "type": "uint256"
        }
      ],
      "name": "tokenURI",
      "outputs": [
        {
          "internalType": "string",
          "name": "",
          "type": "string"
        }
      ],
      "stateMutability": "view",
      "type": "function"
    },
    {
      "inputs": [
        {
          "internalType": "address",
          "name": "from",
          "type": "address"
        },
        {
          "internalType": "address",
          "name": "to",
          "type": "address"
        },
        {
          "internalType": "uint256",
          "name": "tokenId",
          "type": "uint256"
        }
      ],
      "name": "transferFrom",
      "outputs": [],
      "stateMutability": "nonpayable",
      "type": "function"
    },
    {
      "inputs": [
        {
          "internalType": "address",
          "name": "newOwner",
          "type": "address"
        }
      ],
      "name": "transferOwnership",
      "outputs": [],
      "stateMutability": "nonpayable",
      "type": "function"
    }
  ],
  "bytecode": "0x60806040523480156200001157600080fd5b506040518060400160405280600581526020017f4d794e46540000000000000000000000000000000000000000000000000000008152506040518060400160405280600481526020017f4d4e46540000000000000000000000000000000000000000000000000000000081525081600090816200008f91906200041a565b508060019081620000a191906200041a565b505050620000c4620000b8620000d260201b60201c565b620000da60201b60201c565b600160088190555062000501565b600033905090565b6000600760009054906101000a900473ffffffffffffffffffffffffffffffffffffffff16905081600760006101000a81548173ffffffffffffffffffffffffffffffffffffffff021916908373ffffffffffffffffffffffffffffffffffffffff1602179055508173ffffffffffffffffffffffffffffffffffffffff168173ffffffffffffffffffffffffffffffffffffffff167f8be0079c531659141344cd1fd0a4f28419497f9722a3daafe3b4186f6b6457e060405160405180910390a35050565b600081519050919050565b7f4e487b7100000000000000000000000000000000000000000000000000000000600052604160045260246000fd5b7f4e487b7100000000000000000000000000000000000000000000000000000000600052602260045260246000fd5b600060028204905060018216806200022257607f821691505b602082108103620002385762000237620001da565b5b50919050565b60008190508160005260206000209050919050565b60006020601f8301049050919050565b600082821b905092915050565b600060088302620002a27fffffffffffffffffffffffffffffffffffffffffffffffffffffffffffffffff8262000263565b620002ae868362000263565b95508019841693508086168417925050509392505050565b6000819050919050565b6000819050919050565b6000620002fb620002f5620002ef84620002c6565b620002d0565b620002c6565b9050919050565b6000819050919050565b6200031783620002da565b6200032f620003268262000302565b84845462000270565b825550505050565b600090565b6200034662000337565b620003538184846200030c565b505050565b5b818110156200037b576200036f6000826200033c565b60018101905062000359565b5050565b601f821115620003ca5762000394816200023e565b6200039f8462000253565b81016020851015620003af578190505b620003c7620003be8562000253565b83018262000358565b50505b505050565b600082821c905092915050565b6000620003ef60001984600802620003cf565b1980831691505092915050565b60006200040a8383620003dc565b9150826002028217905092915050565b6200042582620001a0565b67ffffffffffffffff811115620004415762000440620001ab565b5b6200044d825462000209565b6200045a8282856200037f565b600060209050601f8311600181146200049257600084156200047d578287015190505b620004898582620003fc565b865550620004f9565b601f198416620004a2866200023e565b60005b82811015620004cc57848901518255600182019150602085019450602081019050620004a5565b86831015620004ec5784890151620004e8601f891682620003dc565b8355505b6001600288020188555050505b505050505050565b6158d680620005116000396000f3fe60806040526004361061011f5760003560e01c806389077a79116100a0578063b88d4fde11610064578063b88d4fde146103b5578063c87b56dd146103de578063e985e9c51461041b578063f2fde38b14610458578063fc3fc4ed146104815761011f565b806389077a79146102f15780638da5cb5b1461030d57806395d89b411461033857806399c2d40914610363578063a22cb4651461038c5761011f565b806342842e0e116100e757806342842e0e1461021b5780636352211e146102445780636d599f541461028157806370a082311461029d578063715018a6146102da5761011f565b806301ffc9a71461012457806306fdde0314610161578063081812fc1461018c578063095ea7b3146101c957806323b872dd146101f2575b600080fd5b34801561013057600080fd5b5061014b600480360381019061014691906133e3565b6104be565b604051610158919061342b565b60405180910390f35b34801561016d57600080fd5b506101766104d0565b60405161018391906134d6565b60405180910390f35b34801561019857600080fd5b506101b360048036038101906101ae919061352e565b610562565b6040516101c0919061359c565b60405180910390f35b3480156101d557600080fd5b506101f060048036038101906101eb91906135e3565b6105e7565b005b3480156101fe57600080fd5b5061021960048036038101906102149190613623565b6106fe565b005b34801561022757600080fd5b50610242600480360381019061023d9190613623565b61075e565b005b34801561025057600080fd5b5061026b6004803603810190610266919061352e565b61077e565b604051610278919061359c565b60405180910390f35b61029b60048036038101906102969190613882565b61082f565b005b3480156102a957600080fd5b506102c460048036038101906102bf9190613947565b610fa7565b6040516102d19190613983565b60405180910390f35b3480156102e657600080fd5b506102ef61105e565b005b61030b600480360381019061030691906139c2565b6110e6565b005b34801561031957600080fd5b5061032261150b565b60405161032f919061359c565b60405180910390f35b34801561034457600080fd5b5061034d611535565b60405161035a91906134d6565b60405180910390f35b34801561036f57600080fd5b5061038a60048036038101906103859190613a4d565b6115c7565b005b34801561039857600080fd5b506103b360048036038101906103ae9190613ae8565b611be2565b005b3480156103c157600080fd5b506103dc60048036038101906103d79190613b28565b611bf8565b005b3480156103ea57600080fd5b506104056004803603810190610400919061352e565b611c5a565b60405161041291906134d6565b60405180910390f35b34801561042757600080fd5b50610442600480360381019061043d9190613bab565b611dab565b60405161044f919061342b565b60405180910390f35b34801561046457600080fd5b5061047f600480360381019061047a9190613947565b611e3f565b005b34801561048d57600080fd5b506104a860048036038101906104a3919061352e565b611f36565b6040516104b59190613d12565b60405180910390f35b60006104c982612099565b9050919050565b6060600080546104df90613d63565b80601f016020809104026020016040519081016040528092919081815260200182805461050b90613d63565b80156105585780601f1061052d57610100808354040283529160200191610558565b820191906000526020600020905b81548152906001019060200180831161053b57829003601f168201915b5050505050905090565b600061056d8261217b565b6105ac576040517f08c379a00000000000000000000000000000000000000000000000000000000081526004016105a390613e06565b60405180910390fd5b6004600083815260200190815260200160002060009054906101000a900473ffffffffffffffffffffffffffffffffffffffff169050919050565b60006105f28261077e565b90508073ffffffffffffffffffffffffffffffffffffffff168373ffffffffffffffffffffffffffffffffffffffff1603610662576040517f08c379a000000000000000000000000000000000000000000000000000000000815260040161065990613e98565b60405180910390fd5b8073ffffffffffffffffffffffffffffffffffffffff166106816121e7565b73ffffffffffffffffffffffffffffffffffffffff1614806106b057506106af816106aa6121e7565b611dab565b5b6106ef576040517f08c379a00000000000000000000000000000000000000000000000000000000081526004016106e690613f2a565b60405180910390fd5b6106f983836121ef565b505050565b61070f6107096121e7565b826122a8565b61074e576040517f08c379a000000000000000000000000000000000000000000000000000000000815260040161074590613fbc565b60405180910390fd5b610759838383612386565b505050565b61077983838360405180602001604052806000815250611bf8565b505050565b6000806002600084815260200190815260200160002060009054906101000a900473ffffffffffffffffffffffffffffffffffffffff169050600073ffffffffffffffffffffffffffffffffffffffff168173ffffffffffffffffffffffffffffffffffffffff1603610826576040517f08c379a000000000000000000000000000000000000000000000000000000000815260040161081d9061404e565b60405180910390fd5b80915050919050565b600260085403610874576040517f08c379a000000000000000000000000000000000000000000000000000000000815260040161086b906140ba565b60405180910390fd5b600260088190555060003411801561088c5750600085115b80156108985750600084115b6108d7576040517f08c379a00000000000000000000000000000000000000000000000000000000081526004016108ce90614126565b60405180910390fd5b600083511161091b576040517f08c379a000000000000000000000000000000000000000000000000000000000815260040161091290614192565b60405180910390fd5b61092361150b565b73ffffffffffffffffffffffffffffffffffffffff1661094383836125ec565b73ffffffffffffffffffffffffffffffffffffffff1614610999576040517f08c379a0000000000000000000000000000000000000000000000000000000008152600401610990906141fe565b60405180910390fd5b600b816040516109a99190614265565b908152602001604051809103902060009054906101000a900460ff1615610a05576040517f08c379a00000000000000000000000000000000000000000000000000000000081526004016109fc906142c8565b60405180910390fd5b84421015610a48576040517f08c379a0000000000000000000000000000000000000000000000000000000008152600401610a3f90614334565b60405180910390fd5b600c600087815260200190815260200160002060010154341015610aa1576040517f08c379a0000000000000000000000000000000000000000000000000000000008152600401610a98906143a0565b60405180910390fd5b83421115610ae4576040517f08c379a0000000000000000000000000000000000000000000000000000000008152600401610adb9061440c565b60405180910390fd5b600c600087815260200190815260200160002060030160009054906101000a900460ff1615610b48576040517f08c379a0000000000000000000000000000000000000000000000000000000008152600401610b3f90614478565b60405180910390fd5b3373ffffffffffffffffffffffffffffffffffffffff16600a60009054906101000a900473ffffffffffffffffffffffffffffffffffffffff1673ffffffffffffffffffffffffffffffffffffffff1603610bd8576040517f08c379a0000000000000000000000000000000000000000000000000000000008152600401610bcf906144e4565b60405180910390fd5b6000600c6000888152602001908152602001600020600701549050803411610c35576040517f08c379a0000000000000000000000000000000000000000000000000000000008152600401610c2c90614550565b60405180910390fd5b610c3f83836125ec565b600a60006101000a81548173ffffffffffffffffffffffffffffffffffffffff021916908373ffffffffffffffffffffffffffffffffffffffff1602179055506000600c600089815260200190815260200160002060060160009054906101000a900473ffffffffffffffffffffffffffffffffffffffff16905086600c60008a81526020019081526020016000206004018190555085600c60008a81526020019081526020016000206005018190555084600c60008a81526020019081526020016000206002019081610d13919061471c565b5081341115610f9557600d60003373ffffffffffffffffffffffffffffffffffffffff1673ffffffffffffffffffffffffffffffffffffffff168152602001908152602001600020600089815260200190815260200160002060009054906101000a900460ff16610de8576001600d60003373ffffffffffffffffffffffffffffffffffffffff1673ffffffffffffffffffffffffffffffffffffffff16815260200190815260200160002060008a815260200190815260200160002060006101000a81548160ff0219169083151502179055505b600073ffffffffffffffffffffffffffffffffffffffff168173ffffffffffffffffffffffffffffffffffffffff1614158015610e26575060008214155b15610eb65781471015610e6e576040517f08c379a0000000000000000000000000000000000000000000000000000000008152600401610e659061483a565b60405180910390fd5b8073ffffffffffffffffffffffffffffffffffffffff166108fc839081150290604051600060405180830381858888f19350505050158015610eb4573d6000803e3d6000fd5b505b33600c60008a815260200190815260200160002060060160006101000a81548173ffffffffffffffffffffffffffffffffffffffff021916908373ffffffffffffffffffffffffffffffffffffffff16021790555034600c60008a81526020019081526020016000206007018190555087600c60008a81526020019081526020016000206000018190555034887ff42549a14dcb5e213fada254ec437a209f7eeeee98b293fe8855190d3dd613153342600c60008e815260200190815260200160002060050154604051610f8c9392919061485a565b60405180910390a35b50506001600881905550505050505050565b60008073ffffffffffffffffffffffffffffffffffffffff168273ffffffffffffffffffffffffffffffffffffffff1603611017576040517f08c379a000000000000000000000000000000000000000000000000000000000815260040161100e90614903565b60405180910390fd5b600360008373ffffffffffffffffffffffffffffffffffffffff1673ffffffffffffffffffffffffffffffffffffffff168152602001908152602001600020549050919050565b6110666121e7565b73ffffffffffffffffffffffffffffffffffffffff1661108461150b565b73ffffffffffffffffffffffffffffffffffffffff16146110da576040517f08c379a00000000000000000000000000000000000000000000000000000000081526004016110d19061496f565b60405180910390fd5b6110e4600061262b565b565b60026008540361112b576040517f08c379a0000000000000000000000000000000000000000000000000000000008152600401611122906140ba565b60405180910390fd5b600260088190555061113b61150b565b73ffffffffffffffffffffffffffffffffffffffff1661115b83836125ec565b73ffffffffffffffffffffffffffffffffffffffff16146111b1576040517f08c379a00000000000000000000000000000000000000000000000000000000081526004016111a8906141fe565b60405180910390fd5b600b816040516111c19190614265565b908152602001604051809103902060009054906101000a900460ff161561121d576040517f08c379a0000000000000000000000000000000000000000000000000000000008152600401611214906142c8565b60405180910390fd5b61122782826125ec565b600a60006101000a81548173ffffffffffffffffffffffffffffffffffffffff021916908373ffffffffffffffffffffffffffffffffffffffff1602179055503373ffffffffffffffffffffffffffffffffffffffff16600a60009054906101000a900473ffffffffffffffffffffffffffffffffffffffff1673ffffffffffffffffffffffffffffffffffffffff16036112f7576040517f08c379a00000000000000000000000000000000000000000000000000000000081526004016112ee906149db565b60405180910390fd5b8260200135341461133d576040517f08c379a000000000000000000000000000000000000000000000000000000000815260040161133490614a47565b60405180910390fd5b61136d600a60009054906101000a900473ffffffffffffffffffffffffffffffffffffffff1684600001356126f1565b6113cd83600001358480604001906113859190614a76565b8080601f016020809104026020016040519081016040528093929190818152602001838380828437600081840152601f19601f820116905080830192505050505050506128ca565b6113fe600a60009054906101000a900473ffffffffffffffffffffffffffffffffffffffff16338560000135612386565b600a60009054906101000a900473ffffffffffffffffffffffffffffffffffffffff1673ffffffffffffffffffffffffffffffffffffffff166108fc84602001359081150290604051600060405180830381858888f1935050505015801561146a573d6000803e3d6000fd5b506001600b8260405161147d9190614265565b908152602001604051809103902060006101000a81548160ff02191690831515021790555082602001358380604001906114b79190614a76565b6040516114c5929190614b09565b604051809103902084600001357f6dcf024ef3fe3b4d177c8b8342bd25d3b5d32a4c92e6e8a499785a5329bb9dfe60405160405180910390a46001600881905550505050565b6000600760009054906101000a900473ffffffffffffffffffffffffffffffffffffffff16905090565b60606001805461154490613d63565b80601f016020809104026020016040519081016040528092919081815260200182805461157090613d63565b80156115bd5780601f10611592576101008083540402835291602001916115bd565b820191906000526020600020905b8154815290600101906020018083116115a057829003601f168201915b5050505050905090565b60026008540361160c576040517f08c379a0000000000000000000000000000000000000000000000000000000008152600401611603906140ba565b60405180910390fd5b600260088190555061161c61150b565b73ffffffffffffffffffffffffffffffffffffffff1661163c83836125ec565b73ffffffffffffffffffffffffffffffffffffffff1614611692576040517f08c379a0000000000000000000000000000000000000000000000000000000008152600401611689906141fe565b60405180910390fd5b600b816040516116a29190614265565b908152602001604051809103902060009054906101000a900460ff16156116fe576040517f08c379a00000000000000000000000000000000000000000000000000000000081526004016116f5906142c8565b60405180910390fd5b600c600084815260200190815260200160002060040154421015611757576040517f08c379a000000000000000000000000000000000000000000000000000000000815260040161174e90614334565b60405180910390fd5b600c6000848152602001908152602001600020600501544210156117b0576040517f08c379a00000000000000000000000000000000000000000000000000000000081526004016117a790614b6e565b60405180910390fd5b3373ffffffffffffffffffffffffffffffffffffffff16600c600085815260200190815260200160002060060160009054906101000a900473ffffffffffffffffffffffffffffffffffffffff1673ffffffffffffffffffffffffffffffffffffffff1614611854576040517f08c379a000000000000000000000000000000000000000000000000000000000815260040161184b90614bda565b60405180910390fd5b600c600084815260200190815260200160002060030160009054906101000a900460ff16156118b8576040517f08c379a00000000000000000000000000000000000000000000000000000000081526004016118af90614c46565b60405180910390fd5b6000600c60008581526020019081526020016000206007015403611911576040517f08c379a000000000000000000000000000000000000000000000000000000000815260040161190890614cb2565b60405180910390fd5b61191b82826125ec565b600a60006101000a81548173ffffffffffffffffffffffffffffffffffffffff021916908373ffffffffffffffffffffffffffffffffffffffff16021790555061199d600a60009054906101000a900473ffffffffffffffffffffffffffffffffffffffff16600c6000868152602001908152602001600020600001546126f1565b611a5b600c600085815260200190815260200160002060000154600c600086815260200190815260200160002060020180546119d890613d63565b80601f0160208091040260200160405190810160405280929190818152602001828054611a0490613d63565b8015611a515780601f10611a2657610100808354040283529160200191611a51565b820191906000526020600020905b815481529060010190602001808311611a3457829003601f168201915b50505050506128ca565b611ad4600a60009054906101000a900473ffffffffffffffffffffffffffffffffffffffff16600c600086815260200190815260200160002060060160009054906101000a900473ffffffffffffffffffffffffffffffffffffffff16600c600087815260200190815260200160002060000154612386565b600a60009054906101000a900473ffffffffffffffffffffffffffffffffffffffff1673ffffffffffffffffffffffffffffffffffffffff166108fc600c6000868152602001908152602001600020600701549081150290604051600060405180830381858888f19350505050158015611b52573d6000803e3d6000fd5b506001600c600085815260200190815260200160002060030160006101000a81548160ff0219169083151502179055506001600b82604051611b949190614265565b908152602001604051809103902060006101000a81548160ff0219169083151502179055506000600c6000858152602001908152602001600020600101819055506001600881905550505050565b611bf4611bed6121e7565b8383612937565b5050565b611c09611c036121e7565b836122a8565b611c48576040517f08c379a0000000000000000000000000000000000000000000000000000000008152600401611c3f90613fbc565b60405180910390fd5b611c5484848484612aa3565b50505050565b6060611c658261217b565b611ca4576040517f08c379a0000000000000000000000000000000000000000000000000000000008152600401611c9b90614d44565b60405180910390fd5b6000600660008481526020019081526020016000208054611cc490613d63565b80601f0160208091040260200160405190810160405280929190818152602001828054611cf090613d63565b8015611d3d5780601f10611d1257610100808354040283529160200191611d3d565b820191906000526020600020905b815481529060010190602001808311611d2057829003601f168201915b505050505090506000611d4e612aff565b90506000815103611d63578192505050611da6565b600082511115611d98578082604051602001611d80929190614d95565b60405160208183030381529060405292505050611da6565b611da184612b16565b925050505b919050565b6000600560008473ffffffffffffffffffffffffffffffffffffffff1673ffffffffffffffffffffffffffffffffffffffff16815260200190815260200160002060008373ffffffffffffffffffffffffffffffffffffffff1673ffffffffffffffffffffffffffffffffffffffff16815260200190815260200160002060009054906101000a900460ff16905092915050565b611e476121e7565b73ffffffffffffffffffffffffffffffffffffffff16611e6561150b565b73ffffffffffffffffffffffffffffffffffffffff1614611ebb576040517f08c379a0000000000000000000000000000000000000000000000000000000008152600401611eb29061496f565b60405180910390fd5b600073ffffffffffffffffffffffffffffffffffffffff168173ffffffffffffffffffffffffffffffffffffffff1603611f2a576040517f08c379a0000000000000000000000000000000000000000000000000000000008152600401611f2190614e2b565b60405180910390fd5b611f338161262b565b50565b611f3e61331a565b600c6000838152602001908152602001600020604051806101000160405290816000820154815260200160018201548152602001600282018054611f8190613d63565b80601f0160208091040260200160405190810160405280929190818152602001828054611fad90613d63565b8015611ffa5780601f10611fcf57610100808354040283529160200191611ffa565b820191906000526020600020905b815481529060010190602001808311611fdd57829003601f168201915b505050505081526020016003820160009054906101000a900460ff1615151515815260200160048201548152602001600582015481526020016006820160009054906101000a900473ffffffffffffffffffffffffffffffffffffffff1673ffffffffffffffffffffffffffffffffffffffff1673ffffffffffffffffffffffffffffffffffffffff1681526020016007820154815250509050919050565b60007f80ac58cd000000000000000000000000000000000000000000000000000000007bffffffffffffffffffffffffffffffffffffffffffffffffffffffff1916827bffffffffffffffffffffffffffffffffffffffffffffffffffffffff1916148061216457507f5b5e139f000000000000000000000000000000000000000000000000000000007bffffffffffffffffffffffffffffffffffffffffffffffffffffffff1916827bffffffffffffffffffffffffffffffffffffffffffffffffffffffff1916145b80612174575061217382612bbd565b5b9050919050565b60008073ffffffffffffffffffffffffffffffffffffffff166002600084815260200190815260200160002060009054906101000a900473ffffffffffffffffffffffffffffffffffffffff1673ffffffffffffffffffffffffffffffffffffffff1614159050919050565b600033905090565b816004600083815260200190815260200160002060006101000a81548173ffffffffffffffffffffffffffffffffffffffff021916908373ffffffffffffffffffffffffffffffffffffffff160217905550808273ffffffffffffffffffffffffffffffffffffffff166122628361077e565b73ffffffffffffffffffffffffffffffffffffffff167f8c5be1e5ebec7d5bd14f71427d1e84f3dd0314c0f7b2291e5b200ac8c7c3b92560405160405180910390a45050565b60006122b38261217b565b6122f2576040517f08c379a00000000000000000000000000000000000000000000000000000000081526004016122e990614ebd565b60405180910390fd5b60006122fd8361077e565b90508073ffffffffffffffffffffffffffffffffffffffff168473ffffffffffffffffffffffffffffffffffffffff16148061233f575061233e8185611dab565b5b8061237d57508373ffffffffffffffffffffffffffffffffffffffff1661236584610562565b73ffffffffffffffffffffffffffffffffffffffff16145b91505092915050565b8273ffffffffffffffffffffffffffffffffffffffff166123a68261077e565b73ffffffffffffffffffffffffffffffffffffffff16146123fc576040517f08c379a00000000000000000000000000000000000000000000000000000000081526004016123f390614f4f565b60405180910390fd5b600073ffffffffffffffffffffffffffffffffffffffff168273ffffffffffffffffffffffffffffffffffffffff160361246b576040517f08c379a000000000000000000000000000000000000000000000000000000000815260040161246290614fe1565b60405180910390fd5b612476838383612c27565b6124816000826121ef565b6001600360008573ffffffffffffffffffffffffffffffffffffffff1673ffffffffffffffffffffffffffffffffffffffff16815260200190815260200160002060008282546124d19190615030565b925050819055506001600360008473ffffffffffffffffffffffffffffffffffffffff1673ffffffffffffffffffffffffffffffffffffffff16815260200190815260200160002060008282546125289190615064565b92505081905550816002600083815260200190815260200160002060006101000a81548173ffffffffffffffffffffffffffffffffffffffff021916908373ffffffffffffffffffffffffffffffffffffffff160217905550808273ffffffffffffffffffffffffffffffffffffffff168473ffffffffffffffffffffffffffffffffffffffff167fddf252ad1be2c89b69c2b068fc378daa952ba7f163c4a11628f55a4df523b3ef60405160405180910390a46125e7838383612c2c565b505050565b600080836040516020016126009190615105565b6040516020818303038152906040528051906020012090506126228184612c31565b91505092915050565b6000600760009054906101000a900473ffffffffffffffffffffffffffffffffffffffff16905081600760006101000a81548173ffffffffffffffffffffffffffffffffffffffff021916908373ffffffffffffffffffffffffffffffffffffffff1602179055508173ffffffffffffffffffffffffffffffffffffffff168173ffffffffffffffffffffffffffffffffffffffff167f8be0079c531659141344cd1fd0a4f28419497f9722a3daafe3b4186f6b6457e060405160405180910390a35050565b600073ffffffffffffffffffffffffffffffffffffffff168273ffffffffffffffffffffffffffffffffffffffff1603612760576040517f08c379a000000000000000000000000000000000000000000000000000000000815260040161275790615177565b60405180910390fd5b6127698161217b565b156127a9576040517f08c379a00000000000000000000000000000000000000000000000000000000081526004016127a0906151e3565b60405180910390fd5b6127b560008383612c27565b6001600360008473ffffffffffffffffffffffffffffffffffffffff1673ffffffffffffffffffffffffffffffffffffffff16815260200190815260200160002060008282546128059190615064565b92505081905550816002600083815260200190815260200160002060006101000a81548173ffffffffffffffffffffffffffffffffffffffff021916908373ffffffffffffffffffffffffffffffffffffffff160217905550808273ffffffffffffffffffffffffffffffffffffffff16600073ffffffffffffffffffffffffffffffffffffffff167fddf252ad1be2c89b69c2b068fc378daa952ba7f163c4a11628f55a4df523b3ef60405160405180910390a46128c660008383612c2c565b5050565b6128d38261217b565b612912576040517f08c379a000000000000000000000000000000000000000000000000000000000815260040161290990615275565b60405180910390fd5b80600660008481526020019081526020016000209081612932919061471c565b505050565b8173ffffffffffffffffffffffffffffffffffffffff168373ffffffffffffffffffffffffffffffffffffffff16036129a5576040517f08c379a000000000000000000000000000000000000000000000000000000000815260040161299c906152e1565b60405180910390fd5b80600560008573ffffffffffffffffffffffffffffffffffffffff1673ffffffffffffffffffffffffffffffffffffffff16815260200190815260200160002060008473ffffffffffffffffffffffffffffffffffffffff1673ffffffffffffffffffffffffffffffffffffffff16815260200190815260200160002060006101000a81548160ff0219169083151502179055508173ffffffffffffffffffffffffffffffffffffffff168373ffffffffffffffffffffffffffffffffffffffff167f17307eab39ab6107e8899845ad3d59bd9653f200f220920489ca2b5937696c3183604051612a96919061342b565b60405180910390a3505050565b612aae848484612386565b612aba84848484612c58565b612af9576040517f08c379a0000000000000000000000000000000000000000000000000000000008152600401612af090615373565b60405180910390fd5b50505050565b606060405180602001604052806000815250905090565b6060612b218261217b565b612b60576040517f08c379a0000000000000000000000000000000000000000000000000000000008152600401612b5790615405565b60405180910390fd5b6000612b6a612aff565b90506000815111612b8a5760405180602001604052806000815250612bb5565b80612b9484612ddf565b604051602001612ba5929190614d95565b6040516020818303038152906040525b915050919050565b60007f01ffc9a7000000000000000000000000000000000000000000000000000000007bffffffffffffffffffffffffffffffffffffffffffffffffffffffff1916827bffffffffffffffffffffffffffffffffffffffffffffffffffffffff1916149050919050565b505050565b505050565b6000806000612c408585612f3f565b91509150612c4d81612fc0565b819250505092915050565b6000612c798473ffffffffffffffffffffffffffffffffffffffff1661318c565b15612dd2578373ffffffffffffffffffffffffffffffffffffffff1663150b7a02612ca26121e7565b8786866040518563ffffffff1660e01b8152600401612cc4949392919061546f565b6020604051808303816000875af1925050508015612d0057506040513d601f19601f82011682018060405250810190612cfd91906154d0565b60015b612d82573d8060008114612d30576040519150601f19603f3d011682016040523d82523d6000602084013e612d35565b606091505b506000815103612d7a576040517f08c379a0000000000000000000000000000000000000000000000000000000008152600401612d7190615373565b60405180910390fd5b805181602001fd5b63150b7a0260e01b7bffffffffffffffffffffffffffffffffffffffffffffffffffffffff1916817bffffffffffffffffffffffffffffffffffffffffffffffffffffffff191614915050612dd7565b600190505b949350505050565b606060008203612e26576040518060400160405280600181526020017f30000000000000000000000000000000000000000000000000000000000000008152509050612f3a565b600082905060005b60008214612e58578080612e41906154fd565b915050600a82612e519190615574565b9150612e2e565b60008167ffffffffffffffff811115612e7457612e73613680565b5b6040519080825280601f01601f191660200182016040528015612ea65781602001600182028036833780820191505090505b5090505b60008514612f3357600182612ebf9190615030565b9150600a85612ece91906155a5565b6030612eda9190615064565b60f81b818381518110612ef057612eef6155d6565b5b60200101907effffffffffffffffffffffffffffffffffffffffffffffffffffffffffffff1916908160001a905350600a85612f2c9190615574565b9450612eaa565b8093505050505b919050565b6000806041835103612f805760008060006020860151925060408601519150606086015160001a9050612f74878285856131af565b94509450505050612fb9565b6040835103612fb0576000806020850151915060408501519050612fa58683836132bb565b935093505050612fb9565b60006002915091505b9250929050565b60006004811115612fd457612fd3615605565b5b816004811115612fe757612fe6615605565b5b0315613189576001600481111561300157613000615605565b5b81600481111561301457613013615605565b5b03613054576040517f08c379a000000000000000000000000000000000000000000000000000000000815260040161304b90615680565b60405180910390fd5b6002600481111561306857613067615605565b5b81600481111561307b5761307a615605565b5b036130bb576040517f08c379a00000000000000000000000000000000000000000000000000000000081526004016130b2906156ec565b60405180910390fd5b600360048111156130cf576130ce615605565b5b8160048111156130e2576130e1615605565b5b03613122576040517f08c379a00000000000000000000000000000000000000000000000000000000081526004016131199061577e565b60405180910390fd5b60048081111561313557613134615605565b5b81600481111561314857613147615605565b5b03613188576040517f08c379a000000000000000000000000000000000000000000000000000000000815260040161317f90615810565b60405180910390fd5b5b50565b6000808273ffffffffffffffffffffffffffffffffffffffff163b119050919050565b6000807f7fffffffffffffffffffffffffffffff5d576e7357a4501ddfe92f46681b20a08360001c11156131ea5760006003915091506132b2565b601b8560ff16141580156132025750601c8560ff1614155b156132145760006004915091506132b2565b600060018787878760405160008152602001604052604051613239949392919061585b565b6020604051602081039080840390855afa15801561325b573d6000803e3d6000fd5b505050602060405103519050600073ffffffffffffffffffffffffffffffffffffffff168173ffffffffffffffffffffffffffffffffffffffff16036132a9576000600192509250506132b2565b80600092509250505b94509492505050565b60008060007f7fffffffffffffffffffffffffffffffffffffffffffffffffffffffffffffff60001b841690506000601b60ff8660001c901c6132fe9190615064565b905061330c878288856131af565b935093505050935093915050565b6040518061010001604052806000815260200160008152602001606081526020016000151581526020016000815260200160008152602001600073ffffffffffffffffffffffffffffffffffffffff168152602001600081525090565b6000604051905090565b600080fd5b600080fd5b60007fffffffff0000000000000000000000000000000000000000000000000000000082169050919050565b6133c08161338b565b81146133cb57600080fd5b50565b6000813590506133dd816133b7565b92915050565b6000602082840312156133f9576133f8613381565b5b6000613407848285016133ce565b91505092915050565b60008115159050919050565b61342581613410565b82525050565b6000602082019050613440600083018461341c565b92915050565b600081519050919050565b600082825260208201905092915050565b60005b83811015613480578082015181840152602081019050613465565b60008484015250505050565b6000601f19601f8301169050919050565b60006134a882613446565b6134b28185613451565b93506134c2818560208601613462565b6134cb8161348c565b840191505092915050565b600060208201905081810360008301526134f0818461349d565b905092915050565b6000819050919050565b61350b816134f8565b811461351657600080fd5b50565b60008135905061352881613502565b92915050565b60006020828403121561354457613543613381565b5b600061355284828501613519565b91505092915050565b600073ffffffffffffffffffffffffffffffffffffffff82169050919050565b60006135868261355b565b9050919050565b6135968161357b565b82525050565b60006020820190506135b1600083018461358d565b92915050565b6135c08161357b565b81146135cb57600080fd5b50565b6000813590506135dd816135b7565b92915050565b600080604083850312156135fa576135f9613381565b5b6000613608858286016135ce565b925050602061361985828601613519565b9150509250929050565b60008060006060848603121561363c5761363b613381565b5b600061364a868287016135ce565b935050602061365b868287016135ce565b925050604061366c86828701613519565b9150509250925092565b600080fd5b600080fd5b7f4e487b7100000000000000000000000000000000000000000000000000000000600052604160045260246000fd5b6136b88261348c565b810181811067ffffffffffffffff821117156136d7576136d6613680565b5b80604052505050565b60006136ea613377565b90506136f682826136af565b919050565b600067ffffffffffffffff82111561371657613715613680565b5b61371f8261348c565b9050602081019050919050565b82818337600083830152505050565b600061374e613749846136fb565b6136e0565b90508281526020810184848401111561376a5761376961367b565b5b61377584828561372c565b509392505050565b600082601f83011261379257613791613676565b5b81356137a284826020860161373b565b91505092915050565b6000819050919050565b6137be816137ab565b81146137c957600080fd5b50565b6000813590506137db816137b5565b92915050565b600067ffffffffffffffff8211156137fc576137fb613680565b5b6138058261348c565b9050602081019050919050565b6000613825613820846137e1565b6136e0565b9050828152602081018484840111156138415761384061367b565b5b61384c84828561372c565b509392505050565b600082601f83011261386957613868613676565b5b8135613879848260208601613812565b91505092915050565b60008060008060008060c0878903121561389f5761389e613381565b5b60006138ad89828a01613519565b96505060206138be89828a01613519565b95505060406138cf89828a01613519565b945050606087013567ffffffffffffffff8111156138f0576138ef613386565b5b6138fc89828a0161377d565b935050608061390d89828a016137cc565b92505060a087013567ffffffffffffffff81111561392e5761392d613386565b5b61393a89828a01613854565b9150509295509295509295565b60006020828403121561395d5761395c613381565b5b600061396b848285016135ce565b91505092915050565b61397d816134f8565b82525050565b60006020820190506139986000830184613974565b92915050565b600080fd5b6000606082840312156139b9576139b861399e565b5b81905092915050565b6000806000606084860312156139db576139da613381565b5b600084013567ffffffffffffffff8111156139f9576139f8613386565b5b613a05868287016139a3565b9350506020613a16868287016137cc565b925050604084013567ffffffffffffffff811115613a3757613a36613386565b5b613a4386828701613854565b9150509250925092565b600080600060608486031215613a6657613a65613381565b5b6000613a7486828701613519565b9350506020613a85868287016137cc565b925050604084013567ffffffffffffffff811115613aa657613aa5613386565b5b613ab286828701613854565b9150509250925092565b613ac581613410565b8114613ad057600080fd5b50565b600081359050613ae281613abc565b92915050565b60008060408385031215613aff57613afe613381565b5b6000613b0d858286016135ce565b9250506020613b1e85828601613ad3565b9150509250929050565b60008060008060808587031215613b4257613b41613381565b5b6000613b50878288016135ce565b9450506020613b61878288016135ce565b9350506040613b7287828801613519565b925050606085013567ffffffffffffffff811115613b9357613b92613386565b5b613b9f87828801613854565b91505092959194509250565b60008060408385031215613bc257613bc1613381565b5b6000613bd0858286016135ce565b9250506020613be1858286016135ce565b9150509250929050565b613bf4816134f8565b82525050565b600082825260208201905092915050565b6000613c1682613446565b613c208185613bfa565b9350613c30818560208601613462565b613c398161348c565b840191505092915050565b613c4d81613410565b82525050565b613c5c8161357b565b82525050565b600061010083016000830151613c7b6000860182613beb565b506020830151613c8e6020860182613beb565b5060408301518482036040860152613ca68282613c0b565b9150506060830151613cbb6060860182613c44565b506080830151613cce6080860182613beb565b5060a0830151613ce160a0860182613beb565b5060c0830151613cf460c0860182613c53565b5060e0830151613d0760e0860182613beb565b508091505092915050565b60006020820190508181036000830152613d2c8184613c62565b905092915050565b7f4e487b7100000000000000000000000000000000000000000000000000000000600052602260045260246000fd5b60006002820490506001821680613d7b57607f821691505b602082108103613d8e57613d8d613d34565b5b50919050565b7f4552433732313a20617070726f76656420717565727920666f72206e6f6e657860008201527f697374656e7420746f6b656e0000000000000000000000000000000000000000602082015250565b6000613df0602c83613451565b9150613dfb82613d94565b604082019050919050565b60006020820190508181036000830152613e1f81613de3565b9050919050565b7f4552433732313a20617070726f76616c20746f2063757272656e74206f776e6560008201527f7200000000000000000000000000000000000000000000000000000000000000602082015250565b6000613e82602183613451565b9150613e8d82613e26565b604082019050919050565b60006020820190508181036000830152613eb181613e75565b9050919050565b7f4552433732313a20617070726f76652063616c6c6572206973206e6f74206f7760008201527f6e6572206e6f7220617070726f76656420666f7220616c6c0000000000000000602082015250565b6000613f14603883613451565b9150613f1f82613eb8565b604082019050919050565b60006020820190508181036000830152613f4381613f07565b9050919050565b7f4552433732313a207472616e736665722063616c6c6572206973206e6f74206f60008201527f776e6572206e6f7220617070726f766564000000000000000000000000000000602082015250565b6000613fa6603183613451565b9150613fb182613f4a565b604082019050919050565b60006020820190508181036000830152613fd581613f99565b9050919050565b7f4552433732313a206f776e657220717565727920666f72206e6f6e657869737460008201527f656e7420746f6b656e0000000000000000000000000000000000000000000000602082015250565b6000614038602983613451565b915061404382613fdc565b604082019050919050565b600060208201905081810360008301526140678161402b565b9050919050565b7f5265656e7472616e637947756172643a207265656e7472616e742063616c6c00600082015250565b60006140a4601f83613451565b91506140af8261406e565b602082019050919050565b600060208201905081810360008301526140d381614097565b9050919050565b7f496e76616c696420706172616d65746572730000000000000000000000000000600082015250565b6000614110601283613451565b915061411b826140da565b602082019050919050565b6000602082019050818103600083015261413f81614103565b9050919050565b7f496e76616c696420546f6b656e55524900000000000000000000000000000000600082015250565b600061417c601083613451565b915061418782614146565b602082019050919050565b600060208201905081810360008301526141ab8161416f565b9050919050565b7f41646472657373206973206e6f7420617574686f72697a656400000000000000600082015250565b60006141e8601983613451565b91506141f3826141b2565b602082019050919050565b60006020820190508181036000830152614217816141db565b9050919050565b600081519050919050565b600081905092915050565b600061423f8261421e565b6142498185614229565b9350614259818560208601613462565b80840191505092915050565b60006142718284614234565b915081905092915050565b7f416c7265616479207369676e6174757265207573656400000000000000000000600082015250565b60006142b2601683613451565b91506142bd8261427c565b602082019050919050565b600060208201905081810360008301526142e1816142a5565b9050919050565b7f41756374696f6e206e6f74207374617274656420796574000000000000000000600082015250565b600061431e601783613451565b9150614329826142e8565b602082019050919050565b6000602082019050818103600083015261434d81614311565b9050919050565b7f496e76616c696420626173655072696365000000000000000000000000000000600082015250565b600061438a601183613451565b915061439582614354565b602082019050919050565b600060208201905081810360008301526143b98161437d565b9050919050565b7f41756374696f6e2074696d6520656e6465640000000000000000000000000000600082015250565b60006143f6601283613451565b9150614401826143c0565b602082019050919050565b60006020820190508181036000830152614425816143e9565b9050919050565b7f41756374696f6e20656e64656400000000000000000000000000000000000000600082015250565b6000614462600d83613451565b915061446d8261442c565b602082019050919050565b6000602082019050818103600083015261449181614455565b9050919050565b7f596f752063616e6e6f7420626964206f6e20796f7572206f776e204e46540000600082015250565b60006144ce601e83613451565b91506144d982614498565b602082019050919050565b600060208201905081810360008301526144fd816144c1565b9050919050565b7f496e76616c69642070726576696f757348696768657374426964000000000000600082015250565b600061453a601a83613451565b915061454582614504565b602082019050919050565b600060208201905081810360008301526145698161452d565b9050919050565b60008190508160005260206000209050919050565b60006020601f8301049050919050565b600082821b905092915050565b6000600883026145d27fffffffffffffffffffffffffffffffffffffffffffffffffffffffffffffffff82614595565b6145dc8683614595565b95508019841693508086168417925050509392505050565b6000819050919050565b600061461961461461460f846134f8565b6145f4565b6134f8565b9050919050565b6000819050919050565b614633836145fe565b61464761463f82614620565b8484546145a2565b825550505050565b600090565b61465c61464f565b61466781848461462a565b505050565b5b8181101561468b57614680600082614654565b60018101905061466d565b5050565b601f8211156146d0576146a181614570565b6146aa84614585565b810160208510156146b9578190505b6146cd6146c585614585565b83018261466c565b50505b505050565b600082821c905092915050565b60006146f3600019846008026146d5565b1980831691505092915050565b600061470c83836146e2565b9150826002028217905092915050565b61472582613446565b67ffffffffffffffff81111561473e5761473d613680565b5b6147488254613d63565b61475382828561468f565b600060209050601f8311600181146147865760008415614774578287015190505b61477e8582614700565b8655506147e6565b601f19841661479486614570565b60005b828110156147bc57848901518255600182019150602085019450602081019050614797565b868310156147d957848901516147d5601f8916826146e2565b8355505b6001600288020188555050505b505050505050565b7f4e6f7420656e6f7567682062616c616e63650000000000000000000000000000600082015250565b6000614824601283613451565b915061482f826147ee565b602082019050919050565b6000602082019050818103600083015261485381614817565b9050919050565b600060608201905061486f600083018661358d565b61487c6020830185613974565b6148896040830184613974565b949350505050565b7f4552433732313a2062616c616e636520717565727920666f7220746865207a6560008201527f726f206164647265737300000000000000000000000000000000000000000000602082015250565b60006148ed602a83613451565b91506148f882614891565b604082019050919050565b6000602082019050818103600083015261491c816148e0565b9050919050565b7f4f776e61626c653a2063616c6c6572206973206e6f7420746865206f776e6572600082015250565b6000614959602083613451565b915061496482614923565b602082019050919050565b600060208201905081810360008301526149888161494c565b9050919050565b7f596f752063616e6e6f742062757920796f7572206f776e204e46540000000000600082015250565b60006149c5601b83613451565b91506149d08261498f565b602082019050919050565b600060208201905081810360008301526149f4816149b8565b9050919050565b7f496e76616c696420707269636500000000000000000000000000000000000000600082015250565b6000614a31600d83613451565b9150614a3c826149fb565b602082019050919050565b60006020820190508181036000830152614a6081614a24565b9050919050565b600080fd5b600080fd5b600080fd5b60008083356001602003843603038112614a9357614a92614a67565b5b80840192508235915067ffffffffffffffff821115614ab557614ab4614a6c565b5b602083019250600182023603831315614ad157614ad0614a71565b5b509250929050565b600081905092915050565b6000614af08385614ad9565b9350614afd83858461372c565b82840190509392505050565b6000614b16828486614ae4565b91508190509392505050565b7f41756374696f6e2074696d65206e6f742079657420656e646564000000000000600082015250565b6000614b58601a83613451565b9150614b6382614b22565b602082019050919050565b60006020820190508181036000830152614b8781614b4b565b9050919050565b7f596f7520617265206e6f74206869676865737420626964646572000000000000600082015250565b6000614bc4601a83613451565b9150614bcf82614b8e565b602082019050919050565b60006020820190508181036000830152614bf381614bb7565b9050919050565b7f41756374696f6e20616c726561647920656e6465640000000000000000000000600082015250565b6000614c30601583613451565b9150614c3b82614bfa565b602082019050919050565b60006020820190508181036000830152614c5f81614c23565b9050919050565b7f48696768657374206269642063616e6f74206265203000000000000000000000600082015250565b6000614c9c601683613451565b9150614ca782614c66565b602082019050919050565b60006020820190508181036000830152614ccb81614c8f565b9050919050565b7f45524337323155524953746f726167653a2055524920717565727920666f722060008201527f6e6f6e6578697374656e7420746f6b656e000000000000000000000000000000602082015250565b6000614d2e603183613451565b9150614d3982614cd2565b604082019050919050565b60006020820190508181036000830152614d5d81614d21565b9050919050565b6000614d6f82613446565b614d798185614ad9565b9350614d89818560208601613462565b80840191505092915050565b6000614da18285614d64565b9150614dad8284614d64565b91508190509392505050565b7f4f776e61626c653a206e6577206f776e657220697320746865207a65726f206160008201527f6464726573730000000000000000000000000000000000000000000000000000602082015250565b6000614e15602683613451565b9150614e2082614db9565b604082019050919050565b60006020820190508181036000830152614e4481614e08565b9050919050565b7f4552433732313a206f70657261746f7220717565727920666f72206e6f6e657860008201527f697374656e7420746f6b656e0000000000000000000000000000000000000000602082015250565b6000614ea7602c83613451565b9150614eb282614e4b565b604082019050919050565b60006020820190508181036000830152614ed681614e9a565b9050919050565b7f4552433732313a207472616e736665722066726f6d20696e636f72726563742060008201527f6f776e6572000000000000000000000000000000000000000000000000000000602082015250565b6000614f39602583613451565b9150614f4482614edd565b604082019050919050565b60006020820190508181036000830152614f6881614f2c565b9050919050565b7f4552433732313a207472616e7366657220746f20746865207a65726f2061646460008201527f7265737300000000000000000000000000000000000000000000000000000000602082015250565b6000614fcb602483613451565b9150614fd682614f6f565b604082019050919050565b60006020820190508181036000830152614ffa81614fbe565b9050919050565b7f4e487b7100000000000000000000000000000000000000000000000000000000600052601160045260246000fd5b600061503b826134f8565b9150615046836134f8565b925082820390508181111561505e5761505d615001565b5b92915050565b600061506f826134f8565b915061507a836134f8565b925082820190508082111561509257615091615001565b5b92915050565b7f19457468657265756d205369676e6564204d6573736167653a0a333200000000600082015250565b60006150ce601c83614ad9565b91506150d982615098565b601c82019050919050565b6000819050919050565b6150ff6150fa826137ab565b6150e4565b82525050565b6000615110826150c1565b915061511c82846150ee565b60208201915081905092915050565b7f4552433732313a206d696e7420746f20746865207a65726f2061646472657373600082015250565b6000615161602083613451565b915061516c8261512b565b602082019050919050565b6000602082019050818103600083015261519081615154565b9050919050565b7f4552433732313a20746f6b656e20616c7265616479206d696e74656400000000600082015250565b60006151cd601c83613451565b91506151d882615197565b602082019050919050565b600060208201905081810360008301526151fc816151c0565b9050919050565b7f45524337323155524953746f726167653a2055524920736574206f66206e6f6e60008201527f6578697374656e7420746f6b656e000000000000000000000000000000000000602082015250565b600061525f602e83613451565b915061526a82615203565b604082019050919050565b6000602082019050818103600083015261528e81615252565b9050919050565b7f4552433732313a20617070726f766520746f2063616c6c657200000000000000600082015250565b60006152cb601983613451565b91506152d682615295565b602082019050919050565b600060208201905081810360008301526152fa816152be565b9050919050565b7f4552433732313a207472616e7366657220746f206e6f6e20455243373231526560008201527f63656976657220696d706c656d656e7465720000000000000000000000000000602082015250565b600061535d603283613451565b915061536882615301565b604082019050919050565b6000602082019050818103600083015261538c81615350565b9050919050565b7f4552433732314d657461646174613a2055524920717565727920666f72206e6f60008201527f6e6578697374656e7420746f6b656e0000000000000000000000000000000000602082015250565b60006153ef602f83613451565b91506153fa82615393565b604082019050919050565b6000602082019050818103600083015261541e816153e2565b9050919050565b600082825260208201905092915050565b60006154418261421e565b61544b8185615425565b935061545b818560208601613462565b6154648161348c565b840191505092915050565b6000608082019050615484600083018761358d565b615491602083018661358d565b61549e6040830185613974565b81810360608301526154b08184615436565b905095945050505050565b6000815190506154ca816133b7565b92915050565b6000602082840312156154e6576154e5613381565b5b60006154f4848285016154bb565b91505092915050565b6000615508826134f8565b91507fffffffffffffffffffffffffffffffffffffffffffffffffffffffffffffffff820361553a57615539615001565b5b600182019050919050565b7f4e487b7100000000000000000000000000000000000000000000000000000000600052601260045260246000fd5b600061557f826134f8565b915061558a836134f8565b92508261559a57615599615545565b5b828204905092915050565b60006155b0826134f8565b91506155bb836134f8565b9250826155cb576155ca615545565b5b828206905092915050565b7f4e487b7100000000000000000000000000000000000000000000000000000000600052603260045260246000fd5b7f4e487b7100000000000000000000000000000000000000000000000000000000600052602160045260246000fd5b7f45434453413a20696e76616c6964207369676e61747572650000000000000000600082015250565b600061566a601883613451565b915061567582615634565b602082019050919050565b600060208201905081810360008301526156998161565d565b9050919050565b7f45434453413a20696e76616c6964207369676e6174757265206c656e67746800600082015250565b60006156d6601f83613451565b91506156e1826156a0565b602082019050919050565b60006020820190508181036000830152615705816156c9565b9050919050565b7f45434453413a20696e76616c6964207369676e6174757265202773272076616c60008201527f7565000000000000000000000000000000000000000000000000000000000000602082015250565b6000615768602283613451565b91506157738261570c565b604082019050919050565b600060208201905081810360008301526157978161575b565b9050919050565b7f45434453413a20696e76616c6964207369676e6174757265202776272076616c60008201527f7565000000000000000000000000000000000000000000000000000000000000602082015250565b60006157fa602283613451565b91506158058261579e565b604082019050919050565b60006020820190508181036000830152615829816157ed565b9050919050565b615839816137ab565b82525050565b600060ff82169050919050565b6158558161583f565b82525050565b60006080820190506158706000830187615830565b61587d602083018661584c565b61588a6040830185615830565b6158976060830184615830565b9594505050505056fea2646970667358221220619ee3f80fd93e1d8f298e188416601316e2185eb1150881654a28ed87e4499f64736f6c63430008110033",
  "linkReferences": {},
  "deployedLinkReferences": {}
}