{
  "_format": "hh-sol-artifact-1",
  "contractName": "LazyMinting",
  "sourceName": "contracts/LazyMinting.sol",
  "abi": [
    {
      "inputs": [],
      "stateMutability": "nonpayable",
      "type": "constructor"
    },
    {
      "anonymous": false,
      "inputs": [
        {
          "indexed": true,
          "internalType": "address",
          "name": "owner",
          "type": "address"
        },
        {
          "indexed": true,
          "internalType": "address",
          "name": "approved",
          "type": "address"
        },
        {
          "indexed": true,
          "internalType": "uint256",
          "name": "tokenId",
          "type": "uint256"
        }
      ],
      "name": "Approval",
      "type": "event"
    },
    {
      "anonymous": false,
      "inputs": [
        {
          "indexed": true,
          "internalType": "address",
          "name": "owner",
          "type": "address"
        },
        {
          "indexed": true,
          "internalType": "address",
          "name": "operator",
          "type": "address"
        },
        {
          "indexed": false,
          "internalType": "bool",
          "name": "approved",
          "type": "bool"
        }
      ],
      "name": "ApprovalForAll",
      "type": "event"
    },
    {
      "anonymous": false,
      "inputs": [
        {
          "indexed": true,
          "internalType": "uint256",
          "name": "tokenId",
          "type": "uint256"
        },
        {
          "indexed": true,
          "internalType": "string",
          "name": "tokenURI",
          "type": "string"
        },
        {
          "indexed": true,
          "internalType": "uint256",
          "name": "price",
          "type": "uint256"
        }
      ],
      "name": "Mint",
      "type": "event"
    },
    {
      "anonymous": false,
      "inputs": [
        {
          "indexed": true,
          "internalType": "uint256",
          "name": "_tokenId",
          "type": "uint256"
        },
        {
          "indexed": false,
          "internalType": "address",
          "name": "_bidder",
          "type": "address"
        },
        {
          "indexed": true,
          "internalType": "uint256",
          "name": "_bidAmount",
          "type": "uint256"
        },
        {
          "indexed": false,
          "internalType": "uint256",
          "name": "_startTime",
          "type": "uint256"
        },
        {
          "indexed": false,
          "internalType": "uint256",
          "name": "_endTime",
          "type": "uint256"
        }
      ],
      "name": "NftBidded",
      "type": "event"
    },
    {
      "anonymous": false,
      "inputs": [
        {
          "indexed": true,
          "internalType": "address",
          "name": "previousOwner",
          "type": "address"
        },
        {
          "indexed": true,
          "internalType": "address",
          "name": "newOwner",
          "type": "address"
        }
      ],
      "name": "OwnershipTransferred",
      "type": "event"
    },
    {
      "anonymous": false,
      "inputs": [
        {
          "indexed": true,
          "internalType": "address",
          "name": "from",
          "type": "address"
        },
        {
          "indexed": true,
          "internalType": "address",
          "name": "to",
          "type": "address"
        },
        {
          "indexed": true,
          "internalType": "uint256",
          "name": "tokenId",
          "type": "uint256"
        }
      ],
      "name": "Transfer",
      "type": "event"
    },
    {
      "inputs": [
        {
          "internalType": "address",
          "name": "to",
          "type": "address"
        },
        {
          "internalType": "uint256",
          "name": "tokenId",
          "type": "uint256"
        }
      ],
      "name": "approve",
      "outputs": [],
      "stateMutability": "nonpayable",
      "type": "function"
    },
    {
      "inputs": [
        {
          "internalType": "address",
          "name": "owner",
          "type": "address"
        }
      ],
      "name": "balanceOf",
      "outputs": [
        {
          "internalType": "uint256",
          "name": "",
          "type": "uint256"
        }
      ],
      "stateMutability": "view",
      "type": "function"
    },
    {
      "inputs": [
        {
          "internalType": "uint256",
          "name": "_tokenId",
          "type": "uint256"
        },
        {
          "internalType": "uint256",
          "name": "_startTime",
          "type": "uint256"
        },
        {
          "internalType": "uint256",
          "name": "_endTime",
          "type": "uint256"
        },
        {
          "internalType": "bytes32",
          "name": "hash",
          "type": "bytes32"
        },
        {
          "internalType": "bytes",
          "name": "signature",
          "type": "bytes"
        }
      ],
      "name": "bidNFT",
      "outputs": [],
      "stateMutability": "payable",
      "type": "function"
    },
    {
      "inputs": [
        {
          "components": [
            {
              "internalType": "uint256",
              "name": "tokenId",
              "type": "uint256"
            },
            {
              "internalType": "uint256",
              "name": "price",
              "type": "uint256"
            },
            {
              "internalType": "string",
              "name": "tokenURI",
              "type": "string"
            }
          ],
          "internalType": "struct LazyMinting.SaleNFTVoucher",
          "name": "voucher",
          "type": "tuple"
        },
        {
          "internalType": "bytes32",
          "name": "hash",
          "type": "bytes32"
        },
        {
          "internalType": "bytes",
          "name": "signature",
          "type": "bytes"
        }
      ],
      "name": "buyNFT",
      "outputs": [],
      "stateMutability": "payable",
      "type": "function"
    },
    {
      "inputs": [
        {
          "internalType": "uint256",
          "name": "_tokenId",
          "type": "uint256"
        },
        {
          "internalType": "bytes32",
          "name": "hash",
          "type": "bytes32"
        },
        {
          "internalType": "bytes",
          "name": "signature",
          "type": "bytes"
        }
      ],
      "name": "claimNFT",
      "outputs": [],
      "stateMutability": "nonpayable",
      "type": "function"
    },
    {
      "inputs": [
        {
          "internalType": "uint256",
          "name": "tokenId",
          "type": "uint256"
        }
      ],
      "name": "getApproved",
      "outputs": [
        {
          "internalType": "address",
          "name": "",
          "type": "address"
        }
      ],
      "stateMutability": "view",
      "type": "function"
    },
    {
      "inputs": [
        {
          "internalType": "uint256",
          "name": "_tokenId",
          "type": "uint256"
        }
      ],
      "name": "getAuctionInfo",
      "outputs": [
        {
          "components": [
            {
              "internalType": "uint256",
              "name": "tokenId",
              "type": "uint256"
            },
            {
              "internalType": "uint256",
              "name": "basePrice",
              "type": "uint256"
            },
            {
              "internalType": "string",
              "name": "tokenURI",
              "type": "string"
            },
            {
              "internalType": "bool",
              "name": "isAuctionEnded",
              "type": "bool"
            },
            {
              "internalType": "uint256",
              "name": "startTime",
              "type": "uint256"
            },
            {
              "internalType": "uint256",
              "name": "endTime",
              "type": "uint256"
            },
            {
              "internalType": "address",
              "name": "highestBidder",
              "type": "address"
            },
            {
              "internalType": "uint256",
              "name": "highestBid",
              "type": "uint256"
            }
          ],
          "internalType": "struct LazyMinting.AuctionNFTVoucher",
          "name": "",
          "type": "tuple"
        }
      ],
      "stateMutability": "view",
      "type": "function"
    },
    {
      "inputs": [
        {
          "internalType": "address",
          "name": "owner",
          "type": "address"
        },
        {
          "internalType": "address",
          "name": "operator",
          "type": "address"
        }
      ],
      "name": "isApprovedForAll",
      "outputs": [
        {
          "internalType": "bool",
          "name": "",
          "type": "bool"
        }
      ],
      "stateMutability": "view",
      "type": "function"
    },
    {
      "inputs": [],
      "name": "name",
      "outputs": [
        {
          "internalType": "string",
          "name": "",
          "type": "string"
        }
      ],
      "stateMutability": "view",
      "type": "function"
    },
    {
      "inputs": [],
      "name": "owner",
      "outputs": [
        {
          "internalType": "address",
          "name": "",
          "type": "address"
        }
      ],
      "stateMutability": "view",
      "type": "function"
    },
    {
      "inputs": [
        {
          "internalType": "uint256",
          "name": "tokenId",
          "type": "uint256"
        }
      ],
      "name": "ownerOf",
      "outputs": [
        {
          "internalType": "address",
          "name": "",
          "type": "address"
        }
      ],
      "stateMutability": "view",
      "type": "function"
    },
    {
      "inputs": [],
      "name": "renounceOwnership",
      "outputs": [],
      "stateMutability": "nonpayable",
      "type": "function"
    },
    {
      "inputs": [
        {
          "internalType": "address",
          "name": "from",
          "type": "address"
        },
        {
          "internalType": "address",
          "name": "to",
          "type": "address"
        },
        {
          "internalType": "uint256",
          "name": "tokenId",
          "type": "uint256"
        }
      ],
      "name": "safeTransferFrom",
      "outputs": [],
      "stateMutability": "nonpayable",
      "type": "function"
    },
    {
      "inputs": [
        {
          "internalType": "address",
          "name": "from",
          "type": "address"
        },
        {
          "internalType": "address",
          "name": "to",
          "type": "address"
        },
        {
          "internalType": "uint256",
          "name": "tokenId",
          "type": "uint256"
        },
        {
          "internalType": "bytes",
          "name": "_data",
          "type": "bytes"
        }
      ],
      "name": "safeTransferFrom",
      "outputs": [],
      "stateMutability": "nonpayable",
      "type": "function"
    },
    {
      "inputs": [
        {
          "internalType": "address",
          "name": "operator",
          "type": "address"
        },
        {
          "internalType": "bool",
          "name": "approved",
          "type": "bool"
        }
      ],
      "name": "setApprovalForAll",
      "outputs": [],
      "stateMutability": "nonpayable",
      "type": "function"
    },
    {
      "inputs": [
        {
          "internalType": "bytes4",
          "name": "interfaceId",
          "type": "bytes4"
        }
      ],
      "name": "supportsInterface",
      "outputs": [
        {
          "internalType": "bool",
          "name": "",
          "type": "bool"
        }
      ],
      "stateMutability": "view",
      "type": "function"
    },
    {
      "inputs": [],
      "name": "symbol",
      "outputs": [
        {
          "internalType": "string",
          "name": "",
          "type": "string"
        }
      ],
      "stateMutability": "view",
      "type": "function"
    },
    {
      "inputs": [
        {
          "internalType": "uint256",
          "name": "tokenId",
          "type": "uint256"
        }
      ],
      "name": "tokenURI",
      "outputs": [
        {
          "internalType": "string",
          "name": "",
          "type": "string"
        }
      ],
      "stateMutability": "view",
      "type": "function"
    },
    {
      "inputs": [
        {
          "internalType": "address",
          "name": "from",
          "type": "address"
        },
        {
          "internalType": "address",
          "name": "to",
          "type": "address"
        },
        {
          "internalType": "uint256",
          "name": "tokenId",
          "type": "uint256"
        }
      ],
      "name": "transferFrom",
      "outputs": [],
      "stateMutability": "nonpayable",
      "type": "function"
    },
    {
      "inputs": [
        {
          "internalType": "address",
          "name": "newOwner",
          "type": "address"
        }
      ],
      "name": "transferOwnership",
      "outputs": [],
      "stateMutability": "nonpayable",
      "type": "function"
    }
  ],
  "bytecode": "0x60806040523480156200001157600080fd5b506040518060400160405280600581526020017f4d794e46540000000000000000000000000000000000000000000000000000008152506040518060400160405280600481526020017f4d4e46540000000000000000000000000000000000000000000000000000000081525081600090816200008f91906200041a565b508060019081620000a191906200041a565b505050620000c4620000b8620000d260201b60201c565b620000da60201b60201c565b600160088190555062000501565b600033905090565b6000600760009054906101000a900473ffffffffffffffffffffffffffffffffffffffff16905081600760006101000a81548173ffffffffffffffffffffffffffffffffffffffff021916908373ffffffffffffffffffffffffffffffffffffffff1602179055508173ffffffffffffffffffffffffffffffffffffffff168173ffffffffffffffffffffffffffffffffffffffff167f8be0079c531659141344cd1fd0a4f28419497f9722a3daafe3b4186f6b6457e060405160405180910390a35050565b600081519050919050565b7f4e487b7100000000000000000000000000000000000000000000000000000000600052604160045260246000fd5b7f4e487b7100000000000000000000000000000000000000000000000000000000600052602260045260246000fd5b600060028204905060018216806200022257607f821691505b602082108103620002385762000237620001da565b5b50919050565b60008190508160005260206000209050919050565b60006020601f8301049050919050565b600082821b905092915050565b600060088302620002a27fffffffffffffffffffffffffffffffffffffffffffffffffffffffffffffffff8262000263565b620002ae868362000263565b95508019841693508086168417925050509392505050565b6000819050919050565b6000819050919050565b6000620002fb620002f5620002ef84620002c6565b620002d0565b620002c6565b9050919050565b6000819050919050565b6200031783620002da565b6200032f620003268262000302565b84845462000270565b825550505050565b600090565b6200034662000337565b620003538184846200030c565b505050565b5b818110156200037b576200036f6000826200033c565b60018101905062000359565b5050565b601f821115620003ca5762000394816200023e565b6200039f8462000253565b81016020851015620003af578190505b620003c7620003be8562000253565b83018262000358565b50505b505050565b600082821c905092915050565b6000620003ef60001984600802620003cf565b1980831691505092915050565b60006200040a8383620003dc565b9150826002028217905092915050565b6200042582620001a0565b67ffffffffffffffff811115620004415762000440620001ab565b5b6200044d825462000209565b6200045a8282856200037f565b600060209050601f8311600181146200049257600084156200047d578287015190505b620004898582620003fc565b865550620004f9565b601f198416620004a2866200023e565b60005b82811015620004cc57848901518255600182019150602085019450602081019050620004a5565b86831015620004ec5784890151620004e8601f891682620003dc565b8355505b6001600288020188555050505b505050505050565b61573280620005116000396000f3fe60806040526004361061011f5760003560e01c80638da5cb5b116100a0578063c87b56dd11610064578063c87b56dd146103c2578063d46dc8e5146103ff578063e985e9c51461041b578063f2fde38b14610458578063fc3fc4ed146104815761011f565b80638da5cb5b146102f157806395d89b411461031c57806399c2d40914610347578063a22cb46514610370578063b88d4fde146103995761011f565b806342842e0e116100e757806342842e0e1461021b5780636352211e1461024457806370a0823114610281578063715018a6146102be57806389077a79146102d55761011f565b806301ffc9a71461012457806306fdde0314610161578063081812fc1461018c578063095ea7b3146101c957806323b872dd146101f2575b600080fd5b34801561013057600080fd5b5061014b6004803603810190610146919061337a565b6104be565b60405161015891906133c2565b60405180910390f35b34801561016d57600080fd5b506101766104d0565b604051610183919061346d565b60405180910390f35b34801561019857600080fd5b506101b360048036038101906101ae91906134c5565b610562565b6040516101c09190613533565b60405180910390f35b3480156101d557600080fd5b506101f060048036038101906101eb919061357a565b6105e7565b005b3480156101fe57600080fd5b50610219600480360381019061021491906135ba565b6106fe565b005b34801561022757600080fd5b50610242600480360381019061023d91906135ba565b61075e565b005b34801561025057600080fd5b5061026b600480360381019061026691906134c5565b61077e565b6040516102789190613533565b60405180910390f35b34801561028d57600080fd5b506102a860048036038101906102a3919061360d565b61082f565b6040516102b59190613649565b60405180910390f35b3480156102ca57600080fd5b506102d36108e6565b005b6102ef60048036038101906102ea91906137f3565b61096e565b005b3480156102fd57600080fd5b50610306610d93565b6040516103139190613533565b60405180910390f35b34801561032857600080fd5b50610331610dbd565b60405161033e919061346d565b60405180910390f35b34801561035357600080fd5b5061036e6004803603810190610369919061387e565b610e4f565b005b34801561037c57600080fd5b5061039760048036038101906103929190613919565b61146a565b005b3480156103a557600080fd5b506103c060048036038101906103bb9190613959565b611480565b005b3480156103ce57600080fd5b506103e960048036038101906103e491906134c5565b6114e2565b6040516103f6919061346d565b60405180910390f35b610419600480360381019061041491906139dc565b611633565b005b34801561042757600080fd5b50610442600480360381019061043d9190613a73565b611d42565b60405161044f91906133c2565b60405180910390f35b34801561046457600080fd5b5061047f600480360381019061047a919061360d565b611dd6565b005b34801561048d57600080fd5b506104a860048036038101906104a391906134c5565b611ecd565b6040516104b59190613bda565b60405180910390f35b60006104c982612030565b9050919050565b6060600080546104df90613c2b565b80601f016020809104026020016040519081016040528092919081815260200182805461050b90613c2b565b80156105585780601f1061052d57610100808354040283529160200191610558565b820191906000526020600020905b81548152906001019060200180831161053b57829003601f168201915b5050505050905090565b600061056d82612112565b6105ac576040517f08c379a00000000000000000000000000000000000000000000000000000000081526004016105a390613cce565b60405180910390fd5b6004600083815260200190815260200160002060009054906101000a900473ffffffffffffffffffffffffffffffffffffffff169050919050565b60006105f28261077e565b90508073ffffffffffffffffffffffffffffffffffffffff168373ffffffffffffffffffffffffffffffffffffffff1603610662576040517f08c379a000000000000000000000000000000000000000000000000000000000815260040161065990613d60565b60405180910390fd5b8073ffffffffffffffffffffffffffffffffffffffff1661068161217e565b73ffffffffffffffffffffffffffffffffffffffff1614806106b057506106af816106aa61217e565b611d42565b5b6106ef576040517f08c379a00000000000000000000000000000000000000000000000000000000081526004016106e690613df2565b60405180910390fd5b6106f98383612186565b505050565b61070f61070961217e565b8261223f565b61074e576040517f08c379a000000000000000000000000000000000000000000000000000000000815260040161074590613e84565b60405180910390fd5b61075983838361231d565b505050565b61077983838360405180602001604052806000815250611480565b505050565b6000806002600084815260200190815260200160002060009054906101000a900473ffffffffffffffffffffffffffffffffffffffff169050600073ffffffffffffffffffffffffffffffffffffffff168173ffffffffffffffffffffffffffffffffffffffff1603610826576040517f08c379a000000000000000000000000000000000000000000000000000000000815260040161081d90613f16565b60405180910390fd5b80915050919050565b60008073ffffffffffffffffffffffffffffffffffffffff168273ffffffffffffffffffffffffffffffffffffffff160361089f576040517f08c379a000000000000000000000000000000000000000000000000000000000815260040161089690613fa8565b60405180910390fd5b600360008373ffffffffffffffffffffffffffffffffffffffff1673ffffffffffffffffffffffffffffffffffffffff168152602001908152602001600020549050919050565b6108ee61217e565b73ffffffffffffffffffffffffffffffffffffffff1661090c610d93565b73ffffffffffffffffffffffffffffffffffffffff1614610962576040517f08c379a000000000000000000000000000000000000000000000000000000000815260040161095990614014565b60405180910390fd5b61096c6000612583565b565b6002600854036109b3576040517f08c379a00000000000000000000000000000000000000000000000000000000081526004016109aa90614080565b60405180910390fd5b60026008819055506109c3610d93565b73ffffffffffffffffffffffffffffffffffffffff166109e38383612649565b73ffffffffffffffffffffffffffffffffffffffff1614610a39576040517f08c379a0000000000000000000000000000000000000000000000000000000008152600401610a30906140ec565b60405180910390fd5b600b81604051610a499190614153565b908152602001604051809103902060009054906101000a900460ff1615610aa5576040517f08c379a0000000000000000000000000000000000000000000000000000000008152600401610a9c906141b6565b60405180910390fd5b610aaf8282612649565b600a60006101000a81548173ffffffffffffffffffffffffffffffffffffffff021916908373ffffffffffffffffffffffffffffffffffffffff1602179055503373ffffffffffffffffffffffffffffffffffffffff16600a60009054906101000a900473ffffffffffffffffffffffffffffffffffffffff1673ffffffffffffffffffffffffffffffffffffffff1603610b7f576040517f08c379a0000000000000000000000000000000000000000000000000000000008152600401610b7690614222565b60405180910390fd5b82602001353414610bc5576040517f08c379a0000000000000000000000000000000000000000000000000000000008152600401610bbc9061428e565b60405180910390fd5b610bf5600a60009054906101000a900473ffffffffffffffffffffffffffffffffffffffff168460000135612688565b610c558360000135848060400190610c0d91906142bd565b8080601f016020809104026020016040519081016040528093929190818152602001838380828437600081840152601f19601f82011690508083019250505050505050612861565b610c86600a60009054906101000a900473ffffffffffffffffffffffffffffffffffffffff1633856000013561231d565b600a60009054906101000a900473ffffffffffffffffffffffffffffffffffffffff1673ffffffffffffffffffffffffffffffffffffffff166108fc84602001359081150290604051600060405180830381858888f19350505050158015610cf2573d6000803e3d6000fd5b506001600b82604051610d059190614153565b908152602001604051809103902060006101000a81548160ff0219169083151502179055508260200135838060400190610d3f91906142bd565b604051610d4d929190614350565b604051809103902084600001357f6dcf024ef3fe3b4d177c8b8342bd25d3b5d32a4c92e6e8a499785a5329bb9dfe60405160405180910390a46001600881905550505050565b6000600760009054906101000a900473ffffffffffffffffffffffffffffffffffffffff16905090565b606060018054610dcc90613c2b565b80601f0160208091040260200160405190810160405280929190818152602001828054610df890613c2b565b8015610e455780601f10610e1a57610100808354040283529160200191610e45565b820191906000526020600020905b815481529060010190602001808311610e2857829003601f168201915b5050505050905090565b600260085403610e94576040517f08c379a0000000000000000000000000000000000000000000000000000000008152600401610e8b90614080565b60405180910390fd5b6002600881905550610ea4610d93565b73ffffffffffffffffffffffffffffffffffffffff16610ec48383612649565b73ffffffffffffffffffffffffffffffffffffffff1614610f1a576040517f08c379a0000000000000000000000000000000000000000000000000000000008152600401610f11906140ec565b60405180910390fd5b600b81604051610f2a9190614153565b908152602001604051809103902060009054906101000a900460ff1615610f86576040517f08c379a0000000000000000000000000000000000000000000000000000000008152600401610f7d906141b6565b60405180910390fd5b600c600084815260200190815260200160002060040154421015610fdf576040517f08c379a0000000000000000000000000000000000000000000000000000000008152600401610fd6906143b5565b60405180910390fd5b600c600084815260200190815260200160002060050154421015611038576040517f08c379a000000000000000000000000000000000000000000000000000000000815260040161102f90614421565b60405180910390fd5b3373ffffffffffffffffffffffffffffffffffffffff16600c600085815260200190815260200160002060060160009054906101000a900473ffffffffffffffffffffffffffffffffffffffff1673ffffffffffffffffffffffffffffffffffffffff16146110dc576040517f08c379a00000000000000000000000000000000000000000000000000000000081526004016110d39061448d565b60405180910390fd5b600c600084815260200190815260200160002060030160009054906101000a900460ff1615611140576040517f08c379a0000000000000000000000000000000000000000000000000000000008152600401611137906144f9565b60405180910390fd5b6000600c60008581526020019081526020016000206007015403611199576040517f08c379a000000000000000000000000000000000000000000000000000000000815260040161119090614565565b60405180910390fd5b6111a38282612649565b600a60006101000a81548173ffffffffffffffffffffffffffffffffffffffff021916908373ffffffffffffffffffffffffffffffffffffffff160217905550611225600a60009054906101000a900473ffffffffffffffffffffffffffffffffffffffff16600c600086815260200190815260200160002060000154612688565b6112e3600c600085815260200190815260200160002060000154600c6000868152602001908152602001600020600201805461126090613c2b565b80601f016020809104026020016040519081016040528092919081815260200182805461128c90613c2b565b80156112d95780601f106112ae576101008083540402835291602001916112d9565b820191906000526020600020905b8154815290600101906020018083116112bc57829003601f168201915b5050505050612861565b61135c600a60009054906101000a900473ffffffffffffffffffffffffffffffffffffffff16600c600086815260200190815260200160002060060160009054906101000a900473ffffffffffffffffffffffffffffffffffffffff16600c60008781526020019081526020016000206000015461231d565b600a60009054906101000a900473ffffffffffffffffffffffffffffffffffffffff1673ffffffffffffffffffffffffffffffffffffffff166108fc600c6000868152602001908152602001600020600701549081150290604051600060405180830381858888f193505050501580156113da573d6000803e3d6000fd5b506001600c600085815260200190815260200160002060030160006101000a81548160ff0219169083151502179055506001600b8260405161141c9190614153565b908152602001604051809103902060006101000a81548160ff0219169083151502179055506000600c6000858152602001908152602001600020600101819055506001600881905550505050565b61147c61147561217e565b83836128ce565b5050565b61149161148b61217e565b8361223f565b6114d0576040517f08c379a00000000000000000000000000000000000000000000000000000000081526004016114c790613e84565b60405180910390fd5b6114dc84848484612a3a565b50505050565b60606114ed82612112565b61152c576040517f08c379a0000000000000000000000000000000000000000000000000000000008152600401611523906145f7565b60405180910390fd5b600060066000848152602001908152602001600020805461154c90613c2b565b80601f016020809104026020016040519081016040528092919081815260200182805461157890613c2b565b80156115c55780601f1061159a576101008083540402835291602001916115c5565b820191906000526020600020905b8154815290600101906020018083116115a857829003601f168201915b5050505050905060006115d6612a96565b905060008151036115eb57819250505061162e565b600082511115611620578082604051602001611608929190614648565b6040516020818303038152906040529250505061162e565b61162984612aad565b925050505b919050565b600260085403611678576040517f08c379a000000000000000000000000000000000000000000000000000000000815260040161166f90614080565b60405180910390fd5b60026008819055506000341180156116905750600084115b801561169c5750600083115b6116db576040517f08c379a00000000000000000000000000000000000000000000000000000000081526004016116d2906146b8565b60405180910390fd5b6116e3610d93565b73ffffffffffffffffffffffffffffffffffffffff166117038383612649565b73ffffffffffffffffffffffffffffffffffffffff1614611759576040517f08c379a0000000000000000000000000000000000000000000000000000000008152600401611750906140ec565b60405180910390fd5b600b816040516117699190614153565b908152602001604051809103902060009054906101000a900460ff16156117c5576040517f08c379a00000000000000000000000000000000000000000000000000000000081526004016117bc906141b6565b60405180910390fd5b83421015611808576040517f08c379a00000000000000000000000000000000000000000000000000000000081526004016117ff906143b5565b60405180910390fd5b600c600086815260200190815260200160002060010154341015611861576040517f08c379a000000000000000000000000000000000000000000000000000000000815260040161185890614724565b60405180910390fd5b824211156118a4576040517f08c379a000000000000000000000000000000000000000000000000000000000815260040161189b90614790565b60405180910390fd5b600c600086815260200190815260200160002060030160009054906101000a900460ff1615611908576040517f08c379a00000000000000000000000000000000000000000000000000000000081526004016118ff906147fc565b60405180910390fd5b3373ffffffffffffffffffffffffffffffffffffffff16600a60009054906101000a900473ffffffffffffffffffffffffffffffffffffffff1673ffffffffffffffffffffffffffffffffffffffff1603611998576040517f08c379a000000000000000000000000000000000000000000000000000000000815260040161198f90614868565b60405180910390fd5b6000600c60008781526020019081526020016000206007015490508034116119f5576040517f08c379a00000000000000000000000000000000000000000000000000000000081526004016119ec906148d4565b60405180910390fd5b6119ff8383612649565b600a60006101000a81548173ffffffffffffffffffffffffffffffffffffffff021916908373ffffffffffffffffffffffffffffffffffffffff1602179055506000600c600088815260200190815260200160002060060160009054906101000a900473ffffffffffffffffffffffffffffffffffffffff16905085600c60008981526020019081526020016000206004018190555084600c60008981526020019081526020016000206005018190555081341115611d3157600d60003373ffffffffffffffffffffffffffffffffffffffff1673ffffffffffffffffffffffffffffffffffffffff168152602001908152602001600020600088815260200190815260200160002060009054906101000a900460ff16611b84576001600d60003373ffffffffffffffffffffffffffffffffffffffff1673ffffffffffffffffffffffffffffffffffffffff168152602001908152602001600020600089815260200190815260200160002060006101000a81548160ff0219169083151502179055505b600073ffffffffffffffffffffffffffffffffffffffff168173ffffffffffffffffffffffffffffffffffffffff1614158015611bc2575060008214155b15611c525781471015611c0a576040517f08c379a0000000000000000000000000000000000000000000000000000000008152600401611c0190614940565b60405180910390fd5b8073ffffffffffffffffffffffffffffffffffffffff166108fc839081150290604051600060405180830381858888f19350505050158015611c50573d6000803e3d6000fd5b505b33600c600089815260200190815260200160002060060160006101000a81548173ffffffffffffffffffffffffffffffffffffffff021916908373ffffffffffffffffffffffffffffffffffffffff16021790555034600c60008981526020019081526020016000206007018190555086600c60008981526020019081526020016000206000018190555034877ff42549a14dcb5e213fada254ec437a209f7eeeee98b293fe8855190d3dd613153342600c60008d815260200190815260200160002060050154604051611d2893929190614960565b60405180910390a35b505060016008819055505050505050565b6000600560008473ffffffffffffffffffffffffffffffffffffffff1673ffffffffffffffffffffffffffffffffffffffff16815260200190815260200160002060008373ffffffffffffffffffffffffffffffffffffffff1673ffffffffffffffffffffffffffffffffffffffff16815260200190815260200160002060009054906101000a900460ff16905092915050565b611dde61217e565b73ffffffffffffffffffffffffffffffffffffffff16611dfc610d93565b73ffffffffffffffffffffffffffffffffffffffff1614611e52576040517f08c379a0000000000000000000000000000000000000000000000000000000008152600401611e4990614014565b60405180910390fd5b600073ffffffffffffffffffffffffffffffffffffffff168173ffffffffffffffffffffffffffffffffffffffff1603611ec1576040517f08c379a0000000000000000000000000000000000000000000000000000000008152600401611eb890614a09565b60405180910390fd5b611eca81612583565b50565b611ed56132b1565b600c6000838152602001908152602001600020604051806101000160405290816000820154815260200160018201548152602001600282018054611f1890613c2b565b80601f0160208091040260200160405190810160405280929190818152602001828054611f4490613c2b565b8015611f915780601f10611f6657610100808354040283529160200191611f91565b820191906000526020600020905b815481529060010190602001808311611f7457829003601f168201915b505050505081526020016003820160009054906101000a900460ff1615151515815260200160048201548152602001600582015481526020016006820160009054906101000a900473ffffffffffffffffffffffffffffffffffffffff1673ffffffffffffffffffffffffffffffffffffffff1673ffffffffffffffffffffffffffffffffffffffff1681526020016007820154815250509050919050565b60007f80ac58cd000000000000000000000000000000000000000000000000000000007bffffffffffffffffffffffffffffffffffffffffffffffffffffffff1916827bffffffffffffffffffffffffffffffffffffffffffffffffffffffff191614806120fb57507f5b5e139f000000000000000000000000000000000000000000000000000000007bffffffffffffffffffffffffffffffffffffffffffffffffffffffff1916827bffffffffffffffffffffffffffffffffffffffffffffffffffffffff1916145b8061210b575061210a82612b54565b5b9050919050565b60008073ffffffffffffffffffffffffffffffffffffffff166002600084815260200190815260200160002060009054906101000a900473ffffffffffffffffffffffffffffffffffffffff1673ffffffffffffffffffffffffffffffffffffffff1614159050919050565b600033905090565b816004600083815260200190815260200160002060006101000a81548173ffffffffffffffffffffffffffffffffffffffff021916908373ffffffffffffffffffffffffffffffffffffffff160217905550808273ffffffffffffffffffffffffffffffffffffffff166121f98361077e565b73ffffffffffffffffffffffffffffffffffffffff167f8c5be1e5ebec7d5bd14f71427d1e84f3dd0314c0f7b2291e5b200ac8c7c3b92560405160405180910390a45050565b600061224a82612112565b612289576040517f08c379a000000000000000000000000000000000000000000000000000000000815260040161228090614a9b565b60405180910390fd5b60006122948361077e565b90508073ffffffffffffffffffffffffffffffffffffffff168473ffffffffffffffffffffffffffffffffffffffff1614806122d657506122d58185611d42565b5b8061231457508373ffffffffffffffffffffffffffffffffffffffff166122fc84610562565b73ffffffffffffffffffffffffffffffffffffffff16145b91505092915050565b8273ffffffffffffffffffffffffffffffffffffffff1661233d8261077e565b73ffffffffffffffffffffffffffffffffffffffff1614612393576040517f08c379a000000000000000000000000000000000000000000000000000000000815260040161238a90614b2d565b60405180910390fd5b600073ffffffffffffffffffffffffffffffffffffffff168273ffffffffffffffffffffffffffffffffffffffff1603612402576040517f08c379a00000000000000000000000000000000000000000000000000000000081526004016123f990614bbf565b60405180910390fd5b61240d838383612bbe565b612418600082612186565b6001600360008573ffffffffffffffffffffffffffffffffffffffff1673ffffffffffffffffffffffffffffffffffffffff16815260200190815260200160002060008282546124689190614c0e565b925050819055506001600360008473ffffffffffffffffffffffffffffffffffffffff1673ffffffffffffffffffffffffffffffffffffffff16815260200190815260200160002060008282546124bf9190614c42565b92505081905550816002600083815260200190815260200160002060006101000a81548173ffffffffffffffffffffffffffffffffffffffff021916908373ffffffffffffffffffffffffffffffffffffffff160217905550808273ffffffffffffffffffffffffffffffffffffffff168473ffffffffffffffffffffffffffffffffffffffff167fddf252ad1be2c89b69c2b068fc378daa952ba7f163c4a11628f55a4df523b3ef60405160405180910390a461257e838383612bc3565b505050565b6000600760009054906101000a900473ffffffffffffffffffffffffffffffffffffffff16905081600760006101000a81548173ffffffffffffffffffffffffffffffffffffffff021916908373ffffffffffffffffffffffffffffffffffffffff1602179055508173ffffffffffffffffffffffffffffffffffffffff168173ffffffffffffffffffffffffffffffffffffffff167f8be0079c531659141344cd1fd0a4f28419497f9722a3daafe3b4186f6b6457e060405160405180910390a35050565b6000808360405160200161265d9190614ce3565b60405160208183030381529060405280519060200120905061267f8184612bc8565b91505092915050565b600073ffffffffffffffffffffffffffffffffffffffff168273ffffffffffffffffffffffffffffffffffffffff16036126f7576040517f08c379a00000000000000000000000000000000000000000000000000000000081526004016126ee90614d55565b60405180910390fd5b61270081612112565b15612740576040517f08c379a000000000000000000000000000000000000000000000000000000000815260040161273790614dc1565b60405180910390fd5b61274c60008383612bbe565b6001600360008473ffffffffffffffffffffffffffffffffffffffff1673ffffffffffffffffffffffffffffffffffffffff168152602001908152602001600020600082825461279c9190614c42565b92505081905550816002600083815260200190815260200160002060006101000a81548173ffffffffffffffffffffffffffffffffffffffff021916908373ffffffffffffffffffffffffffffffffffffffff160217905550808273ffffffffffffffffffffffffffffffffffffffff16600073ffffffffffffffffffffffffffffffffffffffff167fddf252ad1be2c89b69c2b068fc378daa952ba7f163c4a11628f55a4df523b3ef60405160405180910390a461285d60008383612bc3565b5050565b61286a82612112565b6128a9576040517f08c379a00000000000000000000000000000000000000000000000000000000081526004016128a090614e53565b60405180910390fd5b806006600084815260200190815260200160002090816128c9919061501f565b505050565b8173ffffffffffffffffffffffffffffffffffffffff168373ffffffffffffffffffffffffffffffffffffffff160361293c576040517f08c379a00000000000000000000000000000000000000000000000000000000081526004016129339061513d565b60405180910390fd5b80600560008573ffffffffffffffffffffffffffffffffffffffff1673ffffffffffffffffffffffffffffffffffffffff16815260200190815260200160002060008473ffffffffffffffffffffffffffffffffffffffff1673ffffffffffffffffffffffffffffffffffffffff16815260200190815260200160002060006101000a81548160ff0219169083151502179055508173ffffffffffffffffffffffffffffffffffffffff168373ffffffffffffffffffffffffffffffffffffffff167f17307eab39ab6107e8899845ad3d59bd9653f200f220920489ca2b5937696c3183604051612a2d91906133c2565b60405180910390a3505050565b612a4584848461231d565b612a5184848484612bef565b612a90576040517f08c379a0000000000000000000000000000000000000000000000000000000008152600401612a87906151cf565b60405180910390fd5b50505050565b606060405180602001604052806000815250905090565b6060612ab882612112565b612af7576040517f08c379a0000000000000000000000000000000000000000000000000000000008152600401612aee90615261565b60405180910390fd5b6000612b01612a96565b90506000815111612b215760405180602001604052806000815250612b4c565b80612b2b84612d76565b604051602001612b3c929190614648565b6040516020818303038152906040525b915050919050565b60007f01ffc9a7000000000000000000000000000000000000000000000000000000007bffffffffffffffffffffffffffffffffffffffffffffffffffffffff1916827bffffffffffffffffffffffffffffffffffffffffffffffffffffffff1916149050919050565b505050565b505050565b6000806000612bd78585612ed6565b91509150612be481612f57565b819250505092915050565b6000612c108473ffffffffffffffffffffffffffffffffffffffff16613123565b15612d69578373ffffffffffffffffffffffffffffffffffffffff1663150b7a02612c3961217e565b8786866040518563ffffffff1660e01b8152600401612c5b94939291906152cb565b6020604051808303816000875af1925050508015612c9757506040513d601f19601f82011682018060405250810190612c94919061532c565b60015b612d19573d8060008114612cc7576040519150601f19603f3d011682016040523d82523d6000602084013e612ccc565b606091505b506000815103612d11576040517f08c379a0000000000000000000000000000000000000000000000000000000008152600401612d08906151cf565b60405180910390fd5b805181602001fd5b63150b7a0260e01b7bffffffffffffffffffffffffffffffffffffffffffffffffffffffff1916817bffffffffffffffffffffffffffffffffffffffffffffffffffffffff191614915050612d6e565b600190505b949350505050565b606060008203612dbd576040518060400160405280600181526020017f30000000000000000000000000000000000000000000000000000000000000008152509050612ed1565b600082905060005b60008214612def578080612dd890615359565b915050600a82612de891906153d0565b9150612dc5565b60008167ffffffffffffffff811115612e0b57612e0a6136c8565b5b6040519080825280601f01601f191660200182016040528015612e3d5781602001600182028036833780820191505090505b5090505b60008514612eca57600182612e569190614c0e565b9150600a85612e659190615401565b6030612e719190614c42565b60f81b818381518110612e8757612e86615432565b5b60200101907effffffffffffffffffffffffffffffffffffffffffffffffffffffffffffff1916908160001a905350600a85612ec391906153d0565b9450612e41565b8093505050505b919050565b6000806041835103612f175760008060006020860151925060408601519150606086015160001a9050612f0b87828585613146565b94509450505050612f50565b6040835103612f47576000806020850151915060408501519050612f3c868383613252565b935093505050612f50565b60006002915091505b9250929050565b60006004811115612f6b57612f6a615461565b5b816004811115612f7e57612f7d615461565b5b03156131205760016004811115612f9857612f97615461565b5b816004811115612fab57612faa615461565b5b03612feb576040517f08c379a0000000000000000000000000000000000000000000000000000000008152600401612fe2906154dc565b60405180910390fd5b60026004811115612fff57612ffe615461565b5b81600481111561301257613011615461565b5b03613052576040517f08c379a000000000000000000000000000000000000000000000000000000000815260040161304990615548565b60405180910390fd5b6003600481111561306657613065615461565b5b81600481111561307957613078615461565b5b036130b9576040517f08c379a00000000000000000000000000000000000000000000000000000000081526004016130b0906155da565b60405180910390fd5b6004808111156130cc576130cb615461565b5b8160048111156130df576130de615461565b5b0361311f576040517f08c379a00000000000000000000000000000000000000000000000000000000081526004016131169061566c565b60405180910390fd5b5b50565b6000808273ffffffffffffffffffffffffffffffffffffffff163b119050919050565b6000807f7fffffffffffffffffffffffffffffff5d576e7357a4501ddfe92f46681b20a08360001c1115613181576000600391509150613249565b601b8560ff16141580156131995750601c8560ff1614155b156131ab576000600491509150613249565b6000600187878787604051600081526020016040526040516131d094939291906156b7565b6020604051602081039080840390855afa1580156131f2573d6000803e3d6000fd5b505050602060405103519050600073ffffffffffffffffffffffffffffffffffffffff168173ffffffffffffffffffffffffffffffffffffffff160361324057600060019250925050613249565b80600092509250505b94509492505050565b60008060007f7fffffffffffffffffffffffffffffffffffffffffffffffffffffffffffffff60001b841690506000601b60ff8660001c901c6132959190614c42565b90506132a387828885613146565b935093505050935093915050565b6040518061010001604052806000815260200160008152602001606081526020016000151581526020016000815260200160008152602001600073ffffffffffffffffffffffffffffffffffffffff168152602001600081525090565b6000604051905090565b600080fd5b600080fd5b60007fffffffff0000000000000000000000000000000000000000000000000000000082169050919050565b61335781613322565b811461336257600080fd5b50565b6000813590506133748161334e565b92915050565b6000602082840312156133905761338f613318565b5b600061339e84828501613365565b91505092915050565b60008115159050919050565b6133bc816133a7565b82525050565b60006020820190506133d760008301846133b3565b92915050565b600081519050919050565b600082825260208201905092915050565b60005b838110156134175780820151818401526020810190506133fc565b60008484015250505050565b6000601f19601f8301169050919050565b600061343f826133dd565b61344981856133e8565b93506134598185602086016133f9565b61346281613423565b840191505092915050565b600060208201905081810360008301526134878184613434565b905092915050565b6000819050919050565b6134a28161348f565b81146134ad57600080fd5b50565b6000813590506134bf81613499565b92915050565b6000602082840312156134db576134da613318565b5b60006134e9848285016134b0565b91505092915050565b600073ffffffffffffffffffffffffffffffffffffffff82169050919050565b600061351d826134f2565b9050919050565b61352d81613512565b82525050565b60006020820190506135486000830184613524565b92915050565b61355781613512565b811461356257600080fd5b50565b6000813590506135748161354e565b92915050565b6000806040838503121561359157613590613318565b5b600061359f85828601613565565b92505060206135b0858286016134b0565b9150509250929050565b6000806000606084860312156135d3576135d2613318565b5b60006135e186828701613565565b93505060206135f286828701613565565b9250506040613603868287016134b0565b9150509250925092565b60006020828403121561362357613622613318565b5b600061363184828501613565565b91505092915050565b6136438161348f565b82525050565b600060208201905061365e600083018461363a565b92915050565b600080fd5b60006060828403121561367f5761367e613664565b5b81905092915050565b6000819050919050565b61369b81613688565b81146136a657600080fd5b50565b6000813590506136b881613692565b92915050565b600080fd5b600080fd5b7f4e487b7100000000000000000000000000000000000000000000000000000000600052604160045260246000fd5b61370082613423565b810181811067ffffffffffffffff8211171561371f5761371e6136c8565b5b80604052505050565b600061373261330e565b905061373e82826136f7565b919050565b600067ffffffffffffffff82111561375e5761375d6136c8565b5b61376782613423565b9050602081019050919050565b82818337600083830152505050565b600061379661379184613743565b613728565b9050828152602081018484840111156137b2576137b16136c3565b5b6137bd848285613774565b509392505050565b600082601f8301126137da576137d96136be565b5b81356137ea848260208601613783565b91505092915050565b60008060006060848603121561380c5761380b613318565b5b600084013567ffffffffffffffff81111561382a5761382961331d565b5b61383686828701613669565b9350506020613847868287016136a9565b925050604084013567ffffffffffffffff8111156138685761386761331d565b5b613874868287016137c5565b9150509250925092565b60008060006060848603121561389757613896613318565b5b60006138a5868287016134b0565b93505060206138b6868287016136a9565b925050604084013567ffffffffffffffff8111156138d7576138d661331d565b5b6138e3868287016137c5565b9150509250925092565b6138f6816133a7565b811461390157600080fd5b50565b600081359050613913816138ed565b92915050565b600080604083850312156139305761392f613318565b5b600061393e85828601613565565b925050602061394f85828601613904565b9150509250929050565b6000806000806080858703121561397357613972613318565b5b600061398187828801613565565b945050602061399287828801613565565b93505060406139a3878288016134b0565b925050606085013567ffffffffffffffff8111156139c4576139c361331d565b5b6139d0878288016137c5565b91505092959194509250565b600080600080600060a086880312156139f8576139f7613318565b5b6000613a06888289016134b0565b9550506020613a17888289016134b0565b9450506040613a28888289016134b0565b9350506060613a39888289016136a9565b925050608086013567ffffffffffffffff811115613a5a57613a5961331d565b5b613a66888289016137c5565b9150509295509295909350565b60008060408385031215613a8a57613a89613318565b5b6000613a9885828601613565565b9250506020613aa985828601613565565b9150509250929050565b613abc8161348f565b82525050565b600082825260208201905092915050565b6000613ade826133dd565b613ae88185613ac2565b9350613af88185602086016133f9565b613b0181613423565b840191505092915050565b613b15816133a7565b82525050565b613b2481613512565b82525050565b600061010083016000830151613b436000860182613ab3565b506020830151613b566020860182613ab3565b5060408301518482036040860152613b6e8282613ad3565b9150506060830151613b836060860182613b0c565b506080830151613b966080860182613ab3565b5060a0830151613ba960a0860182613ab3565b5060c0830151613bbc60c0860182613b1b565b5060e0830151613bcf60e0860182613ab3565b508091505092915050565b60006020820190508181036000830152613bf48184613b2a565b905092915050565b7f4e487b7100000000000000000000000000000000000000000000000000000000600052602260045260246000fd5b60006002820490506001821680613c4357607f821691505b602082108103613c5657613c55613bfc565b5b50919050565b7f4552433732313a20617070726f76656420717565727920666f72206e6f6e657860008201527f697374656e7420746f6b656e0000000000000000000000000000000000000000602082015250565b6000613cb8602c836133e8565b9150613cc382613c5c565b604082019050919050565b60006020820190508181036000830152613ce781613cab565b9050919050565b7f4552433732313a20617070726f76616c20746f2063757272656e74206f776e6560008201527f7200000000000000000000000000000000000000000000000000000000000000602082015250565b6000613d4a6021836133e8565b9150613d5582613cee565b604082019050919050565b60006020820190508181036000830152613d7981613d3d565b9050919050565b7f4552433732313a20617070726f76652063616c6c6572206973206e6f74206f7760008201527f6e6572206e6f7220617070726f76656420666f7220616c6c0000000000000000602082015250565b6000613ddc6038836133e8565b9150613de782613d80565b604082019050919050565b60006020820190508181036000830152613e0b81613dcf565b9050919050565b7f4552433732313a207472616e736665722063616c6c6572206973206e6f74206f60008201527f776e6572206e6f7220617070726f766564000000000000000000000000000000602082015250565b6000613e6e6031836133e8565b9150613e7982613e12565b604082019050919050565b60006020820190508181036000830152613e9d81613e61565b9050919050565b7f4552433732313a206f776e657220717565727920666f72206e6f6e657869737460008201527f656e7420746f6b656e0000000000000000000000000000000000000000000000602082015250565b6000613f006029836133e8565b9150613f0b82613ea4565b604082019050919050565b60006020820190508181036000830152613f2f81613ef3565b9050919050565b7f4552433732313a2062616c616e636520717565727920666f7220746865207a6560008201527f726f206164647265737300000000000000000000000000000000000000000000602082015250565b6000613f92602a836133e8565b9150613f9d82613f36565b604082019050919050565b60006020820190508181036000830152613fc181613f85565b9050919050565b7f4f776e61626c653a2063616c6c6572206973206e6f7420746865206f776e6572600082015250565b6000613ffe6020836133e8565b915061400982613fc8565b602082019050919050565b6000602082019050818103600083015261402d81613ff1565b9050919050565b7f5265656e7472616e637947756172643a207265656e7472616e742063616c6c00600082015250565b600061406a601f836133e8565b915061407582614034565b602082019050919050565b600060208201905081810360008301526140998161405d565b9050919050565b7f41646472657373206973206e6f7420617574686f72697a656400000000000000600082015250565b60006140d66019836133e8565b91506140e1826140a0565b602082019050919050565b60006020820190508181036000830152614105816140c9565b9050919050565b600081519050919050565b600081905092915050565b600061412d8261410c565b6141378185614117565b93506141478185602086016133f9565b80840191505092915050565b600061415f8284614122565b915081905092915050565b7f416c7265616479207369676e6174757265207573656400000000000000000000600082015250565b60006141a06016836133e8565b91506141ab8261416a565b602082019050919050565b600060208201905081810360008301526141cf81614193565b9050919050565b7f596f752063616e6e6f742062757920796f7572206f776e204e46540000000000600082015250565b600061420c601b836133e8565b9150614217826141d6565b602082019050919050565b6000602082019050818103600083015261423b816141ff565b9050919050565b7f496e76616c696420707269636500000000000000000000000000000000000000600082015250565b6000614278600d836133e8565b915061428382614242565b602082019050919050565b600060208201905081810360008301526142a78161426b565b9050919050565b600080fd5b600080fd5b600080fd5b600080833560016020038436030381126142da576142d96142ae565b5b80840192508235915067ffffffffffffffff8211156142fc576142fb6142b3565b5b602083019250600182023603831315614318576143176142b8565b5b509250929050565b600081905092915050565b60006143378385614320565b9350614344838584613774565b82840190509392505050565b600061435d82848661432b565b91508190509392505050565b7f41756374696f6e206e6f74207374617274656420796574000000000000000000600082015250565b600061439f6017836133e8565b91506143aa82614369565b602082019050919050565b600060208201905081810360008301526143ce81614392565b9050919050565b7f41756374696f6e2074696d65206e6f742079657420656e646564000000000000600082015250565b600061440b601a836133e8565b9150614416826143d5565b602082019050919050565b6000602082019050818103600083015261443a816143fe565b9050919050565b7f596f7520617265206e6f74206869676865737420626964646572000000000000600082015250565b6000614477601a836133e8565b915061448282614441565b602082019050919050565b600060208201905081810360008301526144a68161446a565b9050919050565b7f41756374696f6e20616c726561647920656e6465640000000000000000000000600082015250565b60006144e36015836133e8565b91506144ee826144ad565b602082019050919050565b60006020820190508181036000830152614512816144d6565b9050919050565b7f48696768657374206269642063616e6f74206265203000000000000000000000600082015250565b600061454f6016836133e8565b915061455a82614519565b602082019050919050565b6000602082019050818103600083015261457e81614542565b9050919050565b7f45524337323155524953746f726167653a2055524920717565727920666f722060008201527f6e6f6e6578697374656e7420746f6b656e000000000000000000000000000000602082015250565b60006145e16031836133e8565b91506145ec82614585565b604082019050919050565b60006020820190508181036000830152614610816145d4565b9050919050565b6000614622826133dd565b61462c8185614320565b935061463c8185602086016133f9565b80840191505092915050565b60006146548285614617565b91506146608284614617565b91508190509392505050565b7f496e76616c696420706172616d65746572730000000000000000000000000000600082015250565b60006146a26012836133e8565b91506146ad8261466c565b602082019050919050565b600060208201905081810360008301526146d181614695565b9050919050565b7f496e76616c696420626173655072696365000000000000000000000000000000600082015250565b600061470e6011836133e8565b9150614719826146d8565b602082019050919050565b6000602082019050818103600083015261473d81614701565b9050919050565b7f41756374696f6e2074696d6520656e6465640000000000000000000000000000600082015250565b600061477a6012836133e8565b915061478582614744565b602082019050919050565b600060208201905081810360008301526147a98161476d565b9050919050565b7f41756374696f6e20656e64656400000000000000000000000000000000000000600082015250565b60006147e6600d836133e8565b91506147f1826147b0565b602082019050919050565b60006020820190508181036000830152614815816147d9565b9050919050565b7f596f752063616e6e6f7420626964206f6e20796f7572206f776e204e46540000600082015250565b6000614852601e836133e8565b915061485d8261481c565b602082019050919050565b6000602082019050818103600083015261488181614845565b9050919050565b7f496e76616c69642070726576696f757348696768657374426964000000000000600082015250565b60006148be601a836133e8565b91506148c982614888565b602082019050919050565b600060208201905081810360008301526148ed816148b1565b9050919050565b7f4e6f7420656e6f7567682062616c616e63650000000000000000000000000000600082015250565b600061492a6012836133e8565b9150614935826148f4565b602082019050919050565b600060208201905081810360008301526149598161491d565b9050919050565b60006060820190506149756000830186613524565b614982602083018561363a565b61498f604083018461363a565b949350505050565b7f4f776e61626c653a206e6577206f776e657220697320746865207a65726f206160008201527f6464726573730000000000000000000000000000000000000000000000000000602082015250565b60006149f36026836133e8565b91506149fe82614997565b604082019050919050565b60006020820190508181036000830152614a22816149e6565b9050919050565b7f4552433732313a206f70657261746f7220717565727920666f72206e6f6e657860008201527f697374656e7420746f6b656e0000000000000000000000000000000000000000602082015250565b6000614a85602c836133e8565b9150614a9082614a29565b604082019050919050565b60006020820190508181036000830152614ab481614a78565b9050919050565b7f4552433732313a207472616e736665722066726f6d20696e636f72726563742060008201527f6f776e6572000000000000000000000000000000000000000000000000000000602082015250565b6000614b176025836133e8565b9150614b2282614abb565b604082019050919050565b60006020820190508181036000830152614b4681614b0a565b9050919050565b7f4552433732313a207472616e7366657220746f20746865207a65726f2061646460008201527f7265737300000000000000000000000000000000000000000000000000000000602082015250565b6000614ba96024836133e8565b9150614bb482614b4d565b604082019050919050565b60006020820190508181036000830152614bd881614b9c565b9050919050565b7f4e487b7100000000000000000000000000000000000000000000000000000000600052601160045260246000fd5b6000614c198261348f565b9150614c248361348f565b9250828203905081811115614c3c57614c3b614bdf565b5b92915050565b6000614c4d8261348f565b9150614c588361348f565b9250828201905080821115614c7057614c6f614bdf565b5b92915050565b7f19457468657265756d205369676e6564204d6573736167653a0a333200000000600082015250565b6000614cac601c83614320565b9150614cb782614c76565b601c82019050919050565b6000819050919050565b614cdd614cd882613688565b614cc2565b82525050565b6000614cee82614c9f565b9150614cfa8284614ccc565b60208201915081905092915050565b7f4552433732313a206d696e7420746f20746865207a65726f2061646472657373600082015250565b6000614d3f6020836133e8565b9150614d4a82614d09565b602082019050919050565b60006020820190508181036000830152614d6e81614d32565b9050919050565b7f4552433732313a20746f6b656e20616c7265616479206d696e74656400000000600082015250565b6000614dab601c836133e8565b9150614db682614d75565b602082019050919050565b60006020820190508181036000830152614dda81614d9e565b9050919050565b7f45524337323155524953746f726167653a2055524920736574206f66206e6f6e60008201527f6578697374656e7420746f6b656e000000000000000000000000000000000000602082015250565b6000614e3d602e836133e8565b9150614e4882614de1565b604082019050919050565b60006020820190508181036000830152614e6c81614e30565b9050919050565b60008190508160005260206000209050919050565b60006020601f8301049050919050565b600082821b905092915050565b600060088302614ed57fffffffffffffffffffffffffffffffffffffffffffffffffffffffffffffffff82614e98565b614edf8683614e98565b95508019841693508086168417925050509392505050565b6000819050919050565b6000614f1c614f17614f128461348f565b614ef7565b61348f565b9050919050565b6000819050919050565b614f3683614f01565b614f4a614f4282614f23565b848454614ea5565b825550505050565b600090565b614f5f614f52565b614f6a818484614f2d565b505050565b5b81811015614f8e57614f83600082614f57565b600181019050614f70565b5050565b601f821115614fd357614fa481614e73565b614fad84614e88565b81016020851015614fbc578190505b614fd0614fc885614e88565b830182614f6f565b50505b505050565b600082821c905092915050565b6000614ff660001984600802614fd8565b1980831691505092915050565b600061500f8383614fe5565b9150826002028217905092915050565b615028826133dd565b67ffffffffffffffff811115615041576150406136c8565b5b61504b8254613c2b565b615056828285614f92565b600060209050601f8311600181146150895760008415615077578287015190505b6150818582615003565b8655506150e9565b601f19841661509786614e73565b60005b828110156150bf5784890151825560018201915060208501945060208101905061509a565b868310156150dc57848901516150d8601f891682614fe5565b8355505b6001600288020188555050505b505050505050565b7f4552433732313a20617070726f766520746f2063616c6c657200000000000000600082015250565b60006151276019836133e8565b9150615132826150f1565b602082019050919050565b600060208201905081810360008301526151568161511a565b9050919050565b7f4552433732313a207472616e7366657220746f206e6f6e20455243373231526560008201527f63656976657220696d706c656d656e7465720000000000000000000000000000602082015250565b60006151b96032836133e8565b91506151c48261515d565b604082019050919050565b600060208201905081810360008301526151e8816151ac565b9050919050565b7f4552433732314d657461646174613a2055524920717565727920666f72206e6f60008201527f6e6578697374656e7420746f6b656e0000000000000000000000000000000000602082015250565b600061524b602f836133e8565b9150615256826151ef565b604082019050919050565b6000602082019050818103600083015261527a8161523e565b9050919050565b600082825260208201905092915050565b600061529d8261410c565b6152a78185615281565b93506152b78185602086016133f9565b6152c081613423565b840191505092915050565b60006080820190506152e06000830187613524565b6152ed6020830186613524565b6152fa604083018561363a565b818103606083015261530c8184615292565b905095945050505050565b6000815190506153268161334e565b92915050565b60006020828403121561534257615341613318565b5b600061535084828501615317565b91505092915050565b60006153648261348f565b91507fffffffffffffffffffffffffffffffffffffffffffffffffffffffffffffffff820361539657615395614bdf565b5b600182019050919050565b7f4e487b7100000000000000000000000000000000000000000000000000000000600052601260045260246000fd5b60006153db8261348f565b91506153e68361348f565b9250826153f6576153f56153a1565b5b828204905092915050565b600061540c8261348f565b91506154178361348f565b925082615427576154266153a1565b5b828206905092915050565b7f4e487b7100000000000000000000000000000000000000000000000000000000600052603260045260246000fd5b7f4e487b7100000000000000000000000000000000000000000000000000000000600052602160045260246000fd5b7f45434453413a20696e76616c6964207369676e61747572650000000000000000600082015250565b60006154c66018836133e8565b91506154d182615490565b602082019050919050565b600060208201905081810360008301526154f5816154b9565b9050919050565b7f45434453413a20696e76616c6964207369676e6174757265206c656e67746800600082015250565b6000615532601f836133e8565b915061553d826154fc565b602082019050919050565b6000602082019050818103600083015261556181615525565b9050919050565b7f45434453413a20696e76616c6964207369676e6174757265202773272076616c60008201527f7565000000000000000000000000000000000000000000000000000000000000602082015250565b60006155c46022836133e8565b91506155cf82615568565b604082019050919050565b600060208201905081810360008301526155f3816155b7565b9050919050565b7f45434453413a20696e76616c6964207369676e6174757265202776272076616c60008201527f7565000000000000000000000000000000000000000000000000000000000000602082015250565b60006156566022836133e8565b9150615661826155fa565b604082019050919050565b6000602082019050818103600083015261568581615649565b9050919050565b61569581613688565b82525050565b600060ff82169050919050565b6156b18161569b565b82525050565b60006080820190506156cc600083018761568c565b6156d960208301866156a8565b6156e6604083018561568c565b6156f3606083018461568c565b9594505050505056fea26469706673582212208d23a0038a98719b40011e8700f18e19221e3b41d80eecbb55e8ddb3ab76915764736f6c63430008110033",
  "linkReferences": {},
  "deployedLinkReferences": {}
}